{
	"contracts/rock_paper_scissors.sol": {
		"RockPaperScissors": {
			"abi": [
				{
					"anonymous": false,
					"inputs": [
						{
							"indexed": false,
							"internalType": "string",
							"name": "playerInput",
							"type": "string"
						},
						{
							"indexed": false,
							"internalType": "string",
							"name": "computerChoice",
							"type": "string"
						},
						{
							"indexed": false,
							"internalType": "uint256",
							"name": "gameOutcome",
							"type": "uint256"
						},
						{
							"indexed": false,
							"internalType": "string",
							"name": "outputMessage",
							"type": "string"
						}
					],
					"name": "NewGame",
					"type": "event"
				},
				{
					"anonymous": false,
					"inputs": [
						{
							"indexed": true,
							"internalType": "address",
							"name": "previousOwner",
							"type": "address"
						},
						{
							"indexed": true,
							"internalType": "address",
							"name": "newOwner",
							"type": "address"
						}
					],
					"name": "OwnershipTransferred",
					"type": "event"
				},
				{
					"inputs": [
						{
							"internalType": "uint256",
							"name": "",
							"type": "uint256"
						}
					],
					"name": "gameToOwner",
					"outputs": [
						{
							"internalType": "address",
							"name": "",
							"type": "address"
						}
					],
					"stateMutability": "view",
					"type": "function"
				},
				{
					"inputs": [
						{
							"internalType": "uint256",
							"name": "",
							"type": "uint256"
						}
					],
					"name": "games",
					"outputs": [
						{
							"internalType": "string",
							"name": "playerInput",
							"type": "string"
						},
						{
							"internalType": "string",
							"name": "computerChoice",
							"type": "string"
						},
						{
							"internalType": "uint256",
							"name": "gameOutcome",
							"type": "uint256"
						},
						{
							"internalType": "string",
							"name": "outputMessage",
							"type": "string"
						}
					],
					"stateMutability": "view",
					"type": "function"
				},
				{
					"inputs": [],
					"name": "owner",
					"outputs": [
						{
							"internalType": "address",
							"name": "",
							"type": "address"
						}
					],
					"stateMutability": "view",
					"type": "function"
				},
				{
					"inputs": [
						{
							"internalType": "address",
							"name": "",
							"type": "address"
						}
					],
					"name": "ownerGamesCount",
					"outputs": [
						{
							"internalType": "uint256",
							"name": "",
							"type": "uint256"
						}
					],
					"stateMutability": "view",
					"type": "function"
				},
				{
					"inputs": [
						{
							"internalType": "string",
							"name": "playerInput",
							"type": "string"
						}
					],
					"name": "playRockPaperScissors",
					"outputs": [
						{
							"internalType": "string",
							"name": "",
							"type": "string"
						}
					],
					"stateMutability": "nonpayable",
					"type": "function"
				},
				{
					"inputs": [],
					"name": "renounceOwnership",
					"outputs": [],
					"stateMutability": "nonpayable",
					"type": "function"
				},
				{
					"inputs": [
						{
							"internalType": "address",
							"name": "newOwner",
							"type": "address"
						}
					],
					"name": "transferOwnership",
					"outputs": [],
					"stateMutability": "nonpayable",
					"type": "function"
				}
			],
			"devdoc": {
				"kind": "dev",
				"methods": {
					"owner()": {
						"details": "Returns the address of the current owner."
					},
					"renounceOwnership()": {
						"details": "Leaves the contract without owner. It will not be possible to call `onlyOwner` functions anymore. Can only be called by the current owner. NOTE: Renouncing ownership will leave the contract without an owner, thereby removing any functionality that is only available to the owner."
					},
					"transferOwnership(address)": {
						"details": "Transfers ownership of the contract to a new account (`newOwner`). Can only be called by the current owner."
					}
				},
				"version": 1
			},
			"evm": {
				"assembly": "    /* \"contracts/rock_paper_scissors.sol\":87:5161  contract RockPaperScissors is Ownable {... */\n  mstore(0x40, 0x80)\n  callvalue\n  dup1\n  iszero\n  tag_1\n  jumpi\n  0x00\n  dup1\n  revert\ntag_1:\n  pop\n    /* \"contracts/ownable.sol\":964:996  _transferOwnership(_msgSender()) */\n  tag_4\n    /* \"contracts/ownable.sol\":983:995  _msgSender() */\n  tag_5\n    /* \"contracts/ownable.sol\":983:993  _msgSender */\n  shl(0x20, tag_6)\n    /* \"contracts/ownable.sol\":983:995  _msgSender() */\n  0x20\n  shr\n  jump\t// in\ntag_5:\n    /* \"contracts/ownable.sol\":964:982  _transferOwnership */\n  shl(0x20, tag_7)\n    /* \"contracts/ownable.sol\":964:996  _transferOwnership(_msgSender()) */\n  0x20\n  shr\n  jump\t// in\ntag_4:\n    /* \"contracts/rock_paper_scissors.sol\":87:5161  contract RockPaperScissors is Ownable {... */\n  jump(tag_8)\n    /* \"utils/Context.sol\":656:754  function _msgSender() internal view virtual returns (address) {... */\ntag_6:\n    /* \"utils/Context.sol\":709:716  address */\n  0x00\n    /* \"utils/Context.sol\":736:746  msg.sender */\n  caller\n    /* \"utils/Context.sol\":729:746  return msg.sender */\n  swap1\n  pop\n    /* \"utils/Context.sol\":656:754  function _msgSender() internal view virtual returns (address) {... */\n  swap1\n  jump\t// out\n    /* \"contracts/ownable.sol\":2510:2701  function _transferOwnership(address newOwner) internal virtual {... */\ntag_7:\n    /* \"contracts/ownable.sol\":2584:2600  address oldOwner */\n  0x00\n    /* \"contracts/ownable.sol\":2603:2609  _owner */\n  dup1\n  0x00\n  swap1\n  sload\n  swap1\n  0x0100\n  exp\n  swap1\n  div\n  0xffffffffffffffffffffffffffffffffffffffff\n  and\n    /* \"contracts/ownable.sol\":2584:2609  address oldOwner = _owner */\n  swap1\n  pop\n    /* \"contracts/ownable.sol\":2629:2637  newOwner */\n  dup2\n    /* \"contracts/ownable.sol\":2620:2626  _owner */\n  0x00\n  dup1\n    /* \"contracts/ownable.sol\":2620:2637  _owner = newOwner */\n  0x0100\n  exp\n  dup2\n  sload\n  dup2\n  0xffffffffffffffffffffffffffffffffffffffff\n  mul\n  not\n  and\n  swap1\n  dup4\n  0xffffffffffffffffffffffffffffffffffffffff\n  and\n  mul\n  or\n  swap1\n  sstore\n  pop\n    /* \"contracts/ownable.sol\":2684:2692  newOwner */\n  dup2\n    /* \"contracts/ownable.sol\":2653:2693  OwnershipTransferred(oldOwner, newOwner) */\n  0xffffffffffffffffffffffffffffffffffffffff\n  and\n    /* \"contracts/ownable.sol\":2674:2682  oldOwner */\n  dup2\n    /* \"contracts/ownable.sol\":2653:2693  OwnershipTransferred(oldOwner, newOwner) */\n  0xffffffffffffffffffffffffffffffffffffffff\n  and\n  0x8be0079c531659141344cd1fd0a4f28419497f9722a3daafe3b4186f6b6457e0\n  mload(0x40)\n  mload(0x40)\n  dup1\n  swap2\n  sub\n  swap1\n  log3\n    /* \"contracts/ownable.sol\":2573:2701  {... */\n  pop\n    /* \"contracts/ownable.sol\":2510:2701  function _transferOwnership(address newOwner) internal virtual {... */\n  pop\n  jump\t// out\n    /* \"contracts/rock_paper_scissors.sol\":87:5161  contract RockPaperScissors is Ownable {... */\ntag_8:\n  dataSize(sub_0)\n  dup1\n  dataOffset(sub_0)\n  0x00\n  codecopy\n  0x00\n  return\nstop\n\nsub_0: assembly {\n        /* \"contracts/rock_paper_scissors.sol\":87:5161  contract RockPaperScissors is Ownable {... */\n      mstore(0x40, 0x80)\n      callvalue\n      dup1\n      iszero\n      tag_1\n      jumpi\n      0x00\n      dup1\n      revert\n    tag_1:\n      pop\n      jumpi(tag_2, lt(calldatasize, 0x04))\n      shr(0xe0, calldataload(0x00))\n      dup1\n      0x4ef58916\n      gt\n      tag_10\n      jumpi\n      dup1\n      0x4ef58916\n      eq\n      tag_6\n      jumpi\n      dup1\n      0x715018a6\n      eq\n      tag_7\n      jumpi\n      dup1\n      0x8da5cb5b\n      eq\n      tag_8\n      jumpi\n      dup1\n      0xf2fde38b\n      eq\n      tag_9\n      jumpi\n      jump(tag_2)\n    tag_10:\n      dup1\n      0x117a5b90\n      eq\n      tag_3\n      jumpi\n      dup1\n      0x38696766\n      eq\n      tag_4\n      jumpi\n      dup1\n      0x470778c4\n      eq\n      tag_5\n      jumpi\n    tag_2:\n      0x00\n      dup1\n      revert\n        /* \"contracts/rock_paper_scissors.sol\":387:406  Game[] public games */\n    tag_3:\n      tag_11\n      0x04\n      dup1\n      calldatasize\n      sub\n      dup2\n      add\n      swap1\n      tag_12\n      swap2\n      swap1\n      tag_13\n      jump\t// in\n    tag_12:\n      tag_14\n      jump\t// in\n    tag_11:\n      mload(0x40)\n      tag_15\n      swap5\n      swap4\n      swap3\n      swap2\n      swap1\n      tag_16\n      jump\t// in\n    tag_15:\n      mload(0x40)\n      dup1\n      swap2\n      sub\n      swap1\n      return\n        /* \"contracts/rock_paper_scissors.sol\":415:459  mapping (uint => address) public gameToOwner */\n    tag_4:\n      tag_17\n      0x04\n      dup1\n      calldatasize\n      sub\n      dup2\n      add\n      swap1\n      tag_18\n      swap2\n      swap1\n      tag_13\n      jump\t// in\n    tag_18:\n      tag_19\n      jump\t// in\n    tag_17:\n      mload(0x40)\n      tag_20\n      swap2\n      swap1\n      tag_21\n      jump\t// in\n    tag_20:\n      mload(0x40)\n      dup1\n      swap2\n      sub\n      swap1\n      return\n        /* \"contracts/rock_paper_scissors.sol\":466:514  mapping (address => uint) public ownerGamesCount */\n    tag_5:\n      tag_22\n      0x04\n      dup1\n      calldatasize\n      sub\n      dup2\n      add\n      swap1\n      tag_23\n      swap2\n      swap1\n      tag_24\n      jump\t// in\n    tag_23:\n      tag_25\n      jump\t// in\n    tag_22:\n      mload(0x40)\n      tag_26\n      swap2\n      swap1\n      tag_27\n      jump\t// in\n    tag_26:\n      mload(0x40)\n      dup1\n      swap2\n      sub\n      swap1\n      return\n        /* \"contracts/rock_paper_scissors.sol\":523:1191  function playRockPaperScissors(string memory playerInput) public returns (string memory) {... */\n    tag_6:\n      tag_28\n      0x04\n      dup1\n      calldatasize\n      sub\n      dup2\n      add\n      swap1\n      tag_29\n      swap2\n      swap1\n      tag_30\n      jump\t// in\n    tag_29:\n      tag_31\n      jump\t// in\n    tag_28:\n      mload(0x40)\n      tag_32\n      swap2\n      swap1\n      tag_33\n      jump\t// in\n    tag_32:\n      mload(0x40)\n      dup1\n      swap2\n      sub\n      swap1\n      return\n        /* \"contracts/ownable.sol\":1891:1994  function renounceOwnership() public virtual onlyOwner {... */\n    tag_7:\n      tag_34\n      tag_35\n      jump\t// in\n    tag_34:\n      stop\n        /* \"contracts/ownable.sol\":1243:1330  function owner() public view virtual returns (address) {... */\n    tag_8:\n      tag_36\n      tag_37\n      jump\t// in\n    tag_36:\n      mload(0x40)\n      tag_38\n      swap2\n      swap1\n      tag_21\n      jump\t// in\n    tag_38:\n      mload(0x40)\n      dup1\n      swap2\n      sub\n      swap1\n      return\n        /* \"contracts/ownable.sol\":2149:2350  function transferOwnership(address newOwner) public virtual onlyOwner {... */\n    tag_9:\n      tag_39\n      0x04\n      dup1\n      calldatasize\n      sub\n      dup2\n      add\n      swap1\n      tag_40\n      swap2\n      swap1\n      tag_24\n      jump\t// in\n    tag_40:\n      tag_41\n      jump\t// in\n    tag_39:\n      stop\n        /* \"contracts/rock_paper_scissors.sol\":387:406  Game[] public games */\n    tag_14:\n      0x01\n      dup2\n      dup2\n      sload\n      dup2\n      lt\n      tag_42\n      jumpi\n      0x00\n      dup1\n      revert\n    tag_42:\n      swap1\n      0x00\n      mstore\n      keccak256(0x00, 0x20)\n      swap1\n      0x04\n      mul\n      add\n      0x00\n      swap2\n      pop\n      swap1\n      pop\n      dup1\n      0x00\n      add\n      dup1\n      sload\n      tag_44\n      swap1\n      tag_45\n      jump\t// in\n    tag_44:\n      dup1\n      0x1f\n      add\n      0x20\n      dup1\n      swap2\n      div\n      mul\n      0x20\n      add\n      mload(0x40)\n      swap1\n      dup2\n      add\n      0x40\n      mstore\n      dup1\n      swap3\n      swap2\n      swap1\n      dup2\n      dup2\n      mstore\n      0x20\n      add\n      dup3\n      dup1\n      sload\n      tag_46\n      swap1\n      tag_45\n      jump\t// in\n    tag_46:\n      dup1\n      iszero\n      tag_47\n      jumpi\n      dup1\n      0x1f\n      lt\n      tag_48\n      jumpi\n      0x0100\n      dup1\n      dup4\n      sload\n      div\n      mul\n      dup4\n      mstore\n      swap2\n      0x20\n      add\n      swap2\n      jump(tag_47)\n    tag_48:\n      dup3\n      add\n      swap2\n      swap1\n      0x00\n      mstore\n      keccak256(0x00, 0x20)\n      swap1\n    tag_49:\n      dup2\n      sload\n      dup2\n      mstore\n      swap1\n      0x01\n      add\n      swap1\n      0x20\n      add\n      dup1\n      dup4\n      gt\n      tag_49\n      jumpi\n      dup3\n      swap1\n      sub\n      0x1f\n      and\n      dup3\n      add\n      swap2\n    tag_47:\n      pop\n      pop\n      pop\n      pop\n      pop\n      swap1\n      dup1\n      0x01\n      add\n      dup1\n      sload\n      tag_50\n      swap1\n      tag_45\n      jump\t// in\n    tag_50:\n      dup1\n      0x1f\n      add\n      0x20\n      dup1\n      swap2\n      div\n      mul\n      0x20\n      add\n      mload(0x40)\n      swap1\n      dup2\n      add\n      0x40\n      mstore\n      dup1\n      swap3\n      swap2\n      swap1\n      dup2\n      dup2\n      mstore\n      0x20\n      add\n      dup3\n      dup1\n      sload\n      tag_51\n      swap1\n      tag_45\n      jump\t// in\n    tag_51:\n      dup1\n      iszero\n      tag_52\n      jumpi\n      dup1\n      0x1f\n      lt\n      tag_53\n      jumpi\n      0x0100\n      dup1\n      dup4\n      sload\n      div\n      mul\n      dup4\n      mstore\n      swap2\n      0x20\n      add\n      swap2\n      jump(tag_52)\n    tag_53:\n      dup3\n      add\n      swap2\n      swap1\n      0x00\n      mstore\n      keccak256(0x00, 0x20)\n      swap1\n    tag_54:\n      dup2\n      sload\n      dup2\n      mstore\n      swap1\n      0x01\n      add\n      swap1\n      0x20\n      add\n      dup1\n      dup4\n      gt\n      tag_54\n      jumpi\n      dup3\n      swap1\n      sub\n      0x1f\n      and\n      dup3\n      add\n      swap2\n    tag_52:\n      pop\n      pop\n      pop\n      pop\n      pop\n      swap1\n      dup1\n      0x02\n      add\n      sload\n      swap1\n      dup1\n      0x03\n      add\n      dup1\n      sload\n      tag_55\n      swap1\n      tag_45\n      jump\t// in\n    tag_55:\n      dup1\n      0x1f\n      add\n      0x20\n      dup1\n      swap2\n      div\n      mul\n      0x20\n      add\n      mload(0x40)\n      swap1\n      dup2\n      add\n      0x40\n      mstore\n      dup1\n      swap3\n      swap2\n      swap1\n      dup2\n      dup2\n      mstore\n      0x20\n      add\n      dup3\n      dup1\n      sload\n      tag_56\n      swap1\n      tag_45\n      jump\t// in\n    tag_56:\n      dup1\n      iszero\n      tag_57\n      jumpi\n      dup1\n      0x1f\n      lt\n      tag_58\n      jumpi\n      0x0100\n      dup1\n      dup4\n      sload\n      div\n      mul\n      dup4\n      mstore\n      swap2\n      0x20\n      add\n      swap2\n      jump(tag_57)\n    tag_58:\n      dup3\n      add\n      swap2\n      swap1\n      0x00\n      mstore\n      keccak256(0x00, 0x20)\n      swap1\n    tag_59:\n      dup2\n      sload\n      dup2\n      mstore\n      swap1\n      0x01\n      add\n      swap1\n      0x20\n      add\n      dup1\n      dup4\n      gt\n      tag_59\n      jumpi\n      dup3\n      swap1\n      sub\n      0x1f\n      and\n      dup3\n      add\n      swap2\n    tag_57:\n      pop\n      pop\n      pop\n      pop\n      pop\n      swap1\n      pop\n      dup5\n      jump\t// out\n        /* \"contracts/rock_paper_scissors.sol\":415:459  mapping (uint => address) public gameToOwner */\n    tag_19:\n      mstore(0x20, 0x02)\n      dup1\n      0x00\n      mstore\n      keccak256(0x00, 0x40)\n      0x00\n      swap2\n      pop\n      sload\n      swap1\n      0x0100\n      exp\n      swap1\n      div\n      0xffffffffffffffffffffffffffffffffffffffff\n      and\n      dup2\n      jump\t// out\n        /* \"contracts/rock_paper_scissors.sol\":466:514  mapping (address => uint) public ownerGamesCount */\n    tag_25:\n      mstore(0x20, 0x03)\n      dup1\n      0x00\n      mstore\n      keccak256(0x00, 0x40)\n      0x00\n      swap2\n      pop\n      swap1\n      pop\n      sload\n      dup2\n      jump\t// out\n        /* \"contracts/rock_paper_scissors.sol\":523:1191  function playRockPaperScissors(string memory playerInput) public returns (string memory) {... */\n    tag_31:\n        /* \"contracts/rock_paper_scissors.sol\":597:610  string memory */\n      0x60\n        /* \"contracts/rock_paper_scissors.sol\":623:651  string memory computerChoice */\n      0x00\n        /* \"contracts/rock_paper_scissors.sol\":654:679  determineComputerChoice() */\n      tag_61\n        /* \"contracts/rock_paper_scissors.sol\":654:677  determineComputerChoice */\n      tag_62\n        /* \"contracts/rock_paper_scissors.sol\":654:679  determineComputerChoice() */\n      jump\t// in\n    tag_61:\n        /* \"contracts/rock_paper_scissors.sol\":623:679  string memory computerChoice = determineComputerChoice() */\n      swap1\n      pop\n        /* \"contracts/rock_paper_scissors.sol\":690:706  uint gameOutcome */\n      0x00\n        /* \"contracts/rock_paper_scissors.sol\":709:758  determineGameOutcome(playerInput, computerChoice) */\n      tag_63\n        /* \"contracts/rock_paper_scissors.sol\":730:741  playerInput */\n      dup5\n        /* \"contracts/rock_paper_scissors.sol\":743:757  computerChoice */\n      dup4\n        /* \"contracts/rock_paper_scissors.sol\":709:729  determineGameOutcome */\n      tag_64\n        /* \"contracts/rock_paper_scissors.sol\":709:758  determineGameOutcome(playerInput, computerChoice) */\n      jump\t// in\n    tag_63:\n        /* \"contracts/rock_paper_scissors.sol\":690:758  uint gameOutcome = determineGameOutcome(playerInput, computerChoice) */\n      swap1\n      pop\n        /* \"contracts/rock_paper_scissors.sol\":769:796  string memory outputMessage */\n      0x00\n        /* \"contracts/rock_paper_scissors.sol\":799:860  createOutputMessage(playerInput, computerChoice, gameOutcome) */\n      tag_65\n        /* \"contracts/rock_paper_scissors.sol\":819:830  playerInput */\n      dup6\n        /* \"contracts/rock_paper_scissors.sol\":832:846  computerChoice */\n      dup5\n        /* \"contracts/rock_paper_scissors.sol\":848:859  gameOutcome */\n      dup5\n        /* \"contracts/rock_paper_scissors.sol\":799:818  createOutputMessage */\n      tag_66\n        /* \"contracts/rock_paper_scissors.sol\":799:860  createOutputMessage(playerInput, computerChoice, gameOutcome) */\n      jump\t// in\n    tag_65:\n        /* \"contracts/rock_paper_scissors.sol\":769:860  string memory outputMessage = createOutputMessage(playerInput, computerChoice, gameOutcome) */\n      swap1\n      pop\n        /* \"contracts/rock_paper_scissors.sol\":881:886  games */\n      0x01\n        /* \"contracts/rock_paper_scissors.sol\":892:953  Game(playerInput, computerChoice, gameOutcome, outputMessage) */\n      mload(0x40)\n      dup1\n      0x80\n      add\n      0x40\n      mstore\n      dup1\n        /* \"contracts/rock_paper_scissors.sol\":897:908  playerInput */\n      dup8\n        /* \"contracts/rock_paper_scissors.sol\":892:953  Game(playerInput, computerChoice, gameOutcome, outputMessage) */\n      dup2\n      mstore\n      0x20\n      add\n        /* \"contracts/rock_paper_scissors.sol\":910:924  computerChoice */\n      dup6\n        /* \"contracts/rock_paper_scissors.sol\":892:953  Game(playerInput, computerChoice, gameOutcome, outputMessage) */\n      dup2\n      mstore\n      0x20\n      add\n        /* \"contracts/rock_paper_scissors.sol\":926:937  gameOutcome */\n      dup5\n        /* \"contracts/rock_paper_scissors.sol\":892:953  Game(playerInput, computerChoice, gameOutcome, outputMessage) */\n      dup2\n      mstore\n      0x20\n      add\n        /* \"contracts/rock_paper_scissors.sol\":939:952  outputMessage */\n      dup4\n        /* \"contracts/rock_paper_scissors.sol\":892:953  Game(playerInput, computerChoice, gameOutcome, outputMessage) */\n      dup2\n      mstore\n      pop\n        /* \"contracts/rock_paper_scissors.sol\":881:954  games.push(Game(playerInput, computerChoice, gameOutcome, outputMessage)) */\n      swap1\n      dup1\n      0x01\n      dup2\n      sload\n      add\n      dup1\n      dup3\n      sstore\n      dup1\n      swap2\n      pop\n      pop\n      0x01\n      swap1\n      sub\n      swap1\n      0x00\n      mstore\n      keccak256(0x00, 0x20)\n      swap1\n      0x04\n      mul\n      add\n      0x00\n      swap1\n      swap2\n      swap1\n      swap2\n      swap1\n      swap2\n      pop\n      0x00\n      dup3\n      add\n      mload\n      dup2\n      0x00\n      add\n      swap1\n      dup2\n      tag_68\n      swap2\n      swap1\n      tag_69\n      jump\t// in\n    tag_68:\n      pop\n      0x20\n      dup3\n      add\n      mload\n      dup2\n      0x01\n      add\n      swap1\n      dup2\n      tag_70\n      swap2\n      swap1\n      tag_69\n      jump\t// in\n    tag_70:\n      pop\n      0x40\n      dup3\n      add\n      mload\n      dup2\n      0x02\n      add\n      sstore\n      0x60\n      dup3\n      add\n      mload\n      dup2\n      0x03\n      add\n      swap1\n      dup2\n      tag_71\n      swap2\n      swap1\n      tag_69\n      jump\t// in\n    tag_71:\n      pop\n      pop\n      pop\n        /* \"contracts/rock_paper_scissors.sol\":965:972  uint id */\n      0x00\n        /* \"contracts/rock_paper_scissors.sol\":990:991  1 */\n      0x01\n        /* \"contracts/rock_paper_scissors.sol\":975:980  games */\n      dup1\n        /* \"contracts/rock_paper_scissors.sol\":975:987  games.length */\n      dup1\n      sload\n      swap1\n      pop\n        /* \"contracts/rock_paper_scissors.sol\":975:991  games.length - 1 */\n      tag_72\n      swap2\n      swap1\n      tag_73\n      jump\t// in\n    tag_72:\n        /* \"contracts/rock_paper_scissors.sol\":965:991  uint id = games.length - 1 */\n      swap1\n      pop\n        /* \"contracts/rock_paper_scissors.sol\":1002:1017  ownerGamesCount */\n      0x03\n        /* \"contracts/rock_paper_scissors.sol\":1002:1029  ownerGamesCount[msg.sender] */\n      0x00\n        /* \"contracts/rock_paper_scissors.sol\":1018:1028  msg.sender */\n      caller\n        /* \"contracts/rock_paper_scissors.sol\":1002:1029  ownerGamesCount[msg.sender] */\n      0xffffffffffffffffffffffffffffffffffffffff\n      and\n      0xffffffffffffffffffffffffffffffffffffffff\n      and\n      dup2\n      mstore\n      0x20\n      add\n      swap1\n      dup2\n      mstore\n      0x20\n      add\n      0x00\n      keccak256\n      0x00\n        /* \"contracts/rock_paper_scissors.sol\":1002:1031  ownerGamesCount[msg.sender]++ */\n      dup2\n      sload\n      dup1\n      swap3\n      swap2\n      swap1\n      tag_74\n      swap1\n      tag_75\n      jump\t// in\n    tag_74:\n      swap2\n      swap1\n      pop\n      sstore\n      pop\n        /* \"contracts/rock_paper_scissors.sol\":1060:1070  msg.sender */\n      caller\n        /* \"contracts/rock_paper_scissors.sol\":1042:1053  gameToOwner */\n      0x02\n        /* \"contracts/rock_paper_scissors.sol\":1042:1057  gameToOwner[id] */\n      0x00\n        /* \"contracts/rock_paper_scissors.sol\":1054:1056  id */\n      dup4\n        /* \"contracts/rock_paper_scissors.sol\":1042:1057  gameToOwner[id] */\n      dup2\n      mstore\n      0x20\n      add\n      swap1\n      dup2\n      mstore\n      0x20\n      add\n      0x00\n      keccak256\n      0x00\n        /* \"contracts/rock_paper_scissors.sol\":1042:1070  gameToOwner[id] = msg.sender */\n      0x0100\n      exp\n      dup2\n      sload\n      dup2\n      0xffffffffffffffffffffffffffffffffffffffff\n      mul\n      not\n      and\n      swap1\n      dup4\n      0xffffffffffffffffffffffffffffffffffffffff\n      and\n      mul\n      or\n      swap1\n      sstore\n      pop\n        /* \"contracts/rock_paper_scissors.sol\":1086:1150  NewGame(playerInput, computerChoice, gameOutcome, outputMessage) */\n      0xe40d376e16bd4fd04229f0f470f60a5b75581253e7d4a1276ea76d0f239393d1\n        /* \"contracts/rock_paper_scissors.sol\":1094:1105  playerInput */\n      dup7\n        /* \"contracts/rock_paper_scissors.sol\":1107:1121  computerChoice */\n      dup6\n        /* \"contracts/rock_paper_scissors.sol\":1123:1134  gameOutcome */\n      dup6\n        /* \"contracts/rock_paper_scissors.sol\":1136:1149  outputMessage */\n      dup6\n        /* \"contracts/rock_paper_scissors.sol\":1086:1150  NewGame(playerInput, computerChoice, gameOutcome, outputMessage) */\n      mload(0x40)\n      tag_76\n      swap5\n      swap4\n      swap3\n      swap2\n      swap1\n      tag_16\n      jump\t// in\n    tag_76:\n      mload(0x40)\n      dup1\n      swap2\n      sub\n      swap1\n      log1\n        /* \"contracts/rock_paper_scissors.sol\":1170:1183  outputMessage */\n      dup2\n        /* \"contracts/rock_paper_scissors.sol\":1163:1183  return outputMessage */\n      swap5\n      pop\n      pop\n      pop\n      pop\n      pop\n        /* \"contracts/rock_paper_scissors.sol\":523:1191  function playRockPaperScissors(string memory playerInput) public returns (string memory) {... */\n      swap2\n      swap1\n      pop\n      jump\t// out\n        /* \"contracts/ownable.sol\":1891:1994  function renounceOwnership() public virtual onlyOwner {... */\n    tag_35:\n        /* \"contracts/ownable.sol\":1129:1142  _checkOwner() */\n      tag_78\n        /* \"contracts/ownable.sol\":1129:1140  _checkOwner */\n      tag_79\n        /* \"contracts/ownable.sol\":1129:1142  _checkOwner() */\n      jump\t// in\n    tag_78:\n        /* \"contracts/ownable.sol\":1956:1986  _transferOwnership(address(0)) */\n      tag_81\n        /* \"contracts/ownable.sol\":1983:1984  0 */\n      0x00\n        /* \"contracts/ownable.sol\":1956:1974  _transferOwnership */\n      tag_82\n        /* \"contracts/ownable.sol\":1956:1986  _transferOwnership(address(0)) */\n      jump\t// in\n    tag_81:\n        /* \"contracts/ownable.sol\":1891:1994  function renounceOwnership() public virtual onlyOwner {... */\n      jump\t// out\n        /* \"contracts/ownable.sol\":1243:1330  function owner() public view virtual returns (address) {... */\n    tag_37:\n        /* \"contracts/ownable.sol\":1289:1296  address */\n      0x00\n        /* \"contracts/ownable.sol\":1316:1322  _owner */\n      dup1\n      0x00\n      swap1\n      sload\n      swap1\n      0x0100\n      exp\n      swap1\n      div\n      0xffffffffffffffffffffffffffffffffffffffff\n      and\n        /* \"contracts/ownable.sol\":1309:1322  return _owner */\n      swap1\n      pop\n        /* \"contracts/ownable.sol\":1243:1330  function owner() public view virtual returns (address) {... */\n      swap1\n      jump\t// out\n        /* \"contracts/ownable.sol\":2149:2350  function transferOwnership(address newOwner) public virtual onlyOwner {... */\n    tag_41:\n        /* \"contracts/ownable.sol\":1129:1142  _checkOwner() */\n      tag_85\n        /* \"contracts/ownable.sol\":1129:1140  _checkOwner */\n      tag_79\n        /* \"contracts/ownable.sol\":1129:1142  _checkOwner() */\n      jump\t// in\n    tag_85:\n        /* \"contracts/ownable.sol\":2258:2259  0 */\n      0x00\n        /* \"contracts/ownable.sol\":2238:2260  newOwner != address(0) */\n      0xffffffffffffffffffffffffffffffffffffffff\n      and\n        /* \"contracts/ownable.sol\":2238:2246  newOwner */\n      dup2\n        /* \"contracts/ownable.sol\":2238:2260  newOwner != address(0) */\n      0xffffffffffffffffffffffffffffffffffffffff\n      and\n      sub\n        /* \"contracts/ownable.sol\":2230:2303  require(newOwner != address(0), \"Ownable: new owner is the zero address\") */\n      tag_87\n      jumpi\n      mload(0x40)\n      0x08c379a000000000000000000000000000000000000000000000000000000000\n      dup2\n      mstore\n      0x04\n      add\n      tag_88\n      swap1\n      tag_89\n      jump\t// in\n    tag_88:\n      mload(0x40)\n      dup1\n      swap2\n      sub\n      swap1\n      revert\n    tag_87:\n        /* \"contracts/ownable.sol\":2314:2342  _transferOwnership(newOwner) */\n      tag_90\n        /* \"contracts/ownable.sol\":2333:2341  newOwner */\n      dup2\n        /* \"contracts/ownable.sol\":2314:2332  _transferOwnership */\n      tag_82\n        /* \"contracts/ownable.sol\":2314:2342  _transferOwnership(newOwner) */\n      jump\t// in\n    tag_90:\n        /* \"contracts/ownable.sol\":2149:2350  function transferOwnership(address newOwner) public virtual onlyOwner {... */\n      pop\n      jump\t// out\n        /* \"contracts/rock_paper_scissors.sol\":1503:2117  function determineComputerChoice() internal view returns (string memory) {... */\n    tag_62:\n        /* \"contracts/rock_paper_scissors.sol\":1561:1574  string memory */\n      0x60\n        /* \"contracts/rock_paper_scissors.sol\":1662:1674  uint border1 */\n      0x00\n        /* \"contracts/rock_paper_scissors.sol\":1677:1679  33 */\n      0x21\n        /* \"contracts/rock_paper_scissors.sol\":1662:1679  uint border1 = 33 */\n      swap1\n      pop\n        /* \"contracts/rock_paper_scissors.sol\":1690:1702  uint border2 */\n      0x00\n        /* \"contracts/rock_paper_scissors.sol\":1705:1707  66 */\n      0x42\n        /* \"contracts/rock_paper_scissors.sol\":1690:1707  uint border2 = 66 */\n      swap1\n      pop\n        /* \"contracts/rock_paper_scissors.sol\":1718:1735  uint randomNumber */\n      0x00\n        /* \"contracts/rock_paper_scissors.sol\":1738:1747  randMod() */\n      tag_92\n        /* \"contracts/rock_paper_scissors.sol\":1738:1745  randMod */\n      tag_93\n        /* \"contracts/rock_paper_scissors.sol\":1738:1747  randMod() */\n      jump\t// in\n    tag_92:\n        /* \"contracts/rock_paper_scissors.sol\":1718:1747  uint randomNumber = randMod() */\n      swap1\n      pop\n        /* \"contracts/rock_paper_scissors.sol\":1758:1786  string memory computerChoice */\n      0x60\n        /* \"contracts/rock_paper_scissors.sol\":1818:1825  border1 */\n      dup4\n        /* \"contracts/rock_paper_scissors.sol\":1803:1815  randomNumber */\n      dup3\n        /* \"contracts/rock_paper_scissors.sol\":1803:1825  randomNumber < border1 */\n      lt\n        /* \"contracts/rock_paper_scissors.sol\":1799:2076  if (randomNumber < border1) {... */\n      iszero\n      tag_94\n      jumpi\n        /* \"contracts/rock_paper_scissors.sol\":1842:1865  computerChoice = \"rock\" */\n      mload(0x40)\n      dup1\n      0x40\n      add\n      0x40\n      mstore\n      dup1\n      0x04\n      dup2\n      mstore\n      0x20\n      add\n      0x726f636b00000000000000000000000000000000000000000000000000000000\n      dup2\n      mstore\n      pop\n      swap1\n      pop\n        /* \"contracts/rock_paper_scissors.sol\":1799:2076  if (randomNumber < border1) {... */\n      jump(tag_95)\n    tag_94:\n        /* \"contracts/rock_paper_scissors.sol\":1902:1909  border1 */\n      dup4\n        /* \"contracts/rock_paper_scissors.sol\":1887:1899  randomNumber */\n      dup3\n        /* \"contracts/rock_paper_scissors.sol\":1887:1909  randomNumber > border1 */\n      gt\n        /* \"contracts/rock_paper_scissors.sol\":1887:1935  randomNumber > border1 && randomNumber < border2 */\n      dup1\n      iszero\n      tag_96\n      jumpi\n      pop\n        /* \"contracts/rock_paper_scissors.sol\":1928:1935  border2 */\n      dup3\n        /* \"contracts/rock_paper_scissors.sol\":1913:1925  randomNumber */\n      dup3\n        /* \"contracts/rock_paper_scissors.sol\":1913:1935  randomNumber < border2 */\n      lt\n        /* \"contracts/rock_paper_scissors.sol\":1887:1935  randomNumber > border1 && randomNumber < border2 */\n    tag_96:\n        /* \"contracts/rock_paper_scissors.sol\":1883:2076  if (randomNumber > border1 && randomNumber < border2) {... */\n      iszero\n      tag_97\n      jumpi\n        /* \"contracts/rock_paper_scissors.sol\":1952:1976  computerChoice = \"paper\" */\n      mload(0x40)\n      dup1\n      0x40\n      add\n      0x40\n      mstore\n      dup1\n      0x05\n      dup2\n      mstore\n      0x20\n      add\n      0x7061706572000000000000000000000000000000000000000000000000000000\n      dup2\n      mstore\n      pop\n      swap1\n      pop\n        /* \"contracts/rock_paper_scissors.sol\":1883:2076  if (randomNumber > border1 && randomNumber < border2) {... */\n      jump(tag_98)\n    tag_97:\n        /* \"contracts/rock_paper_scissors.sol\":2013:2020  border2 */\n      dup3\n        /* \"contracts/rock_paper_scissors.sol\":1998:2010  randomNumber */\n      dup3\n        /* \"contracts/rock_paper_scissors.sol\":1998:2020  randomNumber > border2 */\n      gt\n        /* \"contracts/rock_paper_scissors.sol\":1994:2076  if (randomNumber > border2) {... */\n      iszero\n      tag_99\n      jumpi\n        /* \"contracts/rock_paper_scissors.sol\":2037:2064  computerChoice = \"scissors\" */\n      mload(0x40)\n      dup1\n      0x40\n      add\n      0x40\n      mstore\n      dup1\n      0x08\n      dup2\n      mstore\n      0x20\n      add\n      0x73636973736f7273000000000000000000000000000000000000000000000000\n      dup2\n      mstore\n      pop\n      swap1\n      pop\n        /* \"contracts/rock_paper_scissors.sol\":1994:2076  if (randomNumber > border2) {... */\n    tag_99:\n        /* \"contracts/rock_paper_scissors.sol\":1883:2076  if (randomNumber > border1 && randomNumber < border2) {... */\n    tag_98:\n        /* \"contracts/rock_paper_scissors.sol\":1799:2076  if (randomNumber < border1) {... */\n    tag_95:\n        /* \"contracts/rock_paper_scissors.sol\":2095:2109  computerChoice */\n      dup1\n        /* \"contracts/rock_paper_scissors.sol\":2088:2109  return computerChoice */\n      swap5\n      pop\n      pop\n      pop\n      pop\n      pop\n        /* \"contracts/rock_paper_scissors.sol\":1503:2117  function determineComputerChoice() internal view returns (string memory) {... */\n      swap1\n      jump\t// out\n        /* \"contracts/rock_paper_scissors.sol\":2125:4456  function determineGameOutcome(string memory playerInput, string memory computerChoice) internal pure returns (uint) {... */\n    tag_64:\n        /* \"contracts/rock_paper_scissors.sol\":2235:2239  uint */\n      0x00\n        /* \"contracts/rock_paper_scissors.sol\":2298:2316  string memory rock */\n      dup1\n        /* \"contracts/rock_paper_scissors.sol\":2298:2325  string memory rock = \"rock\" */\n      mload(0x40)\n      dup1\n      0x40\n      add\n      0x40\n      mstore\n      dup1\n      0x04\n      dup2\n      mstore\n      0x20\n      add\n      0x726f636b00000000000000000000000000000000000000000000000000000000\n      dup2\n      mstore\n      pop\n      swap1\n      pop\n        /* \"contracts/rock_paper_scissors.sol\":2336:2355  string memory paper */\n      0x00\n        /* \"contracts/rock_paper_scissors.sol\":2336:2365  string memory paper = \"paper\" */\n      mload(0x40)\n      dup1\n      0x40\n      add\n      0x40\n      mstore\n      dup1\n      0x05\n      dup2\n      mstore\n      0x20\n      add\n      0x7061706572000000000000000000000000000000000000000000000000000000\n      dup2\n      mstore\n      pop\n      swap1\n      pop\n        /* \"contracts/rock_paper_scissors.sol\":2376:2398  string memory scissors */\n      0x00\n        /* \"contracts/rock_paper_scissors.sol\":2376:2411  string memory scissors = \"scissors\" */\n      mload(0x40)\n      dup1\n      0x40\n      add\n      0x40\n      mstore\n      dup1\n      0x08\n      dup2\n      mstore\n      0x20\n      add\n      0x73636973736f7273000000000000000000000000000000000000000000000000\n      dup2\n      mstore\n      pop\n      swap1\n      pop\n        /* \"contracts/rock_paper_scissors.sol\":2422:2438  uint gameOutcome */\n      0x00\n        /* \"contracts/rock_paper_scissors.sol\":2534:2538  rock */\n      dup4\n        /* \"contracts/rock_paper_scissors.sol\":2517:2539  abi.encodePacked(rock) */\n      add(0x20, mload(0x40))\n      tag_101\n      swap2\n      swap1\n      tag_102\n      jump\t// in\n    tag_101:\n      mload(0x40)\n      0x20\n      dup2\n      dup4\n      sub\n      sub\n      dup2\n      mstore\n      swap1\n      0x40\n      mstore\n        /* \"contracts/rock_paper_scissors.sol\":2507:2540  keccak256(abi.encodePacked(rock)) */\n      dup1\n      mload\n      swap1\n      0x20\n      add\n      keccak256\n        /* \"contracts/rock_paper_scissors.sol\":2490:2501  playerInput */\n      dup8\n        /* \"contracts/rock_paper_scissors.sol\":2473:2502  abi.encodePacked(playerInput) */\n      add(0x20, mload(0x40))\n      tag_103\n      swap2\n      swap1\n      tag_102\n      jump\t// in\n    tag_103:\n      mload(0x40)\n      0x20\n      dup2\n      dup4\n      sub\n      sub\n      dup2\n      mstore\n      swap1\n      0x40\n      mstore\n        /* \"contracts/rock_paper_scissors.sol\":2463:2503  keccak256(abi.encodePacked(playerInput)) */\n      dup1\n      mload\n      swap1\n      0x20\n      add\n      keccak256\n        /* \"contracts/rock_paper_scissors.sol\":2463:2540  keccak256(abi.encodePacked(playerInput)) == keccak256(abi.encodePacked(rock)) */\n      eq\n        /* \"contracts/rock_paper_scissors.sol\":2463:2624  keccak256(abi.encodePacked(playerInput)) == keccak256(abi.encodePacked(rock)) && keccak256(abi.encodePacked(computerChoice)) == keccak256(abi.encodePacked(rock)) */\n      dup1\n      iszero\n      tag_104\n      jumpi\n      pop\n        /* \"contracts/rock_paper_scissors.sol\":2618:2622  rock */\n      dup4\n        /* \"contracts/rock_paper_scissors.sol\":2601:2623  abi.encodePacked(rock) */\n      add(0x20, mload(0x40))\n      tag_105\n      swap2\n      swap1\n      tag_102\n      jump\t// in\n    tag_105:\n      mload(0x40)\n      0x20\n      dup2\n      dup4\n      sub\n      sub\n      dup2\n      mstore\n      swap1\n      0x40\n      mstore\n        /* \"contracts/rock_paper_scissors.sol\":2591:2624  keccak256(abi.encodePacked(rock)) */\n      dup1\n      mload\n      swap1\n      0x20\n      add\n      keccak256\n        /* \"contracts/rock_paper_scissors.sol\":2571:2585  computerChoice */\n      dup7\n        /* \"contracts/rock_paper_scissors.sol\":2554:2586  abi.encodePacked(computerChoice) */\n      add(0x20, mload(0x40))\n      tag_106\n      swap2\n      swap1\n      tag_102\n      jump\t// in\n    tag_106:\n      mload(0x40)\n      0x20\n      dup2\n      dup4\n      sub\n      sub\n      dup2\n      mstore\n      swap1\n      0x40\n      mstore\n        /* \"contracts/rock_paper_scissors.sol\":2544:2587  keccak256(abi.encodePacked(computerChoice)) */\n      dup1\n      mload\n      swap1\n      0x20\n      add\n      keccak256\n        /* \"contracts/rock_paper_scissors.sol\":2544:2624  keccak256(abi.encodePacked(computerChoice)) == keccak256(abi.encodePacked(rock)) */\n      eq\n        /* \"contracts/rock_paper_scissors.sol\":2463:2624  keccak256(abi.encodePacked(playerInput)) == keccak256(abi.encodePacked(rock)) && keccak256(abi.encodePacked(computerChoice)) == keccak256(abi.encodePacked(rock)) */\n    tag_104:\n        /* \"contracts/rock_paper_scissors.sol\":2459:4418  if (keccak256(abi.encodePacked(playerInput)) == keccak256(abi.encodePacked(rock)) && keccak256(abi.encodePacked(computerChoice)) == keccak256(abi.encodePacked(rock))) {... */\n      iszero\n      tag_107\n      jumpi\n        /* \"contracts/rock_paper_scissors.sol\":2655:2656  0 */\n      0x00\n        /* \"contracts/rock_paper_scissors.sol\":2641:2656  gameOutcome = 0 */\n      swap1\n      pop\n        /* \"contracts/rock_paper_scissors.sol\":2459:4418  if (keccak256(abi.encodePacked(playerInput)) == keccak256(abi.encodePacked(rock)) && keccak256(abi.encodePacked(computerChoice)) == keccak256(abi.encodePacked(rock))) {... */\n      jump(tag_108)\n    tag_107:\n        /* \"contracts/rock_paper_scissors.sol\":2749:2753  rock */\n      dup4\n        /* \"contracts/rock_paper_scissors.sol\":2732:2754  abi.encodePacked(rock) */\n      add(0x20, mload(0x40))\n      tag_109\n      swap2\n      swap1\n      tag_102\n      jump\t// in\n    tag_109:\n      mload(0x40)\n      0x20\n      dup2\n      dup4\n      sub\n      sub\n      dup2\n      mstore\n      swap1\n      0x40\n      mstore\n        /* \"contracts/rock_paper_scissors.sol\":2722:2755  keccak256(abi.encodePacked(rock)) */\n      dup1\n      mload\n      swap1\n      0x20\n      add\n      keccak256\n        /* \"contracts/rock_paper_scissors.sol\":2705:2716  playerInput */\n      dup8\n        /* \"contracts/rock_paper_scissors.sol\":2688:2717  abi.encodePacked(playerInput) */\n      add(0x20, mload(0x40))\n      tag_110\n      swap2\n      swap1\n      tag_102\n      jump\t// in\n    tag_110:\n      mload(0x40)\n      0x20\n      dup2\n      dup4\n      sub\n      sub\n      dup2\n      mstore\n      swap1\n      0x40\n      mstore\n        /* \"contracts/rock_paper_scissors.sol\":2678:2718  keccak256(abi.encodePacked(playerInput)) */\n      dup1\n      mload\n      swap1\n      0x20\n      add\n      keccak256\n        /* \"contracts/rock_paper_scissors.sol\":2678:2755  keccak256(abi.encodePacked(playerInput)) == keccak256(abi.encodePacked(rock)) */\n      eq\n        /* \"contracts/rock_paper_scissors.sol\":2678:2840  keccak256(abi.encodePacked(playerInput)) == keccak256(abi.encodePacked(rock)) && keccak256(abi.encodePacked(computerChoice)) == keccak256(abi.encodePacked(paper)) */\n      dup1\n      iszero\n      tag_111\n      jumpi\n      pop\n        /* \"contracts/rock_paper_scissors.sol\":2833:2838  paper */\n      dup3\n        /* \"contracts/rock_paper_scissors.sol\":2816:2839  abi.encodePacked(paper) */\n      add(0x20, mload(0x40))\n      tag_112\n      swap2\n      swap1\n      tag_102\n      jump\t// in\n    tag_112:\n      mload(0x40)\n      0x20\n      dup2\n      dup4\n      sub\n      sub\n      dup2\n      mstore\n      swap1\n      0x40\n      mstore\n        /* \"contracts/rock_paper_scissors.sol\":2806:2840  keccak256(abi.encodePacked(paper)) */\n      dup1\n      mload\n      swap1\n      0x20\n      add\n      keccak256\n        /* \"contracts/rock_paper_scissors.sol\":2786:2800  computerChoice */\n      dup7\n        /* \"contracts/rock_paper_scissors.sol\":2769:2801  abi.encodePacked(computerChoice) */\n      add(0x20, mload(0x40))\n      tag_113\n      swap2\n      swap1\n      tag_102\n      jump\t// in\n    tag_113:\n      mload(0x40)\n      0x20\n      dup2\n      dup4\n      sub\n      sub\n      dup2\n      mstore\n      swap1\n      0x40\n      mstore\n        /* \"contracts/rock_paper_scissors.sol\":2759:2802  keccak256(abi.encodePacked(computerChoice)) */\n      dup1\n      mload\n      swap1\n      0x20\n      add\n      keccak256\n        /* \"contracts/rock_paper_scissors.sol\":2759:2840  keccak256(abi.encodePacked(computerChoice)) == keccak256(abi.encodePacked(paper)) */\n      eq\n        /* \"contracts/rock_paper_scissors.sol\":2678:2840  keccak256(abi.encodePacked(playerInput)) == keccak256(abi.encodePacked(rock)) && keccak256(abi.encodePacked(computerChoice)) == keccak256(abi.encodePacked(paper)) */\n    tag_111:\n        /* \"contracts/rock_paper_scissors.sol\":2674:4418  if (keccak256(abi.encodePacked(playerInput)) == keccak256(abi.encodePacked(rock)) && keccak256(abi.encodePacked(computerChoice)) == keccak256(abi.encodePacked(paper))) {... */\n      iszero\n      tag_114\n      jumpi\n        /* \"contracts/rock_paper_scissors.sol\":2871:2872  2 */\n      0x02\n        /* \"contracts/rock_paper_scissors.sol\":2857:2872  gameOutcome = 2 */\n      swap1\n      pop\n        /* \"contracts/rock_paper_scissors.sol\":2674:4418  if (keccak256(abi.encodePacked(playerInput)) == keccak256(abi.encodePacked(rock)) && keccak256(abi.encodePacked(computerChoice)) == keccak256(abi.encodePacked(paper))) {... */\n      jump(tag_115)\n    tag_114:\n        /* \"contracts/rock_paper_scissors.sol\":2965:2969  rock */\n      dup4\n        /* \"contracts/rock_paper_scissors.sol\":2948:2970  abi.encodePacked(rock) */\n      add(0x20, mload(0x40))\n      tag_116\n      swap2\n      swap1\n      tag_102\n      jump\t// in\n    tag_116:\n      mload(0x40)\n      0x20\n      dup2\n      dup4\n      sub\n      sub\n      dup2\n      mstore\n      swap1\n      0x40\n      mstore\n        /* \"contracts/rock_paper_scissors.sol\":2938:2971  keccak256(abi.encodePacked(rock)) */\n      dup1\n      mload\n      swap1\n      0x20\n      add\n      keccak256\n        /* \"contracts/rock_paper_scissors.sol\":2921:2932  playerInput */\n      dup8\n        /* \"contracts/rock_paper_scissors.sol\":2904:2933  abi.encodePacked(playerInput) */\n      add(0x20, mload(0x40))\n      tag_117\n      swap2\n      swap1\n      tag_102\n      jump\t// in\n    tag_117:\n      mload(0x40)\n      0x20\n      dup2\n      dup4\n      sub\n      sub\n      dup2\n      mstore\n      swap1\n      0x40\n      mstore\n        /* \"contracts/rock_paper_scissors.sol\":2894:2934  keccak256(abi.encodePacked(playerInput)) */\n      dup1\n      mload\n      swap1\n      0x20\n      add\n      keccak256\n        /* \"contracts/rock_paper_scissors.sol\":2894:2971  keccak256(abi.encodePacked(playerInput)) == keccak256(abi.encodePacked(rock)) */\n      eq\n        /* \"contracts/rock_paper_scissors.sol\":2894:3059  keccak256(abi.encodePacked(playerInput)) == keccak256(abi.encodePacked(rock)) && keccak256(abi.encodePacked(computerChoice)) == keccak256(abi.encodePacked(scissors)) */\n      dup1\n      iszero\n      tag_118\n      jumpi\n      pop\n        /* \"contracts/rock_paper_scissors.sol\":3049:3057  scissors */\n      dup2\n        /* \"contracts/rock_paper_scissors.sol\":3032:3058  abi.encodePacked(scissors) */\n      add(0x20, mload(0x40))\n      tag_119\n      swap2\n      swap1\n      tag_102\n      jump\t// in\n    tag_119:\n      mload(0x40)\n      0x20\n      dup2\n      dup4\n      sub\n      sub\n      dup2\n      mstore\n      swap1\n      0x40\n      mstore\n        /* \"contracts/rock_paper_scissors.sol\":3022:3059  keccak256(abi.encodePacked(scissors)) */\n      dup1\n      mload\n      swap1\n      0x20\n      add\n      keccak256\n        /* \"contracts/rock_paper_scissors.sol\":3002:3016  computerChoice */\n      dup7\n        /* \"contracts/rock_paper_scissors.sol\":2985:3017  abi.encodePacked(computerChoice) */\n      add(0x20, mload(0x40))\n      tag_120\n      swap2\n      swap1\n      tag_102\n      jump\t// in\n    tag_120:\n      mload(0x40)\n      0x20\n      dup2\n      dup4\n      sub\n      sub\n      dup2\n      mstore\n      swap1\n      0x40\n      mstore\n        /* \"contracts/rock_paper_scissors.sol\":2975:3018  keccak256(abi.encodePacked(computerChoice)) */\n      dup1\n      mload\n      swap1\n      0x20\n      add\n      keccak256\n        /* \"contracts/rock_paper_scissors.sol\":2975:3059  keccak256(abi.encodePacked(computerChoice)) == keccak256(abi.encodePacked(scissors)) */\n      eq\n        /* \"contracts/rock_paper_scissors.sol\":2894:3059  keccak256(abi.encodePacked(playerInput)) == keccak256(abi.encodePacked(rock)) && keccak256(abi.encodePacked(computerChoice)) == keccak256(abi.encodePacked(scissors)) */\n    tag_118:\n        /* \"contracts/rock_paper_scissors.sol\":2890:4418  if (keccak256(abi.encodePacked(playerInput)) == keccak256(abi.encodePacked(rock)) && keccak256(abi.encodePacked(computerChoice)) == keccak256(abi.encodePacked(scissors))) {... */\n      iszero\n      tag_121\n      jumpi\n        /* \"contracts/rock_paper_scissors.sol\":3090:3091  1 */\n      0x01\n        /* \"contracts/rock_paper_scissors.sol\":3076:3091  gameOutcome = 1 */\n      swap1\n      pop\n        /* \"contracts/rock_paper_scissors.sol\":2890:4418  if (keccak256(abi.encodePacked(playerInput)) == keccak256(abi.encodePacked(rock)) && keccak256(abi.encodePacked(computerChoice)) == keccak256(abi.encodePacked(scissors))) {... */\n      jump(tag_122)\n    tag_121:\n        /* \"contracts/rock_paper_scissors.sol\":3184:3189  paper */\n      dup3\n        /* \"contracts/rock_paper_scissors.sol\":3167:3190  abi.encodePacked(paper) */\n      add(0x20, mload(0x40))\n      tag_123\n      swap2\n      swap1\n      tag_102\n      jump\t// in\n    tag_123:\n      mload(0x40)\n      0x20\n      dup2\n      dup4\n      sub\n      sub\n      dup2\n      mstore\n      swap1\n      0x40\n      mstore\n        /* \"contracts/rock_paper_scissors.sol\":3157:3191  keccak256(abi.encodePacked(paper)) */\n      dup1\n      mload\n      swap1\n      0x20\n      add\n      keccak256\n        /* \"contracts/rock_paper_scissors.sol\":3140:3151  playerInput */\n      dup8\n        /* \"contracts/rock_paper_scissors.sol\":3123:3152  abi.encodePacked(playerInput) */\n      add(0x20, mload(0x40))\n      tag_124\n      swap2\n      swap1\n      tag_102\n      jump\t// in\n    tag_124:\n      mload(0x40)\n      0x20\n      dup2\n      dup4\n      sub\n      sub\n      dup2\n      mstore\n      swap1\n      0x40\n      mstore\n        /* \"contracts/rock_paper_scissors.sol\":3113:3153  keccak256(abi.encodePacked(playerInput)) */\n      dup1\n      mload\n      swap1\n      0x20\n      add\n      keccak256\n        /* \"contracts/rock_paper_scissors.sol\":3113:3191  keccak256(abi.encodePacked(playerInput)) == keccak256(abi.encodePacked(paper)) */\n      eq\n        /* \"contracts/rock_paper_scissors.sol\":3113:3275  keccak256(abi.encodePacked(playerInput)) == keccak256(abi.encodePacked(paper)) && keccak256(abi.encodePacked(computerChoice)) == keccak256(abi.encodePacked(rock)) */\n      dup1\n      iszero\n      tag_125\n      jumpi\n      pop\n        /* \"contracts/rock_paper_scissors.sol\":3269:3273  rock */\n      dup4\n        /* \"contracts/rock_paper_scissors.sol\":3252:3274  abi.encodePacked(rock) */\n      add(0x20, mload(0x40))\n      tag_126\n      swap2\n      swap1\n      tag_102\n      jump\t// in\n    tag_126:\n      mload(0x40)\n      0x20\n      dup2\n      dup4\n      sub\n      sub\n      dup2\n      mstore\n      swap1\n      0x40\n      mstore\n        /* \"contracts/rock_paper_scissors.sol\":3242:3275  keccak256(abi.encodePacked(rock)) */\n      dup1\n      mload\n      swap1\n      0x20\n      add\n      keccak256\n        /* \"contracts/rock_paper_scissors.sol\":3222:3236  computerChoice */\n      dup7\n        /* \"contracts/rock_paper_scissors.sol\":3205:3237  abi.encodePacked(computerChoice) */\n      add(0x20, mload(0x40))\n      tag_127\n      swap2\n      swap1\n      tag_102\n      jump\t// in\n    tag_127:\n      mload(0x40)\n      0x20\n      dup2\n      dup4\n      sub\n      sub\n      dup2\n      mstore\n      swap1\n      0x40\n      mstore\n        /* \"contracts/rock_paper_scissors.sol\":3195:3238  keccak256(abi.encodePacked(computerChoice)) */\n      dup1\n      mload\n      swap1\n      0x20\n      add\n      keccak256\n        /* \"contracts/rock_paper_scissors.sol\":3195:3275  keccak256(abi.encodePacked(computerChoice)) == keccak256(abi.encodePacked(rock)) */\n      eq\n        /* \"contracts/rock_paper_scissors.sol\":3113:3275  keccak256(abi.encodePacked(playerInput)) == keccak256(abi.encodePacked(paper)) && keccak256(abi.encodePacked(computerChoice)) == keccak256(abi.encodePacked(rock)) */\n    tag_125:\n        /* \"contracts/rock_paper_scissors.sol\":3109:4418  if (keccak256(abi.encodePacked(playerInput)) == keccak256(abi.encodePacked(paper)) && keccak256(abi.encodePacked(computerChoice)) == keccak256(abi.encodePacked(rock))) {... */\n      iszero\n      tag_128\n      jumpi\n        /* \"contracts/rock_paper_scissors.sol\":3306:3307  2 */\n      0x02\n        /* \"contracts/rock_paper_scissors.sol\":3292:3307  gameOutcome = 2 */\n      swap1\n      pop\n        /* \"contracts/rock_paper_scissors.sol\":3109:4418  if (keccak256(abi.encodePacked(playerInput)) == keccak256(abi.encodePacked(paper)) && keccak256(abi.encodePacked(computerChoice)) == keccak256(abi.encodePacked(rock))) {... */\n      jump(tag_129)\n    tag_128:\n        /* \"contracts/rock_paper_scissors.sol\":3400:3405  paper */\n      dup3\n        /* \"contracts/rock_paper_scissors.sol\":3383:3406  abi.encodePacked(paper) */\n      add(0x20, mload(0x40))\n      tag_130\n      swap2\n      swap1\n      tag_102\n      jump\t// in\n    tag_130:\n      mload(0x40)\n      0x20\n      dup2\n      dup4\n      sub\n      sub\n      dup2\n      mstore\n      swap1\n      0x40\n      mstore\n        /* \"contracts/rock_paper_scissors.sol\":3373:3407  keccak256(abi.encodePacked(paper)) */\n      dup1\n      mload\n      swap1\n      0x20\n      add\n      keccak256\n        /* \"contracts/rock_paper_scissors.sol\":3356:3367  playerInput */\n      dup8\n        /* \"contracts/rock_paper_scissors.sol\":3339:3368  abi.encodePacked(playerInput) */\n      add(0x20, mload(0x40))\n      tag_131\n      swap2\n      swap1\n      tag_102\n      jump\t// in\n    tag_131:\n      mload(0x40)\n      0x20\n      dup2\n      dup4\n      sub\n      sub\n      dup2\n      mstore\n      swap1\n      0x40\n      mstore\n        /* \"contracts/rock_paper_scissors.sol\":3329:3369  keccak256(abi.encodePacked(playerInput)) */\n      dup1\n      mload\n      swap1\n      0x20\n      add\n      keccak256\n        /* \"contracts/rock_paper_scissors.sol\":3329:3407  keccak256(abi.encodePacked(playerInput)) == keccak256(abi.encodePacked(paper)) */\n      eq\n        /* \"contracts/rock_paper_scissors.sol\":3329:3492  keccak256(abi.encodePacked(playerInput)) == keccak256(abi.encodePacked(paper)) && keccak256(abi.encodePacked(computerChoice)) == keccak256(abi.encodePacked(paper)) */\n      dup1\n      iszero\n      tag_132\n      jumpi\n      pop\n        /* \"contracts/rock_paper_scissors.sol\":3485:3490  paper */\n      dup3\n        /* \"contracts/rock_paper_scissors.sol\":3468:3491  abi.encodePacked(paper) */\n      add(0x20, mload(0x40))\n      tag_133\n      swap2\n      swap1\n      tag_102\n      jump\t// in\n    tag_133:\n      mload(0x40)\n      0x20\n      dup2\n      dup4\n      sub\n      sub\n      dup2\n      mstore\n      swap1\n      0x40\n      mstore\n        /* \"contracts/rock_paper_scissors.sol\":3458:3492  keccak256(abi.encodePacked(paper)) */\n      dup1\n      mload\n      swap1\n      0x20\n      add\n      keccak256\n        /* \"contracts/rock_paper_scissors.sol\":3438:3452  computerChoice */\n      dup7\n        /* \"contracts/rock_paper_scissors.sol\":3421:3453  abi.encodePacked(computerChoice) */\n      add(0x20, mload(0x40))\n      tag_134\n      swap2\n      swap1\n      tag_102\n      jump\t// in\n    tag_134:\n      mload(0x40)\n      0x20\n      dup2\n      dup4\n      sub\n      sub\n      dup2\n      mstore\n      swap1\n      0x40\n      mstore\n        /* \"contracts/rock_paper_scissors.sol\":3411:3454  keccak256(abi.encodePacked(computerChoice)) */\n      dup1\n      mload\n      swap1\n      0x20\n      add\n      keccak256\n        /* \"contracts/rock_paper_scissors.sol\":3411:3492  keccak256(abi.encodePacked(computerChoice)) == keccak256(abi.encodePacked(paper)) */\n      eq\n        /* \"contracts/rock_paper_scissors.sol\":3329:3492  keccak256(abi.encodePacked(playerInput)) == keccak256(abi.encodePacked(paper)) && keccak256(abi.encodePacked(computerChoice)) == keccak256(abi.encodePacked(paper)) */\n    tag_132:\n        /* \"contracts/rock_paper_scissors.sol\":3325:4418  if (keccak256(abi.encodePacked(playerInput)) == keccak256(abi.encodePacked(paper)) && keccak256(abi.encodePacked(computerChoice)) == keccak256(abi.encodePacked(paper))) {... */\n      iszero\n      tag_135\n      jumpi\n        /* \"contracts/rock_paper_scissors.sol\":3523:3524  0 */\n      0x00\n        /* \"contracts/rock_paper_scissors.sol\":3509:3524  gameOutcome = 0 */\n      swap1\n      pop\n        /* \"contracts/rock_paper_scissors.sol\":3325:4418  if (keccak256(abi.encodePacked(playerInput)) == keccak256(abi.encodePacked(paper)) && keccak256(abi.encodePacked(computerChoice)) == keccak256(abi.encodePacked(paper))) {... */\n      jump(tag_136)\n    tag_135:\n        /* \"contracts/rock_paper_scissors.sol\":3617:3622  paper */\n      dup3\n        /* \"contracts/rock_paper_scissors.sol\":3600:3623  abi.encodePacked(paper) */\n      add(0x20, mload(0x40))\n      tag_137\n      swap2\n      swap1\n      tag_102\n      jump\t// in\n    tag_137:\n      mload(0x40)\n      0x20\n      dup2\n      dup4\n      sub\n      sub\n      dup2\n      mstore\n      swap1\n      0x40\n      mstore\n        /* \"contracts/rock_paper_scissors.sol\":3590:3624  keccak256(abi.encodePacked(paper)) */\n      dup1\n      mload\n      swap1\n      0x20\n      add\n      keccak256\n        /* \"contracts/rock_paper_scissors.sol\":3573:3584  playerInput */\n      dup8\n        /* \"contracts/rock_paper_scissors.sol\":3556:3585  abi.encodePacked(playerInput) */\n      add(0x20, mload(0x40))\n      tag_138\n      swap2\n      swap1\n      tag_102\n      jump\t// in\n    tag_138:\n      mload(0x40)\n      0x20\n      dup2\n      dup4\n      sub\n      sub\n      dup2\n      mstore\n      swap1\n      0x40\n      mstore\n        /* \"contracts/rock_paper_scissors.sol\":3546:3586  keccak256(abi.encodePacked(playerInput)) */\n      dup1\n      mload\n      swap1\n      0x20\n      add\n      keccak256\n        /* \"contracts/rock_paper_scissors.sol\":3546:3624  keccak256(abi.encodePacked(playerInput)) == keccak256(abi.encodePacked(paper)) */\n      eq\n        /* \"contracts/rock_paper_scissors.sol\":3546:3712  keccak256(abi.encodePacked(playerInput)) == keccak256(abi.encodePacked(paper)) && keccak256(abi.encodePacked(computerChoice)) == keccak256(abi.encodePacked(scissors)) */\n      dup1\n      iszero\n      tag_139\n      jumpi\n      pop\n        /* \"contracts/rock_paper_scissors.sol\":3702:3710  scissors */\n      dup2\n        /* \"contracts/rock_paper_scissors.sol\":3685:3711  abi.encodePacked(scissors) */\n      add(0x20, mload(0x40))\n      tag_140\n      swap2\n      swap1\n      tag_102\n      jump\t// in\n    tag_140:\n      mload(0x40)\n      0x20\n      dup2\n      dup4\n      sub\n      sub\n      dup2\n      mstore\n      swap1\n      0x40\n      mstore\n        /* \"contracts/rock_paper_scissors.sol\":3675:3712  keccak256(abi.encodePacked(scissors)) */\n      dup1\n      mload\n      swap1\n      0x20\n      add\n      keccak256\n        /* \"contracts/rock_paper_scissors.sol\":3655:3669  computerChoice */\n      dup7\n        /* \"contracts/rock_paper_scissors.sol\":3638:3670  abi.encodePacked(computerChoice) */\n      add(0x20, mload(0x40))\n      tag_141\n      swap2\n      swap1\n      tag_102\n      jump\t// in\n    tag_141:\n      mload(0x40)\n      0x20\n      dup2\n      dup4\n      sub\n      sub\n      dup2\n      mstore\n      swap1\n      0x40\n      mstore\n        /* \"contracts/rock_paper_scissors.sol\":3628:3671  keccak256(abi.encodePacked(computerChoice)) */\n      dup1\n      mload\n      swap1\n      0x20\n      add\n      keccak256\n        /* \"contracts/rock_paper_scissors.sol\":3628:3712  keccak256(abi.encodePacked(computerChoice)) == keccak256(abi.encodePacked(scissors)) */\n      eq\n        /* \"contracts/rock_paper_scissors.sol\":3546:3712  keccak256(abi.encodePacked(playerInput)) == keccak256(abi.encodePacked(paper)) && keccak256(abi.encodePacked(computerChoice)) == keccak256(abi.encodePacked(scissors)) */\n    tag_139:\n        /* \"contracts/rock_paper_scissors.sol\":3542:4418  if (keccak256(abi.encodePacked(playerInput)) == keccak256(abi.encodePacked(paper)) && keccak256(abi.encodePacked(computerChoice)) == keccak256(abi.encodePacked(scissors))) {... */\n      iszero\n      tag_142\n      jumpi\n        /* \"contracts/rock_paper_scissors.sol\":3743:3744  2 */\n      0x02\n        /* \"contracts/rock_paper_scissors.sol\":3729:3744  gameOutcome = 2 */\n      swap1\n      pop\n        /* \"contracts/rock_paper_scissors.sol\":3542:4418  if (keccak256(abi.encodePacked(playerInput)) == keccak256(abi.encodePacked(paper)) && keccak256(abi.encodePacked(computerChoice)) == keccak256(abi.encodePacked(scissors))) {... */\n      jump(tag_143)\n    tag_142:\n        /* \"contracts/rock_paper_scissors.sol\":3837:3845  scissors */\n      dup2\n        /* \"contracts/rock_paper_scissors.sol\":3820:3846  abi.encodePacked(scissors) */\n      add(0x20, mload(0x40))\n      tag_144\n      swap2\n      swap1\n      tag_102\n      jump\t// in\n    tag_144:\n      mload(0x40)\n      0x20\n      dup2\n      dup4\n      sub\n      sub\n      dup2\n      mstore\n      swap1\n      0x40\n      mstore\n        /* \"contracts/rock_paper_scissors.sol\":3810:3847  keccak256(abi.encodePacked(scissors)) */\n      dup1\n      mload\n      swap1\n      0x20\n      add\n      keccak256\n        /* \"contracts/rock_paper_scissors.sol\":3793:3804  playerInput */\n      dup8\n        /* \"contracts/rock_paper_scissors.sol\":3776:3805  abi.encodePacked(playerInput) */\n      add(0x20, mload(0x40))\n      tag_145\n      swap2\n      swap1\n      tag_102\n      jump\t// in\n    tag_145:\n      mload(0x40)\n      0x20\n      dup2\n      dup4\n      sub\n      sub\n      dup2\n      mstore\n      swap1\n      0x40\n      mstore\n        /* \"contracts/rock_paper_scissors.sol\":3766:3806  keccak256(abi.encodePacked(playerInput)) */\n      dup1\n      mload\n      swap1\n      0x20\n      add\n      keccak256\n        /* \"contracts/rock_paper_scissors.sol\":3766:3847  keccak256(abi.encodePacked(playerInput)) == keccak256(abi.encodePacked(scissors)) */\n      eq\n        /* \"contracts/rock_paper_scissors.sol\":3766:3931  keccak256(abi.encodePacked(playerInput)) == keccak256(abi.encodePacked(scissors)) && keccak256(abi.encodePacked(computerChoice)) == keccak256(abi.encodePacked(rock)) */\n      dup1\n      iszero\n      tag_146\n      jumpi\n      pop\n        /* \"contracts/rock_paper_scissors.sol\":3925:3929  rock */\n      dup4\n        /* \"contracts/rock_paper_scissors.sol\":3908:3930  abi.encodePacked(rock) */\n      add(0x20, mload(0x40))\n      tag_147\n      swap2\n      swap1\n      tag_102\n      jump\t// in\n    tag_147:\n      mload(0x40)\n      0x20\n      dup2\n      dup4\n      sub\n      sub\n      dup2\n      mstore\n      swap1\n      0x40\n      mstore\n        /* \"contracts/rock_paper_scissors.sol\":3898:3931  keccak256(abi.encodePacked(rock)) */\n      dup1\n      mload\n      swap1\n      0x20\n      add\n      keccak256\n        /* \"contracts/rock_paper_scissors.sol\":3878:3892  computerChoice */\n      dup7\n        /* \"contracts/rock_paper_scissors.sol\":3861:3893  abi.encodePacked(computerChoice) */\n      add(0x20, mload(0x40))\n      tag_148\n      swap2\n      swap1\n      tag_102\n      jump\t// in\n    tag_148:\n      mload(0x40)\n      0x20\n      dup2\n      dup4\n      sub\n      sub\n      dup2\n      mstore\n      swap1\n      0x40\n      mstore\n        /* \"contracts/rock_paper_scissors.sol\":3851:3894  keccak256(abi.encodePacked(computerChoice)) */\n      dup1\n      mload\n      swap1\n      0x20\n      add\n      keccak256\n        /* \"contracts/rock_paper_scissors.sol\":3851:3931  keccak256(abi.encodePacked(computerChoice)) == keccak256(abi.encodePacked(rock)) */\n      eq\n        /* \"contracts/rock_paper_scissors.sol\":3766:3931  keccak256(abi.encodePacked(playerInput)) == keccak256(abi.encodePacked(scissors)) && keccak256(abi.encodePacked(computerChoice)) == keccak256(abi.encodePacked(rock)) */\n    tag_146:\n        /* \"contracts/rock_paper_scissors.sol\":3762:4418  if (keccak256(abi.encodePacked(playerInput)) == keccak256(abi.encodePacked(scissors)) && keccak256(abi.encodePacked(computerChoice)) == keccak256(abi.encodePacked(rock))) {... */\n      iszero\n      tag_149\n      jumpi\n        /* \"contracts/rock_paper_scissors.sol\":3962:3963  2 */\n      0x02\n        /* \"contracts/rock_paper_scissors.sol\":3948:3963  gameOutcome = 2 */\n      swap1\n      pop\n        /* \"contracts/rock_paper_scissors.sol\":3762:4418  if (keccak256(abi.encodePacked(playerInput)) == keccak256(abi.encodePacked(scissors)) && keccak256(abi.encodePacked(computerChoice)) == keccak256(abi.encodePacked(rock))) {... */\n      jump(tag_150)\n    tag_149:\n        /* \"contracts/rock_paper_scissors.sol\":4056:4064  scissors */\n      dup2\n        /* \"contracts/rock_paper_scissors.sol\":4039:4065  abi.encodePacked(scissors) */\n      add(0x20, mload(0x40))\n      tag_151\n      swap2\n      swap1\n      tag_102\n      jump\t// in\n    tag_151:\n      mload(0x40)\n      0x20\n      dup2\n      dup4\n      sub\n      sub\n      dup2\n      mstore\n      swap1\n      0x40\n      mstore\n        /* \"contracts/rock_paper_scissors.sol\":4029:4066  keccak256(abi.encodePacked(scissors)) */\n      dup1\n      mload\n      swap1\n      0x20\n      add\n      keccak256\n        /* \"contracts/rock_paper_scissors.sol\":4012:4023  playerInput */\n      dup8\n        /* \"contracts/rock_paper_scissors.sol\":3995:4024  abi.encodePacked(playerInput) */\n      add(0x20, mload(0x40))\n      tag_152\n      swap2\n      swap1\n      tag_102\n      jump\t// in\n    tag_152:\n      mload(0x40)\n      0x20\n      dup2\n      dup4\n      sub\n      sub\n      dup2\n      mstore\n      swap1\n      0x40\n      mstore\n        /* \"contracts/rock_paper_scissors.sol\":3985:4025  keccak256(abi.encodePacked(playerInput)) */\n      dup1\n      mload\n      swap1\n      0x20\n      add\n      keccak256\n        /* \"contracts/rock_paper_scissors.sol\":3985:4066  keccak256(abi.encodePacked(playerInput)) == keccak256(abi.encodePacked(scissors)) */\n      eq\n        /* \"contracts/rock_paper_scissors.sol\":3985:4151  keccak256(abi.encodePacked(playerInput)) == keccak256(abi.encodePacked(scissors)) && keccak256(abi.encodePacked(computerChoice)) == keccak256(abi.encodePacked(paper)) */\n      dup1\n      iszero\n      tag_153\n      jumpi\n      pop\n        /* \"contracts/rock_paper_scissors.sol\":4144:4149  paper */\n      dup3\n        /* \"contracts/rock_paper_scissors.sol\":4127:4150  abi.encodePacked(paper) */\n      add(0x20, mload(0x40))\n      tag_154\n      swap2\n      swap1\n      tag_102\n      jump\t// in\n    tag_154:\n      mload(0x40)\n      0x20\n      dup2\n      dup4\n      sub\n      sub\n      dup2\n      mstore\n      swap1\n      0x40\n      mstore\n        /* \"contracts/rock_paper_scissors.sol\":4117:4151  keccak256(abi.encodePacked(paper)) */\n      dup1\n      mload\n      swap1\n      0x20\n      add\n      keccak256\n        /* \"contracts/rock_paper_scissors.sol\":4097:4111  computerChoice */\n      dup7\n        /* \"contracts/rock_paper_scissors.sol\":4080:4112  abi.encodePacked(computerChoice) */\n      add(0x20, mload(0x40))\n      tag_155\n      swap2\n      swap1\n      tag_102\n      jump\t// in\n    tag_155:\n      mload(0x40)\n      0x20\n      dup2\n      dup4\n      sub\n      sub\n      dup2\n      mstore\n      swap1\n      0x40\n      mstore\n        /* \"contracts/rock_paper_scissors.sol\":4070:4113  keccak256(abi.encodePacked(computerChoice)) */\n      dup1\n      mload\n      swap1\n      0x20\n      add\n      keccak256\n        /* \"contracts/rock_paper_scissors.sol\":4070:4151  keccak256(abi.encodePacked(computerChoice)) == keccak256(abi.encodePacked(paper)) */\n      eq\n        /* \"contracts/rock_paper_scissors.sol\":3985:4151  keccak256(abi.encodePacked(playerInput)) == keccak256(abi.encodePacked(scissors)) && keccak256(abi.encodePacked(computerChoice)) == keccak256(abi.encodePacked(paper)) */\n    tag_153:\n        /* \"contracts/rock_paper_scissors.sol\":3981:4418  if (keccak256(abi.encodePacked(playerInput)) == keccak256(abi.encodePacked(scissors)) && keccak256(abi.encodePacked(computerChoice)) == keccak256(abi.encodePacked(paper))) {... */\n      iszero\n      tag_156\n      jumpi\n        /* \"contracts/rock_paper_scissors.sol\":4182:4183  1 */\n      0x01\n        /* \"contracts/rock_paper_scissors.sol\":4168:4183  gameOutcome = 1 */\n      swap1\n      pop\n        /* \"contracts/rock_paper_scissors.sol\":3981:4418  if (keccak256(abi.encodePacked(playerInput)) == keccak256(abi.encodePacked(scissors)) && keccak256(abi.encodePacked(computerChoice)) == keccak256(abi.encodePacked(paper))) {... */\n      jump(tag_157)\n    tag_156:\n        /* \"contracts/rock_paper_scissors.sol\":4276:4284  scissors */\n      dup2\n        /* \"contracts/rock_paper_scissors.sol\":4259:4285  abi.encodePacked(scissors) */\n      add(0x20, mload(0x40))\n      tag_158\n      swap2\n      swap1\n      tag_102\n      jump\t// in\n    tag_158:\n      mload(0x40)\n      0x20\n      dup2\n      dup4\n      sub\n      sub\n      dup2\n      mstore\n      swap1\n      0x40\n      mstore\n        /* \"contracts/rock_paper_scissors.sol\":4249:4286  keccak256(abi.encodePacked(scissors)) */\n      dup1\n      mload\n      swap1\n      0x20\n      add\n      keccak256\n        /* \"contracts/rock_paper_scissors.sol\":4232:4243  playerInput */\n      dup8\n        /* \"contracts/rock_paper_scissors.sol\":4215:4244  abi.encodePacked(playerInput) */\n      add(0x20, mload(0x40))\n      tag_159\n      swap2\n      swap1\n      tag_102\n      jump\t// in\n    tag_159:\n      mload(0x40)\n      0x20\n      dup2\n      dup4\n      sub\n      sub\n      dup2\n      mstore\n      swap1\n      0x40\n      mstore\n        /* \"contracts/rock_paper_scissors.sol\":4205:4245  keccak256(abi.encodePacked(playerInput)) */\n      dup1\n      mload\n      swap1\n      0x20\n      add\n      keccak256\n        /* \"contracts/rock_paper_scissors.sol\":4205:4286  keccak256(abi.encodePacked(playerInput)) == keccak256(abi.encodePacked(scissors)) */\n      eq\n        /* \"contracts/rock_paper_scissors.sol\":4205:4374  keccak256(abi.encodePacked(playerInput)) == keccak256(abi.encodePacked(scissors)) && keccak256(abi.encodePacked(computerChoice)) == keccak256(abi.encodePacked(scissors)) */\n      dup1\n      iszero\n      tag_160\n      jumpi\n      pop\n        /* \"contracts/rock_paper_scissors.sol\":4364:4372  scissors */\n      dup2\n        /* \"contracts/rock_paper_scissors.sol\":4347:4373  abi.encodePacked(scissors) */\n      add(0x20, mload(0x40))\n      tag_161\n      swap2\n      swap1\n      tag_102\n      jump\t// in\n    tag_161:\n      mload(0x40)\n      0x20\n      dup2\n      dup4\n      sub\n      sub\n      dup2\n      mstore\n      swap1\n      0x40\n      mstore\n        /* \"contracts/rock_paper_scissors.sol\":4337:4374  keccak256(abi.encodePacked(scissors)) */\n      dup1\n      mload\n      swap1\n      0x20\n      add\n      keccak256\n        /* \"contracts/rock_paper_scissors.sol\":4317:4331  computerChoice */\n      dup7\n        /* \"contracts/rock_paper_scissors.sol\":4300:4332  abi.encodePacked(computerChoice) */\n      add(0x20, mload(0x40))\n      tag_162\n      swap2\n      swap1\n      tag_102\n      jump\t// in\n    tag_162:\n      mload(0x40)\n      0x20\n      dup2\n      dup4\n      sub\n      sub\n      dup2\n      mstore\n      swap1\n      0x40\n      mstore\n        /* \"contracts/rock_paper_scissors.sol\":4290:4333  keccak256(abi.encodePacked(computerChoice)) */\n      dup1\n      mload\n      swap1\n      0x20\n      add\n      keccak256\n        /* \"contracts/rock_paper_scissors.sol\":4290:4374  keccak256(abi.encodePacked(computerChoice)) == keccak256(abi.encodePacked(scissors)) */\n      eq\n        /* \"contracts/rock_paper_scissors.sol\":4205:4374  keccak256(abi.encodePacked(playerInput)) == keccak256(abi.encodePacked(scissors)) && keccak256(abi.encodePacked(computerChoice)) == keccak256(abi.encodePacked(scissors)) */\n    tag_160:\n        /* \"contracts/rock_paper_scissors.sol\":4201:4418  if (keccak256(abi.encodePacked(playerInput)) == keccak256(abi.encodePacked(scissors)) && keccak256(abi.encodePacked(computerChoice)) == keccak256(abi.encodePacked(scissors))) {... */\n      iszero\n      tag_163\n      jumpi\n        /* \"contracts/rock_paper_scissors.sol\":4405:4406  0 */\n      0x00\n        /* \"contracts/rock_paper_scissors.sol\":4391:4406  gameOutcome = 0 */\n      swap1\n      pop\n        /* \"contracts/rock_paper_scissors.sol\":4201:4418  if (keccak256(abi.encodePacked(playerInput)) == keccak256(abi.encodePacked(scissors)) && keccak256(abi.encodePacked(computerChoice)) == keccak256(abi.encodePacked(scissors))) {... */\n    tag_163:\n        /* \"contracts/rock_paper_scissors.sol\":3981:4418  if (keccak256(abi.encodePacked(playerInput)) == keccak256(abi.encodePacked(scissors)) && keccak256(abi.encodePacked(computerChoice)) == keccak256(abi.encodePacked(paper))) {... */\n    tag_157:\n        /* \"contracts/rock_paper_scissors.sol\":3762:4418  if (keccak256(abi.encodePacked(playerInput)) == keccak256(abi.encodePacked(scissors)) && keccak256(abi.encodePacked(computerChoice)) == keccak256(abi.encodePacked(rock))) {... */\n    tag_150:\n        /* \"contracts/rock_paper_scissors.sol\":3542:4418  if (keccak256(abi.encodePacked(playerInput)) == keccak256(abi.encodePacked(paper)) && keccak256(abi.encodePacked(computerChoice)) == keccak256(abi.encodePacked(scissors))) {... */\n    tag_143:\n        /* \"contracts/rock_paper_scissors.sol\":3325:4418  if (keccak256(abi.encodePacked(playerInput)) == keccak256(abi.encodePacked(paper)) && keccak256(abi.encodePacked(computerChoice)) == keccak256(abi.encodePacked(paper))) {... */\n    tag_136:\n        /* \"contracts/rock_paper_scissors.sol\":3109:4418  if (keccak256(abi.encodePacked(playerInput)) == keccak256(abi.encodePacked(paper)) && keccak256(abi.encodePacked(computerChoice)) == keccak256(abi.encodePacked(rock))) {... */\n    tag_129:\n        /* \"contracts/rock_paper_scissors.sol\":2890:4418  if (keccak256(abi.encodePacked(playerInput)) == keccak256(abi.encodePacked(rock)) && keccak256(abi.encodePacked(computerChoice)) == keccak256(abi.encodePacked(scissors))) {... */\n    tag_122:\n        /* \"contracts/rock_paper_scissors.sol\":2674:4418  if (keccak256(abi.encodePacked(playerInput)) == keccak256(abi.encodePacked(rock)) && keccak256(abi.encodePacked(computerChoice)) == keccak256(abi.encodePacked(paper))) {... */\n    tag_115:\n        /* \"contracts/rock_paper_scissors.sol\":2459:4418  if (keccak256(abi.encodePacked(playerInput)) == keccak256(abi.encodePacked(rock)) && keccak256(abi.encodePacked(computerChoice)) == keccak256(abi.encodePacked(rock))) {... */\n    tag_108:\n        /* \"contracts/rock_paper_scissors.sol\":4437:4448  gameOutcome */\n      dup1\n        /* \"contracts/rock_paper_scissors.sol\":4430:4448  return gameOutcome */\n      swap5\n      pop\n      pop\n      pop\n      pop\n      pop\n        /* \"contracts/rock_paper_scissors.sol\":2125:4456  function determineGameOutcome(string memory playerInput, string memory computerChoice) internal pure returns (uint) {... */\n      swap3\n      swap2\n      pop\n      pop\n      jump\t// out\n        /* \"contracts/rock_paper_scissors.sol\":4464:5158  function createOutputMessage(string memory playerInput, string memory computerChoice, uint gameOutcome) internal pure returns (string memory) {... */\n    tag_66:\n        /* \"contracts/rock_paper_scissors.sol\":4591:4604  string memory */\n      0x60\n        /* \"contracts/rock_paper_scissors.sol\":4617:4644  string memory outputMessage */\n      dup1\n        /* \"contracts/rock_paper_scissors.sol\":4655:4681  string memory endOfMessage */\n      0x60\n        /* \"contracts/rock_paper_scissors.sol\":4713:4714  0 */\n      0x00\n        /* \"contracts/rock_paper_scissors.sol\":4698:4709  gameOutcome */\n      dup5\n        /* \"contracts/rock_paper_scissors.sol\":4698:4714  gameOutcome == 0 */\n      sub\n        /* \"contracts/rock_paper_scissors.sol\":4694:4970  if (gameOutcome == 0) {... */\n      tag_165\n      jumpi\n        /* \"contracts/rock_paper_scissors.sol\":4731:4775  endOfMessage = \". The game ended in a draw.\" */\n      mload(0x40)\n      dup1\n      0x40\n      add\n      0x40\n      mstore\n      dup1\n      0x1b\n      dup2\n      mstore\n      0x20\n      add\n      0x2e205468652067616d6520656e64656420696e206120647261772e0000000000\n      dup2\n      mstore\n      pop\n      swap1\n      pop\n        /* \"contracts/rock_paper_scissors.sol\":4694:4970  if (gameOutcome == 0) {... */\n      jump(tag_166)\n    tag_165:\n        /* \"contracts/rock_paper_scissors.sol\":4812:4813  1 */\n      0x01\n        /* \"contracts/rock_paper_scissors.sol\":4797:4808  gameOutcome */\n      dup5\n        /* \"contracts/rock_paper_scissors.sol\":4797:4813  gameOutcome == 1 */\n      sub\n        /* \"contracts/rock_paper_scissors.sol\":4793:4970  if (gameOutcome == 1) {... */\n      tag_167\n      jumpi\n        /* \"contracts/rock_paper_scissors.sol\":4830:4866  endOfMessage = \". You won the game.\" */\n      mload(0x40)\n      dup1\n      0x40\n      add\n      0x40\n      mstore\n      dup1\n      0x13\n      dup2\n      mstore\n      0x20\n      add\n      0x2e20596f7520776f6e207468652067616d652e00000000000000000000000000\n      dup2\n      mstore\n      pop\n      swap1\n      pop\n        /* \"contracts/rock_paper_scissors.sol\":4793:4970  if (gameOutcome == 1) {... */\n      jump(tag_168)\n    tag_167:\n        /* \"contracts/rock_paper_scissors.sol\":4903:4904  2 */\n      0x02\n        /* \"contracts/rock_paper_scissors.sol\":4888:4899  gameOutcome */\n      dup5\n        /* \"contracts/rock_paper_scissors.sol\":4888:4904  gameOutcome == 2 */\n      sub\n        /* \"contracts/rock_paper_scissors.sol\":4884:4970  if (gameOutcome == 2) {... */\n      tag_169\n      jumpi\n        /* \"contracts/rock_paper_scissors.sol\":4921:4958  endOfMessage = \". You lost the game.\" */\n      mload(0x40)\n      dup1\n      0x40\n      add\n      0x40\n      mstore\n      dup1\n      0x14\n      dup2\n      mstore\n      0x20\n      add\n      0x2e20596f75206c6f7374207468652067616d652e000000000000000000000000\n      dup2\n      mstore\n      pop\n      swap1\n      pop\n        /* \"contracts/rock_paper_scissors.sol\":4884:4970  if (gameOutcome == 2) {... */\n    tag_169:\n        /* \"contracts/rock_paper_scissors.sol\":4793:4970  if (gameOutcome == 1) {... */\n    tag_168:\n        /* \"contracts/rock_paper_scissors.sol\":4694:4970  if (gameOutcome == 0) {... */\n    tag_166:\n        /* \"contracts/rock_paper_scissors.sol\":5037:5048  playerInput */\n      dup6\n        /* \"contracts/rock_paper_scissors.sol\":5079:5093  computerChoice */\n      dup6\n        /* \"contracts/rock_paper_scissors.sol\":5095:5107  endOfMessage */\n      dup3\n        /* \"contracts/rock_paper_scissors.sol\":5005:5108  abi.encodePacked(\"You picked \", playerInput, \" and the computer picked \", computerChoice, endOfMessage) */\n      add(0x20, mload(0x40))\n      tag_170\n      swap4\n      swap3\n      swap2\n      swap1\n      tag_171\n      jump\t// in\n    tag_170:\n      mload(0x40)\n      0x20\n      dup2\n      dup4\n      sub\n      sub\n      dup2\n      mstore\n      swap1\n      0x40\n      mstore\n        /* \"contracts/rock_paper_scissors.sol\":4982:5109  outputMessage = string(abi.encodePacked(\"You picked \", playerInput, \" and the computer picked \", computerChoice, endOfMessage)) */\n      swap2\n      pop\n        /* \"contracts/rock_paper_scissors.sol\":5137:5150  outputMessage */\n      dup2\n        /* \"contracts/rock_paper_scissors.sol\":5130:5150  return outputMessage */\n      swap3\n      pop\n      pop\n      pop\n        /* \"contracts/rock_paper_scissors.sol\":4464:5158  function createOutputMessage(string memory playerInput, string memory computerChoice, uint gameOutcome) internal pure returns (string memory) {... */\n      swap4\n      swap3\n      pop\n      pop\n      pop\n      jump\t// out\n        /* \"contracts/ownable.sol\":1408:1540  function _checkOwner() internal view virtual {... */\n    tag_79:\n        /* \"contracts/ownable.sol\":1483:1495  _msgSender() */\n      tag_173\n        /* \"contracts/ownable.sol\":1483:1493  _msgSender */\n      tag_174\n        /* \"contracts/ownable.sol\":1483:1495  _msgSender() */\n      jump\t// in\n    tag_173:\n        /* \"contracts/ownable.sol\":1472:1495  owner() == _msgSender() */\n      0xffffffffffffffffffffffffffffffffffffffff\n      and\n        /* \"contracts/ownable.sol\":1472:1479  owner() */\n      tag_175\n        /* \"contracts/ownable.sol\":1472:1477  owner */\n      tag_37\n        /* \"contracts/ownable.sol\":1472:1479  owner() */\n      jump\t// in\n    tag_175:\n        /* \"contracts/ownable.sol\":1472:1495  owner() == _msgSender() */\n      0xffffffffffffffffffffffffffffffffffffffff\n      and\n      eq\n        /* \"contracts/ownable.sol\":1464:1532  require(owner() == _msgSender(), \"Ownable: caller is not the owner\") */\n      tag_176\n      jumpi\n      mload(0x40)\n      0x08c379a000000000000000000000000000000000000000000000000000000000\n      dup2\n      mstore\n      0x04\n      add\n      tag_177\n      swap1\n      tag_178\n      jump\t// in\n    tag_177:\n      mload(0x40)\n      dup1\n      swap2\n      sub\n      swap1\n      revert\n    tag_176:\n        /* \"contracts/ownable.sol\":1408:1540  function _checkOwner() internal view virtual {... */\n      jump\t// out\n        /* \"contracts/ownable.sol\":2510:2701  function _transferOwnership(address newOwner) internal virtual {... */\n    tag_82:\n        /* \"contracts/ownable.sol\":2584:2600  address oldOwner */\n      0x00\n        /* \"contracts/ownable.sol\":2603:2609  _owner */\n      dup1\n      0x00\n      swap1\n      sload\n      swap1\n      0x0100\n      exp\n      swap1\n      div\n      0xffffffffffffffffffffffffffffffffffffffff\n      and\n        /* \"contracts/ownable.sol\":2584:2609  address oldOwner = _owner */\n      swap1\n      pop\n        /* \"contracts/ownable.sol\":2629:2637  newOwner */\n      dup2\n        /* \"contracts/ownable.sol\":2620:2626  _owner */\n      0x00\n      dup1\n        /* \"contracts/ownable.sol\":2620:2637  _owner = newOwner */\n      0x0100\n      exp\n      dup2\n      sload\n      dup2\n      0xffffffffffffffffffffffffffffffffffffffff\n      mul\n      not\n      and\n      swap1\n      dup4\n      0xffffffffffffffffffffffffffffffffffffffff\n      and\n      mul\n      or\n      swap1\n      sstore\n      pop\n        /* \"contracts/ownable.sol\":2684:2692  newOwner */\n      dup2\n        /* \"contracts/ownable.sol\":2653:2693  OwnershipTransferred(oldOwner, newOwner) */\n      0xffffffffffffffffffffffffffffffffffffffff\n      and\n        /* \"contracts/ownable.sol\":2674:2682  oldOwner */\n      dup2\n        /* \"contracts/ownable.sol\":2653:2693  OwnershipTransferred(oldOwner, newOwner) */\n      0xffffffffffffffffffffffffffffffffffffffff\n      and\n      0x8be0079c531659141344cd1fd0a4f28419497f9722a3daafe3b4186f6b6457e0\n      mload(0x40)\n      mload(0x40)\n      dup1\n      swap2\n      sub\n      swap1\n      log3\n        /* \"contracts/ownable.sol\":2573:2701  {... */\n      pop\n        /* \"contracts/ownable.sol\":2510:2701  function _transferOwnership(address newOwner) internal virtual {... */\n      pop\n      jump\t// out\n        /* \"contracts/rock_paper_scissors.sol\":1201:1493  function randMod() internal view returns(uint) {... */\n    tag_93:\n        /* \"contracts/rock_paper_scissors.sol\":1242:1246  uint */\n      0x00\n        /* \"contracts/rock_paper_scissors.sol\":1315:1329  uint randNonce */\n      dup1\n        /* \"contracts/rock_paper_scissors.sol\":1332:1333  0 */\n      0x00\n        /* \"contracts/rock_paper_scissors.sol\":1315:1333  uint randNonce = 0 */\n      swap1\n      pop\n        /* \"contracts/rock_paper_scissors.sol\":1344:1356  uint modulus */\n      0x00\n        /* \"contracts/rock_paper_scissors.sol\":1359:1362  100 */\n      0x64\n        /* \"contracts/rock_paper_scissors.sol\":1344:1362  uint modulus = 100 */\n      swap1\n      pop\n        /* \"contracts/rock_paper_scissors.sol\":1373:1384  randNonce++ */\n      dup2\n      dup1\n      tag_181\n      swap1\n      tag_75\n      jump\t// in\n    tag_181:\n      swap3\n      pop\n      pop\n        /* \"contracts/rock_paper_scissors.sol\":1478:1485  modulus */\n      dup1\n        /* \"contracts/rock_paper_scissors.sol\":1434:1449  block.timestamp */\n      timestamp\n        /* \"contracts/rock_paper_scissors.sol\":1451:1461  msg.sender */\n      caller\n        /* \"contracts/rock_paper_scissors.sol\":1463:1472  randNonce */\n      dup5\n        /* \"contracts/rock_paper_scissors.sol\":1417:1473  abi.encodePacked(block.timestamp, msg.sender, randNonce) */\n      add(0x20, mload(0x40))\n      tag_182\n      swap4\n      swap3\n      swap2\n      swap1\n      tag_183\n      jump\t// in\n    tag_182:\n      mload(0x40)\n      0x20\n      dup2\n      dup4\n      sub\n      sub\n      dup2\n      mstore\n      swap1\n      0x40\n      mstore\n        /* \"contracts/rock_paper_scissors.sol\":1407:1474  keccak256(abi.encodePacked(block.timestamp, msg.sender, randNonce)) */\n      dup1\n      mload\n      swap1\n      0x20\n      add\n      keccak256\n        /* \"contracts/rock_paper_scissors.sol\":1402:1475  uint(keccak256(abi.encodePacked(block.timestamp, msg.sender, randNonce))) */\n      0x00\n      shr\n        /* \"contracts/rock_paper_scissors.sol\":1402:1485  uint(keccak256(abi.encodePacked(block.timestamp, msg.sender, randNonce))) % modulus */\n      tag_184\n      swap2\n      swap1\n      tag_185\n      jump\t// in\n    tag_184:\n        /* \"contracts/rock_paper_scissors.sol\":1395:1485  return uint(keccak256(abi.encodePacked(block.timestamp, msg.sender, randNonce))) % modulus */\n      swap3\n      pop\n      pop\n      pop\n        /* \"contracts/rock_paper_scissors.sol\":1201:1493  function randMod() internal view returns(uint) {... */\n      swap1\n      jump\t// out\n        /* \"utils/Context.sol\":656:754  function _msgSender() internal view virtual returns (address) {... */\n    tag_174:\n        /* \"utils/Context.sol\":709:716  address */\n      0x00\n        /* \"utils/Context.sol\":736:746  msg.sender */\n      caller\n        /* \"utils/Context.sol\":729:746  return msg.sender */\n      swap1\n      pop\n        /* \"utils/Context.sol\":656:754  function _msgSender() internal view virtual returns (address) {... */\n      swap1\n      jump\t// out\n        /* \"#utility.yul\":7:82   */\n    tag_187:\n        /* \"#utility.yul\":40:46   */\n      0x00\n        /* \"#utility.yul\":73:75   */\n      0x40\n        /* \"#utility.yul\":67:76   */\n      mload\n        /* \"#utility.yul\":57:76   */\n      swap1\n      pop\n        /* \"#utility.yul\":7:82   */\n      swap1\n      jump\t// out\n        /* \"#utility.yul\":88:205   */\n    tag_188:\n        /* \"#utility.yul\":197:198   */\n      0x00\n        /* \"#utility.yul\":194:195   */\n      dup1\n        /* \"#utility.yul\":187:199   */\n      revert\n        /* \"#utility.yul\":211:328   */\n    tag_189:\n        /* \"#utility.yul\":320:321   */\n      0x00\n        /* \"#utility.yul\":317:318   */\n      dup1\n        /* \"#utility.yul\":310:322   */\n      revert\n        /* \"#utility.yul\":334:411   */\n    tag_190:\n        /* \"#utility.yul\":371:378   */\n      0x00\n        /* \"#utility.yul\":400:405   */\n      dup2\n        /* \"#utility.yul\":389:405   */\n      swap1\n      pop\n        /* \"#utility.yul\":334:411   */\n      swap2\n      swap1\n      pop\n      jump\t// out\n        /* \"#utility.yul\":417:539   */\n    tag_191:\n        /* \"#utility.yul\":490:514   */\n      tag_253\n        /* \"#utility.yul\":508:513   */\n      dup2\n        /* \"#utility.yul\":490:514   */\n      tag_190\n      jump\t// in\n    tag_253:\n        /* \"#utility.yul\":483:488   */\n      dup2\n        /* \"#utility.yul\":480:515   */\n      eq\n        /* \"#utility.yul\":470:533   */\n      tag_254\n      jumpi\n        /* \"#utility.yul\":529:530   */\n      0x00\n        /* \"#utility.yul\":526:527   */\n      dup1\n        /* \"#utility.yul\":519:531   */\n      revert\n        /* \"#utility.yul\":470:533   */\n    tag_254:\n        /* \"#utility.yul\":417:539   */\n      pop\n      jump\t// out\n        /* \"#utility.yul\":545:684   */\n    tag_192:\n        /* \"#utility.yul\":591:596   */\n      0x00\n        /* \"#utility.yul\":629:635   */\n      dup2\n        /* \"#utility.yul\":616:636   */\n      calldataload\n        /* \"#utility.yul\":607:636   */\n      swap1\n      pop\n        /* \"#utility.yul\":645:678   */\n      tag_256\n        /* \"#utility.yul\":672:677   */\n      dup2\n        /* \"#utility.yul\":645:678   */\n      tag_191\n      jump\t// in\n    tag_256:\n        /* \"#utility.yul\":545:684   */\n      swap3\n      swap2\n      pop\n      pop\n      jump\t// out\n        /* \"#utility.yul\":690:1019   */\n    tag_13:\n        /* \"#utility.yul\":749:755   */\n      0x00\n        /* \"#utility.yul\":798:800   */\n      0x20\n        /* \"#utility.yul\":786:795   */\n      dup3\n        /* \"#utility.yul\":777:784   */\n      dup5\n        /* \"#utility.yul\":773:796   */\n      sub\n        /* \"#utility.yul\":769:801   */\n      slt\n        /* \"#utility.yul\":766:885   */\n      iszero\n      tag_258\n      jumpi\n        /* \"#utility.yul\":804:883   */\n      tag_259\n      tag_188\n      jump\t// in\n    tag_259:\n        /* \"#utility.yul\":766:885   */\n    tag_258:\n        /* \"#utility.yul\":924:925   */\n      0x00\n        /* \"#utility.yul\":949:1002   */\n      tag_260\n        /* \"#utility.yul\":994:1001   */\n      dup5\n        /* \"#utility.yul\":985:991   */\n      dup3\n        /* \"#utility.yul\":974:983   */\n      dup6\n        /* \"#utility.yul\":970:992   */\n      add\n        /* \"#utility.yul\":949:1002   */\n      tag_192\n      jump\t// in\n    tag_260:\n        /* \"#utility.yul\":939:1002   */\n      swap2\n      pop\n        /* \"#utility.yul\":895:1012   */\n      pop\n        /* \"#utility.yul\":690:1019   */\n      swap3\n      swap2\n      pop\n      pop\n      jump\t// out\n        /* \"#utility.yul\":1025:1124   */\n    tag_193:\n        /* \"#utility.yul\":1077:1083   */\n      0x00\n        /* \"#utility.yul\":1111:1116   */\n      dup2\n        /* \"#utility.yul\":1105:1117   */\n      mload\n        /* \"#utility.yul\":1095:1117   */\n      swap1\n      pop\n        /* \"#utility.yul\":1025:1124   */\n      swap2\n      swap1\n      pop\n      jump\t// out\n        /* \"#utility.yul\":1130:1299   */\n    tag_194:\n        /* \"#utility.yul\":1214:1225   */\n      0x00\n        /* \"#utility.yul\":1248:1254   */\n      dup3\n        /* \"#utility.yul\":1243:1246   */\n      dup3\n        /* \"#utility.yul\":1236:1255   */\n      mstore\n        /* \"#utility.yul\":1288:1292   */\n      0x20\n        /* \"#utility.yul\":1283:1286   */\n      dup3\n        /* \"#utility.yul\":1279:1293   */\n      add\n        /* \"#utility.yul\":1264:1293   */\n      swap1\n      pop\n        /* \"#utility.yul\":1130:1299   */\n      swap3\n      swap2\n      pop\n      pop\n      jump\t// out\n        /* \"#utility.yul\":1305:1551   */\n    tag_195:\n        /* \"#utility.yul\":1386:1387   */\n      0x00\n        /* \"#utility.yul\":1396:1509   */\n    tag_264:\n        /* \"#utility.yul\":1410:1416   */\n      dup4\n        /* \"#utility.yul\":1407:1408   */\n      dup2\n        /* \"#utility.yul\":1404:1417   */\n      lt\n        /* \"#utility.yul\":1396:1509   */\n      iszero\n      tag_266\n      jumpi\n        /* \"#utility.yul\":1495:1496   */\n      dup1\n        /* \"#utility.yul\":1490:1493   */\n      dup3\n        /* \"#utility.yul\":1486:1497   */\n      add\n        /* \"#utility.yul\":1480:1498   */\n      mload\n        /* \"#utility.yul\":1476:1477   */\n      dup2\n        /* \"#utility.yul\":1471:1474   */\n      dup5\n        /* \"#utility.yul\":1467:1478   */\n      add\n        /* \"#utility.yul\":1460:1499   */\n      mstore\n        /* \"#utility.yul\":1432:1434   */\n      0x20\n        /* \"#utility.yul\":1429:1430   */\n      dup2\n        /* \"#utility.yul\":1425:1435   */\n      add\n        /* \"#utility.yul\":1420:1435   */\n      swap1\n      pop\n        /* \"#utility.yul\":1396:1509   */\n      jump(tag_264)\n    tag_266:\n        /* \"#utility.yul\":1543:1544   */\n      0x00\n        /* \"#utility.yul\":1534:1540   */\n      dup5\n        /* \"#utility.yul\":1529:1532   */\n      dup5\n        /* \"#utility.yul\":1525:1541   */\n      add\n        /* \"#utility.yul\":1518:1545   */\n      mstore\n        /* \"#utility.yul\":1367:1551   */\n      pop\n        /* \"#utility.yul\":1305:1551   */\n      pop\n      pop\n      pop\n      jump\t// out\n        /* \"#utility.yul\":1557:1659   */\n    tag_196:\n        /* \"#utility.yul\":1598:1604   */\n      0x00\n        /* \"#utility.yul\":1649:1651   */\n      0x1f\n        /* \"#utility.yul\":1645:1652   */\n      not\n        /* \"#utility.yul\":1640:1642   */\n      0x1f\n        /* \"#utility.yul\":1633:1638   */\n      dup4\n        /* \"#utility.yul\":1629:1643   */\n      add\n        /* \"#utility.yul\":1625:1653   */\n      and\n        /* \"#utility.yul\":1615:1653   */\n      swap1\n      pop\n        /* \"#utility.yul\":1557:1659   */\n      swap2\n      swap1\n      pop\n      jump\t// out\n        /* \"#utility.yul\":1665:2042   */\n    tag_197:\n        /* \"#utility.yul\":1753:1756   */\n      0x00\n        /* \"#utility.yul\":1781:1820   */\n      tag_269\n        /* \"#utility.yul\":1814:1819   */\n      dup3\n        /* \"#utility.yul\":1781:1820   */\n      tag_193\n      jump\t// in\n    tag_269:\n        /* \"#utility.yul\":1836:1907   */\n      tag_270\n        /* \"#utility.yul\":1900:1906   */\n      dup2\n        /* \"#utility.yul\":1895:1898   */\n      dup6\n        /* \"#utility.yul\":1836:1907   */\n      tag_194\n      jump\t// in\n    tag_270:\n        /* \"#utility.yul\":1829:1907   */\n      swap4\n      pop\n        /* \"#utility.yul\":1916:1981   */\n      tag_271\n        /* \"#utility.yul\":1974:1980   */\n      dup2\n        /* \"#utility.yul\":1969:1972   */\n      dup6\n        /* \"#utility.yul\":1962:1966   */\n      0x20\n        /* \"#utility.yul\":1955:1960   */\n      dup7\n        /* \"#utility.yul\":1951:1967   */\n      add\n        /* \"#utility.yul\":1916:1981   */\n      tag_195\n      jump\t// in\n    tag_271:\n        /* \"#utility.yul\":2006:2035   */\n      tag_272\n        /* \"#utility.yul\":2028:2034   */\n      dup2\n        /* \"#utility.yul\":2006:2035   */\n      tag_196\n      jump\t// in\n    tag_272:\n        /* \"#utility.yul\":2001:2004   */\n      dup5\n        /* \"#utility.yul\":1997:2036   */\n      add\n        /* \"#utility.yul\":1990:2036   */\n      swap2\n      pop\n        /* \"#utility.yul\":1757:2042   */\n      pop\n        /* \"#utility.yul\":1665:2042   */\n      swap3\n      swap2\n      pop\n      pop\n      jump\t// out\n        /* \"#utility.yul\":2048:2166   */\n    tag_198:\n        /* \"#utility.yul\":2135:2159   */\n      tag_274\n        /* \"#utility.yul\":2153:2158   */\n      dup2\n        /* \"#utility.yul\":2135:2159   */\n      tag_190\n      jump\t// in\n    tag_274:\n        /* \"#utility.yul\":2130:2133   */\n      dup3\n        /* \"#utility.yul\":2123:2160   */\n      mstore\n        /* \"#utility.yul\":2048:2166   */\n      pop\n      pop\n      jump\t// out\n        /* \"#utility.yul\":2172:2998   */\n    tag_16:\n        /* \"#utility.yul\":2409:2413   */\n      0x00\n        /* \"#utility.yul\":2447:2450   */\n      0x80\n        /* \"#utility.yul\":2436:2445   */\n      dup3\n        /* \"#utility.yul\":2432:2451   */\n      add\n        /* \"#utility.yul\":2424:2451   */\n      swap1\n      pop\n        /* \"#utility.yul\":2497:2506   */\n      dup2\n        /* \"#utility.yul\":2491:2495   */\n      dup2\n        /* \"#utility.yul\":2487:2507   */\n      sub\n        /* \"#utility.yul\":2483:2484   */\n      0x00\n        /* \"#utility.yul\":2472:2481   */\n      dup4\n        /* \"#utility.yul\":2468:2485   */\n      add\n        /* \"#utility.yul\":2461:2508   */\n      mstore\n        /* \"#utility.yul\":2525:2603   */\n      tag_276\n        /* \"#utility.yul\":2598:2602   */\n      dup2\n        /* \"#utility.yul\":2589:2595   */\n      dup8\n        /* \"#utility.yul\":2525:2603   */\n      tag_197\n      jump\t// in\n    tag_276:\n        /* \"#utility.yul\":2517:2603   */\n      swap1\n      pop\n        /* \"#utility.yul\":2650:2659   */\n      dup2\n        /* \"#utility.yul\":2644:2648   */\n      dup2\n        /* \"#utility.yul\":2640:2660   */\n      sub\n        /* \"#utility.yul\":2635:2637   */\n      0x20\n        /* \"#utility.yul\":2624:2633   */\n      dup4\n        /* \"#utility.yul\":2620:2638   */\n      add\n        /* \"#utility.yul\":2613:2661   */\n      mstore\n        /* \"#utility.yul\":2678:2756   */\n      tag_277\n        /* \"#utility.yul\":2751:2755   */\n      dup2\n        /* \"#utility.yul\":2742:2748   */\n      dup7\n        /* \"#utility.yul\":2678:2756   */\n      tag_197\n      jump\t// in\n    tag_277:\n        /* \"#utility.yul\":2670:2756   */\n      swap1\n      pop\n        /* \"#utility.yul\":2766:2838   */\n      tag_278\n        /* \"#utility.yul\":2834:2836   */\n      0x40\n        /* \"#utility.yul\":2823:2832   */\n      dup4\n        /* \"#utility.yul\":2819:2837   */\n      add\n        /* \"#utility.yul\":2810:2816   */\n      dup6\n        /* \"#utility.yul\":2766:2838   */\n      tag_198\n      jump\t// in\n    tag_278:\n        /* \"#utility.yul\":2885:2894   */\n      dup2\n        /* \"#utility.yul\":2879:2883   */\n      dup2\n        /* \"#utility.yul\":2875:2895   */\n      sub\n        /* \"#utility.yul\":2870:2872   */\n      0x60\n        /* \"#utility.yul\":2859:2868   */\n      dup4\n        /* \"#utility.yul\":2855:2873   */\n      add\n        /* \"#utility.yul\":2848:2896   */\n      mstore\n        /* \"#utility.yul\":2913:2991   */\n      tag_279\n        /* \"#utility.yul\":2986:2990   */\n      dup2\n        /* \"#utility.yul\":2977:2983   */\n      dup5\n        /* \"#utility.yul\":2913:2991   */\n      tag_197\n      jump\t// in\n    tag_279:\n        /* \"#utility.yul\":2905:2991   */\n      swap1\n      pop\n        /* \"#utility.yul\":2172:2998   */\n      swap6\n      swap5\n      pop\n      pop\n      pop\n      pop\n      pop\n      jump\t// out\n        /* \"#utility.yul\":3004:3130   */\n    tag_199:\n        /* \"#utility.yul\":3041:3048   */\n      0x00\n        /* \"#utility.yul\":3081:3123   */\n      0xffffffffffffffffffffffffffffffffffffffff\n        /* \"#utility.yul\":3074:3079   */\n      dup3\n        /* \"#utility.yul\":3070:3124   */\n      and\n        /* \"#utility.yul\":3059:3124   */\n      swap1\n      pop\n        /* \"#utility.yul\":3004:3130   */\n      swap2\n      swap1\n      pop\n      jump\t// out\n        /* \"#utility.yul\":3136:3232   */\n    tag_200:\n        /* \"#utility.yul\":3173:3180   */\n      0x00\n        /* \"#utility.yul\":3202:3226   */\n      tag_282\n        /* \"#utility.yul\":3220:3225   */\n      dup3\n        /* \"#utility.yul\":3202:3226   */\n      tag_199\n      jump\t// in\n    tag_282:\n        /* \"#utility.yul\":3191:3226   */\n      swap1\n      pop\n        /* \"#utility.yul\":3136:3232   */\n      swap2\n      swap1\n      pop\n      jump\t// out\n        /* \"#utility.yul\":3238:3356   */\n    tag_201:\n        /* \"#utility.yul\":3325:3349   */\n      tag_284\n        /* \"#utility.yul\":3343:3348   */\n      dup2\n        /* \"#utility.yul\":3325:3349   */\n      tag_200\n      jump\t// in\n    tag_284:\n        /* \"#utility.yul\":3320:3323   */\n      dup3\n        /* \"#utility.yul\":3313:3350   */\n      mstore\n        /* \"#utility.yul\":3238:3356   */\n      pop\n      pop\n      jump\t// out\n        /* \"#utility.yul\":3362:3584   */\n    tag_21:\n        /* \"#utility.yul\":3455:3459   */\n      0x00\n        /* \"#utility.yul\":3493:3495   */\n      0x20\n        /* \"#utility.yul\":3482:3491   */\n      dup3\n        /* \"#utility.yul\":3478:3496   */\n      add\n        /* \"#utility.yul\":3470:3496   */\n      swap1\n      pop\n        /* \"#utility.yul\":3506:3577   */\n      tag_286\n        /* \"#utility.yul\":3574:3575   */\n      0x00\n        /* \"#utility.yul\":3563:3572   */\n      dup4\n        /* \"#utility.yul\":3559:3576   */\n      add\n        /* \"#utility.yul\":3550:3556   */\n      dup5\n        /* \"#utility.yul\":3506:3577   */\n      tag_201\n      jump\t// in\n    tag_286:\n        /* \"#utility.yul\":3362:3584   */\n      swap3\n      swap2\n      pop\n      pop\n      jump\t// out\n        /* \"#utility.yul\":3590:3712   */\n    tag_202:\n        /* \"#utility.yul\":3663:3687   */\n      tag_288\n        /* \"#utility.yul\":3681:3686   */\n      dup2\n        /* \"#utility.yul\":3663:3687   */\n      tag_200\n      jump\t// in\n    tag_288:\n        /* \"#utility.yul\":3656:3661   */\n      dup2\n        /* \"#utility.yul\":3653:3688   */\n      eq\n        /* \"#utility.yul\":3643:3706   */\n      tag_289\n      jumpi\n        /* \"#utility.yul\":3702:3703   */\n      0x00\n        /* \"#utility.yul\":3699:3700   */\n      dup1\n        /* \"#utility.yul\":3692:3704   */\n      revert\n        /* \"#utility.yul\":3643:3706   */\n    tag_289:\n        /* \"#utility.yul\":3590:3712   */\n      pop\n      jump\t// out\n        /* \"#utility.yul\":3718:3857   */\n    tag_203:\n        /* \"#utility.yul\":3764:3769   */\n      0x00\n        /* \"#utility.yul\":3802:3808   */\n      dup2\n        /* \"#utility.yul\":3789:3809   */\n      calldataload\n        /* \"#utility.yul\":3780:3809   */\n      swap1\n      pop\n        /* \"#utility.yul\":3818:3851   */\n      tag_291\n        /* \"#utility.yul\":3845:3850   */\n      dup2\n        /* \"#utility.yul\":3818:3851   */\n      tag_202\n      jump\t// in\n    tag_291:\n        /* \"#utility.yul\":3718:3857   */\n      swap3\n      swap2\n      pop\n      pop\n      jump\t// out\n        /* \"#utility.yul\":3863:4192   */\n    tag_24:\n        /* \"#utility.yul\":3922:3928   */\n      0x00\n        /* \"#utility.yul\":3971:3973   */\n      0x20\n        /* \"#utility.yul\":3959:3968   */\n      dup3\n        /* \"#utility.yul\":3950:3957   */\n      dup5\n        /* \"#utility.yul\":3946:3969   */\n      sub\n        /* \"#utility.yul\":3942:3974   */\n      slt\n        /* \"#utility.yul\":3939:4058   */\n      iszero\n      tag_293\n      jumpi\n        /* \"#utility.yul\":3977:4056   */\n      tag_294\n      tag_188\n      jump\t// in\n    tag_294:\n        /* \"#utility.yul\":3939:4058   */\n    tag_293:\n        /* \"#utility.yul\":4097:4098   */\n      0x00\n        /* \"#utility.yul\":4122:4175   */\n      tag_295\n        /* \"#utility.yul\":4167:4174   */\n      dup5\n        /* \"#utility.yul\":4158:4164   */\n      dup3\n        /* \"#utility.yul\":4147:4156   */\n      dup6\n        /* \"#utility.yul\":4143:4165   */\n      add\n        /* \"#utility.yul\":4122:4175   */\n      tag_203\n      jump\t// in\n    tag_295:\n        /* \"#utility.yul\":4112:4175   */\n      swap2\n      pop\n        /* \"#utility.yul\":4068:4185   */\n      pop\n        /* \"#utility.yul\":3863:4192   */\n      swap3\n      swap2\n      pop\n      pop\n      jump\t// out\n        /* \"#utility.yul\":4198:4420   */\n    tag_27:\n        /* \"#utility.yul\":4291:4295   */\n      0x00\n        /* \"#utility.yul\":4329:4331   */\n      0x20\n        /* \"#utility.yul\":4318:4327   */\n      dup3\n        /* \"#utility.yul\":4314:4332   */\n      add\n        /* \"#utility.yul\":4306:4332   */\n      swap1\n      pop\n        /* \"#utility.yul\":4342:4413   */\n      tag_297\n        /* \"#utility.yul\":4410:4411   */\n      0x00\n        /* \"#utility.yul\":4399:4408   */\n      dup4\n        /* \"#utility.yul\":4395:4412   */\n      add\n        /* \"#utility.yul\":4386:4392   */\n      dup5\n        /* \"#utility.yul\":4342:4413   */\n      tag_198\n      jump\t// in\n    tag_297:\n        /* \"#utility.yul\":4198:4420   */\n      swap3\n      swap2\n      pop\n      pop\n      jump\t// out\n        /* \"#utility.yul\":4426:4543   */\n    tag_204:\n        /* \"#utility.yul\":4535:4536   */\n      0x00\n        /* \"#utility.yul\":4532:4533   */\n      dup1\n        /* \"#utility.yul\":4525:4537   */\n      revert\n        /* \"#utility.yul\":4549:4666   */\n    tag_205:\n        /* \"#utility.yul\":4658:4659   */\n      0x00\n        /* \"#utility.yul\":4655:4656   */\n      dup1\n        /* \"#utility.yul\":4648:4660   */\n      revert\n        /* \"#utility.yul\":4672:4852   */\n    tag_206:\n        /* \"#utility.yul\":4720:4797   */\n      0x4e487b7100000000000000000000000000000000000000000000000000000000\n        /* \"#utility.yul\":4717:4718   */\n      0x00\n        /* \"#utility.yul\":4710:4798   */\n      mstore\n        /* \"#utility.yul\":4817:4821   */\n      0x41\n        /* \"#utility.yul\":4814:4815   */\n      0x04\n        /* \"#utility.yul\":4807:4822   */\n      mstore\n        /* \"#utility.yul\":4841:4845   */\n      0x24\n        /* \"#utility.yul\":4838:4839   */\n      0x00\n        /* \"#utility.yul\":4831:4846   */\n      revert\n        /* \"#utility.yul\":4858:5139   */\n    tag_207:\n        /* \"#utility.yul\":4941:4968   */\n      tag_302\n        /* \"#utility.yul\":4963:4967   */\n      dup3\n        /* \"#utility.yul\":4941:4968   */\n      tag_196\n      jump\t// in\n    tag_302:\n        /* \"#utility.yul\":4933:4939   */\n      dup2\n        /* \"#utility.yul\":4929:4969   */\n      add\n        /* \"#utility.yul\":5071:5077   */\n      dup2\n        /* \"#utility.yul\":5059:5069   */\n      dup2\n        /* \"#utility.yul\":5056:5078   */\n      lt\n        /* \"#utility.yul\":5035:5053   */\n      0xffffffffffffffff\n        /* \"#utility.yul\":5023:5033   */\n      dup3\n        /* \"#utility.yul\":5020:5054   */\n      gt\n        /* \"#utility.yul\":5017:5079   */\n      or\n        /* \"#utility.yul\":5014:5102   */\n      iszero\n      tag_303\n      jumpi\n        /* \"#utility.yul\":5082:5100   */\n      tag_304\n      tag_206\n      jump\t// in\n    tag_304:\n        /* \"#utility.yul\":5014:5102   */\n    tag_303:\n        /* \"#utility.yul\":5122:5132   */\n      dup1\n        /* \"#utility.yul\":5118:5120   */\n      0x40\n        /* \"#utility.yul\":5111:5133   */\n      mstore\n        /* \"#utility.yul\":4901:5139   */\n      pop\n        /* \"#utility.yul\":4858:5139   */\n      pop\n      pop\n      jump\t// out\n        /* \"#utility.yul\":5145:5274   */\n    tag_208:\n        /* \"#utility.yul\":5179:5185   */\n      0x00\n        /* \"#utility.yul\":5206:5226   */\n      tag_306\n      tag_187\n      jump\t// in\n    tag_306:\n        /* \"#utility.yul\":5196:5226   */\n      swap1\n      pop\n        /* \"#utility.yul\":5235:5268   */\n      tag_307\n        /* \"#utility.yul\":5263:5267   */\n      dup3\n        /* \"#utility.yul\":5255:5261   */\n      dup3\n        /* \"#utility.yul\":5235:5268   */\n      tag_207\n      jump\t// in\n    tag_307:\n        /* \"#utility.yul\":5145:5274   */\n      swap2\n      swap1\n      pop\n      jump\t// out\n        /* \"#utility.yul\":5280:5588   */\n    tag_209:\n        /* \"#utility.yul\":5342:5346   */\n      0x00\n        /* \"#utility.yul\":5432:5450   */\n      0xffffffffffffffff\n        /* \"#utility.yul\":5424:5430   */\n      dup3\n        /* \"#utility.yul\":5421:5451   */\n      gt\n        /* \"#utility.yul\":5418:5474   */\n      iszero\n      tag_309\n      jumpi\n        /* \"#utility.yul\":5454:5472   */\n      tag_310\n      tag_206\n      jump\t// in\n    tag_310:\n        /* \"#utility.yul\":5418:5474   */\n    tag_309:\n        /* \"#utility.yul\":5492:5521   */\n      tag_311\n        /* \"#utility.yul\":5514:5520   */\n      dup3\n        /* \"#utility.yul\":5492:5521   */\n      tag_196\n      jump\t// in\n    tag_311:\n        /* \"#utility.yul\":5484:5521   */\n      swap1\n      pop\n        /* \"#utility.yul\":5576:5580   */\n      0x20\n        /* \"#utility.yul\":5570:5574   */\n      dup2\n        /* \"#utility.yul\":5566:5581   */\n      add\n        /* \"#utility.yul\":5558:5581   */\n      swap1\n      pop\n        /* \"#utility.yul\":5280:5588   */\n      swap2\n      swap1\n      pop\n      jump\t// out\n        /* \"#utility.yul\":5594:5740   */\n    tag_210:\n        /* \"#utility.yul\":5691:5697   */\n      dup3\n        /* \"#utility.yul\":5686:5689   */\n      dup2\n        /* \"#utility.yul\":5681:5684   */\n      dup4\n        /* \"#utility.yul\":5668:5698   */\n      calldatacopy\n        /* \"#utility.yul\":5732:5733   */\n      0x00\n        /* \"#utility.yul\":5723:5729   */\n      dup4\n        /* \"#utility.yul\":5718:5721   */\n      dup4\n        /* \"#utility.yul\":5714:5730   */\n      add\n        /* \"#utility.yul\":5707:5734   */\n      mstore\n        /* \"#utility.yul\":5594:5740   */\n      pop\n      pop\n      pop\n      jump\t// out\n        /* \"#utility.yul\":5746:6171   */\n    tag_211:\n        /* \"#utility.yul\":5824:5829   */\n      0x00\n        /* \"#utility.yul\":5849:5915   */\n      tag_314\n        /* \"#utility.yul\":5865:5914   */\n      tag_315\n        /* \"#utility.yul\":5907:5913   */\n      dup5\n        /* \"#utility.yul\":5865:5914   */\n      tag_209\n      jump\t// in\n    tag_315:\n        /* \"#utility.yul\":5849:5915   */\n      tag_208\n      jump\t// in\n    tag_314:\n        /* \"#utility.yul\":5840:5915   */\n      swap1\n      pop\n        /* \"#utility.yul\":5938:5944   */\n      dup3\n        /* \"#utility.yul\":5931:5936   */\n      dup2\n        /* \"#utility.yul\":5924:5945   */\n      mstore\n        /* \"#utility.yul\":5976:5980   */\n      0x20\n        /* \"#utility.yul\":5969:5974   */\n      dup2\n        /* \"#utility.yul\":5965:5981   */\n      add\n        /* \"#utility.yul\":6014:6017   */\n      dup5\n        /* \"#utility.yul\":6005:6011   */\n      dup5\n        /* \"#utility.yul\":6000:6003   */\n      dup5\n        /* \"#utility.yul\":5996:6012   */\n      add\n        /* \"#utility.yul\":5993:6018   */\n      gt\n        /* \"#utility.yul\":5990:6102   */\n      iszero\n      tag_316\n      jumpi\n        /* \"#utility.yul\":6021:6100   */\n      tag_317\n      tag_205\n      jump\t// in\n    tag_317:\n        /* \"#utility.yul\":5990:6102   */\n    tag_316:\n        /* \"#utility.yul\":6111:6165   */\n      tag_318\n        /* \"#utility.yul\":6158:6164   */\n      dup5\n        /* \"#utility.yul\":6153:6156   */\n      dup3\n        /* \"#utility.yul\":6148:6151   */\n      dup6\n        /* \"#utility.yul\":6111:6165   */\n      tag_210\n      jump\t// in\n    tag_318:\n        /* \"#utility.yul\":5830:6171   */\n      pop\n        /* \"#utility.yul\":5746:6171   */\n      swap4\n      swap3\n      pop\n      pop\n      pop\n      jump\t// out\n        /* \"#utility.yul\":6191:6531   */\n    tag_212:\n        /* \"#utility.yul\":6247:6252   */\n      0x00\n        /* \"#utility.yul\":6296:6299   */\n      dup3\n        /* \"#utility.yul\":6289:6293   */\n      0x1f\n        /* \"#utility.yul\":6281:6287   */\n      dup4\n        /* \"#utility.yul\":6277:6294   */\n      add\n        /* \"#utility.yul\":6273:6300   */\n      slt\n        /* \"#utility.yul\":6263:6385   */\n      tag_320\n      jumpi\n        /* \"#utility.yul\":6304:6383   */\n      tag_321\n      tag_204\n      jump\t// in\n    tag_321:\n        /* \"#utility.yul\":6263:6385   */\n    tag_320:\n        /* \"#utility.yul\":6421:6427   */\n      dup2\n        /* \"#utility.yul\":6408:6428   */\n      calldataload\n        /* \"#utility.yul\":6446:6525   */\n      tag_322\n        /* \"#utility.yul\":6521:6524   */\n      dup5\n        /* \"#utility.yul\":6513:6519   */\n      dup3\n        /* \"#utility.yul\":6506:6510   */\n      0x20\n        /* \"#utility.yul\":6498:6504   */\n      dup7\n        /* \"#utility.yul\":6494:6511   */\n      add\n        /* \"#utility.yul\":6446:6525   */\n      tag_211\n      jump\t// in\n    tag_322:\n        /* \"#utility.yul\":6437:6525   */\n      swap2\n      pop\n        /* \"#utility.yul\":6253:6531   */\n      pop\n        /* \"#utility.yul\":6191:6531   */\n      swap3\n      swap2\n      pop\n      pop\n      jump\t// out\n        /* \"#utility.yul\":6537:7046   */\n    tag_30:\n        /* \"#utility.yul\":6606:6612   */\n      0x00\n        /* \"#utility.yul\":6655:6657   */\n      0x20\n        /* \"#utility.yul\":6643:6652   */\n      dup3\n        /* \"#utility.yul\":6634:6641   */\n      dup5\n        /* \"#utility.yul\":6630:6653   */\n      sub\n        /* \"#utility.yul\":6626:6658   */\n      slt\n        /* \"#utility.yul\":6623:6742   */\n      iszero\n      tag_324\n      jumpi\n        /* \"#utility.yul\":6661:6740   */\n      tag_325\n      tag_188\n      jump\t// in\n    tag_325:\n        /* \"#utility.yul\":6623:6742   */\n    tag_324:\n        /* \"#utility.yul\":6809:6810   */\n      0x00\n        /* \"#utility.yul\":6798:6807   */\n      dup3\n        /* \"#utility.yul\":6794:6811   */\n      add\n        /* \"#utility.yul\":6781:6812   */\n      calldataload\n        /* \"#utility.yul\":6839:6857   */\n      0xffffffffffffffff\n        /* \"#utility.yul\":6831:6837   */\n      dup2\n        /* \"#utility.yul\":6828:6858   */\n      gt\n        /* \"#utility.yul\":6825:6942   */\n      iszero\n      tag_326\n      jumpi\n        /* \"#utility.yul\":6861:6940   */\n      tag_327\n      tag_189\n      jump\t// in\n    tag_327:\n        /* \"#utility.yul\":6825:6942   */\n    tag_326:\n        /* \"#utility.yul\":6966:7029   */\n      tag_328\n        /* \"#utility.yul\":7021:7028   */\n      dup5\n        /* \"#utility.yul\":7012:7018   */\n      dup3\n        /* \"#utility.yul\":7001:7010   */\n      dup6\n        /* \"#utility.yul\":6997:7019   */\n      add\n        /* \"#utility.yul\":6966:7029   */\n      tag_212\n      jump\t// in\n    tag_328:\n        /* \"#utility.yul\":6956:7029   */\n      swap2\n      pop\n        /* \"#utility.yul\":6752:7039   */\n      pop\n        /* \"#utility.yul\":6537:7046   */\n      swap3\n      swap2\n      pop\n      pop\n      jump\t// out\n        /* \"#utility.yul\":7052:7365   */\n    tag_33:\n        /* \"#utility.yul\":7165:7169   */\n      0x00\n        /* \"#utility.yul\":7203:7205   */\n      0x20\n        /* \"#utility.yul\":7192:7201   */\n      dup3\n        /* \"#utility.yul\":7188:7206   */\n      add\n        /* \"#utility.yul\":7180:7206   */\n      swap1\n      pop\n        /* \"#utility.yul\":7252:7261   */\n      dup2\n        /* \"#utility.yul\":7246:7250   */\n      dup2\n        /* \"#utility.yul\":7242:7262   */\n      sub\n        /* \"#utility.yul\":7238:7239   */\n      0x00\n        /* \"#utility.yul\":7227:7236   */\n      dup4\n        /* \"#utility.yul\":7223:7240   */\n      add\n        /* \"#utility.yul\":7216:7263   */\n      mstore\n        /* \"#utility.yul\":7280:7358   */\n      tag_330\n        /* \"#utility.yul\":7353:7357   */\n      dup2\n        /* \"#utility.yul\":7344:7350   */\n      dup5\n        /* \"#utility.yul\":7280:7358   */\n      tag_197\n      jump\t// in\n    tag_330:\n        /* \"#utility.yul\":7272:7358   */\n      swap1\n      pop\n        /* \"#utility.yul\":7052:7365   */\n      swap3\n      swap2\n      pop\n      pop\n      jump\t// out\n        /* \"#utility.yul\":7371:7551   */\n    tag_213:\n        /* \"#utility.yul\":7419:7496   */\n      0x4e487b7100000000000000000000000000000000000000000000000000000000\n        /* \"#utility.yul\":7416:7417   */\n      0x00\n        /* \"#utility.yul\":7409:7497   */\n      mstore\n        /* \"#utility.yul\":7516:7520   */\n      0x22\n        /* \"#utility.yul\":7513:7514   */\n      0x04\n        /* \"#utility.yul\":7506:7521   */\n      mstore\n        /* \"#utility.yul\":7540:7544   */\n      0x24\n        /* \"#utility.yul\":7537:7538   */\n      0x00\n        /* \"#utility.yul\":7530:7545   */\n      revert\n        /* \"#utility.yul\":7557:7877   */\n    tag_45:\n        /* \"#utility.yul\":7601:7607   */\n      0x00\n        /* \"#utility.yul\":7638:7639   */\n      0x02\n        /* \"#utility.yul\":7632:7636   */\n      dup3\n        /* \"#utility.yul\":7628:7640   */\n      div\n        /* \"#utility.yul\":7618:7640   */\n      swap1\n      pop\n        /* \"#utility.yul\":7685:7686   */\n      0x01\n        /* \"#utility.yul\":7679:7683   */\n      dup3\n        /* \"#utility.yul\":7675:7687   */\n      and\n        /* \"#utility.yul\":7706:7724   */\n      dup1\n        /* \"#utility.yul\":7696:7777   */\n      tag_333\n      jumpi\n        /* \"#utility.yul\":7762:7766   */\n      0x7f\n        /* \"#utility.yul\":7754:7760   */\n      dup3\n        /* \"#utility.yul\":7750:7767   */\n      and\n        /* \"#utility.yul\":7740:7767   */\n      swap2\n      pop\n        /* \"#utility.yul\":7696:7777   */\n    tag_333:\n        /* \"#utility.yul\":7824:7826   */\n      0x20\n        /* \"#utility.yul\":7816:7822   */\n      dup3\n        /* \"#utility.yul\":7813:7827   */\n      lt\n        /* \"#utility.yul\":7793:7811   */\n      dup2\n        /* \"#utility.yul\":7790:7828   */\n      sub\n        /* \"#utility.yul\":7787:7871   */\n      tag_334\n      jumpi\n        /* \"#utility.yul\":7843:7861   */\n      tag_335\n      tag_213\n      jump\t// in\n    tag_335:\n        /* \"#utility.yul\":7787:7871   */\n    tag_334:\n        /* \"#utility.yul\":7608:7877   */\n      pop\n        /* \"#utility.yul\":7557:7877   */\n      swap2\n      swap1\n      pop\n      jump\t// out\n        /* \"#utility.yul\":7883:8024   */\n    tag_214:\n        /* \"#utility.yul\":7932:7936   */\n      0x00\n        /* \"#utility.yul\":7955:7958   */\n      dup2\n        /* \"#utility.yul\":7947:7958   */\n      swap1\n      pop\n        /* \"#utility.yul\":7978:7981   */\n      dup2\n        /* \"#utility.yul\":7975:7976   */\n      0x00\n        /* \"#utility.yul\":7968:7982   */\n      mstore\n        /* \"#utility.yul\":8012:8016   */\n      0x20\n        /* \"#utility.yul\":8009:8010   */\n      0x00\n        /* \"#utility.yul\":7999:8017   */\n      keccak256\n        /* \"#utility.yul\":7991:8017   */\n      swap1\n      pop\n        /* \"#utility.yul\":7883:8024   */\n      swap2\n      swap1\n      pop\n      jump\t// out\n        /* \"#utility.yul\":8030:8123   */\n    tag_215:\n        /* \"#utility.yul\":8067:8073   */\n      0x00\n        /* \"#utility.yul\":8114:8116   */\n      0x20\n        /* \"#utility.yul\":8109:8111   */\n      0x1f\n        /* \"#utility.yul\":8102:8107   */\n      dup4\n        /* \"#utility.yul\":8098:8112   */\n      add\n        /* \"#utility.yul\":8094:8117   */\n      div\n        /* \"#utility.yul\":8084:8117   */\n      swap1\n      pop\n        /* \"#utility.yul\":8030:8123   */\n      swap2\n      swap1\n      pop\n      jump\t// out\n        /* \"#utility.yul\":8129:8236   */\n    tag_216:\n        /* \"#utility.yul\":8173:8181   */\n      0x00\n        /* \"#utility.yul\":8223:8228   */\n      dup3\n        /* \"#utility.yul\":8217:8221   */\n      dup3\n        /* \"#utility.yul\":8213:8229   */\n      shl\n        /* \"#utility.yul\":8192:8229   */\n      swap1\n      pop\n        /* \"#utility.yul\":8129:8236   */\n      swap3\n      swap2\n      pop\n      pop\n      jump\t// out\n        /* \"#utility.yul\":8242:8635   */\n    tag_217:\n        /* \"#utility.yul\":8311:8317   */\n      0x00\n        /* \"#utility.yul\":8361:8362   */\n      0x08\n        /* \"#utility.yul\":8349:8359   */\n      dup4\n        /* \"#utility.yul\":8345:8363   */\n      mul\n        /* \"#utility.yul\":8384:8481   */\n      tag_340\n        /* \"#utility.yul\":8414:8480   */\n      0xffffffffffffffffffffffffffffffffffffffffffffffffffffffffffffffff\n        /* \"#utility.yul\":8403:8412   */\n      dup3\n        /* \"#utility.yul\":8384:8481   */\n      tag_216\n      jump\t// in\n    tag_340:\n        /* \"#utility.yul\":8502:8541   */\n      tag_341\n        /* \"#utility.yul\":8532:8540   */\n      dup7\n        /* \"#utility.yul\":8521:8530   */\n      dup4\n        /* \"#utility.yul\":8502:8541   */\n      tag_216\n      jump\t// in\n    tag_341:\n        /* \"#utility.yul\":8490:8541   */\n      swap6\n      pop\n        /* \"#utility.yul\":8574:8578   */\n      dup1\n        /* \"#utility.yul\":8570:8579   */\n      not\n        /* \"#utility.yul\":8563:8568   */\n      dup5\n        /* \"#utility.yul\":8559:8580   */\n      and\n        /* \"#utility.yul\":8550:8580   */\n      swap4\n      pop\n        /* \"#utility.yul\":8623:8627   */\n      dup1\n        /* \"#utility.yul\":8613:8621   */\n      dup7\n        /* \"#utility.yul\":8609:8628   */\n      and\n        /* \"#utility.yul\":8602:8607   */\n      dup5\n        /* \"#utility.yul\":8599:8629   */\n      or\n        /* \"#utility.yul\":8589:8629   */\n      swap3\n      pop\n        /* \"#utility.yul\":8318:8635   */\n      pop\n      pop\n        /* \"#utility.yul\":8242:8635   */\n      swap4\n      swap3\n      pop\n      pop\n      pop\n      jump\t// out\n        /* \"#utility.yul\":8641:8701   */\n    tag_218:\n        /* \"#utility.yul\":8669:8672   */\n      0x00\n        /* \"#utility.yul\":8690:8695   */\n      dup2\n        /* \"#utility.yul\":8683:8695   */\n      swap1\n      pop\n        /* \"#utility.yul\":8641:8701   */\n      swap2\n      swap1\n      pop\n      jump\t// out\n        /* \"#utility.yul\":8707:8849   */\n    tag_219:\n        /* \"#utility.yul\":8757:8766   */\n      0x00\n        /* \"#utility.yul\":8790:8843   */\n      tag_344\n        /* \"#utility.yul\":8808:8842   */\n      tag_345\n        /* \"#utility.yul\":8817:8841   */\n      tag_346\n        /* \"#utility.yul\":8835:8840   */\n      dup5\n        /* \"#utility.yul\":8817:8841   */\n      tag_190\n      jump\t// in\n    tag_346:\n        /* \"#utility.yul\":8808:8842   */\n      tag_218\n      jump\t// in\n    tag_345:\n        /* \"#utility.yul\":8790:8843   */\n      tag_190\n      jump\t// in\n    tag_344:\n        /* \"#utility.yul\":8777:8843   */\n      swap1\n      pop\n        /* \"#utility.yul\":8707:8849   */\n      swap2\n      swap1\n      pop\n      jump\t// out\n        /* \"#utility.yul\":8855:8930   */\n    tag_220:\n        /* \"#utility.yul\":8898:8901   */\n      0x00\n        /* \"#utility.yul\":8919:8924   */\n      dup2\n        /* \"#utility.yul\":8912:8924   */\n      swap1\n      pop\n        /* \"#utility.yul\":8855:8930   */\n      swap2\n      swap1\n      pop\n      jump\t// out\n        /* \"#utility.yul\":8936:9205   */\n    tag_221:\n        /* \"#utility.yul\":9046:9085   */\n      tag_349\n        /* \"#utility.yul\":9077:9084   */\n      dup4\n        /* \"#utility.yul\":9046:9085   */\n      tag_219\n      jump\t// in\n    tag_349:\n        /* \"#utility.yul\":9107:9198   */\n      tag_350\n        /* \"#utility.yul\":9156:9197   */\n      tag_351\n        /* \"#utility.yul\":9180:9196   */\n      dup3\n        /* \"#utility.yul\":9156:9197   */\n      tag_220\n      jump\t// in\n    tag_351:\n        /* \"#utility.yul\":9148:9154   */\n      dup5\n        /* \"#utility.yul\":9141:9145   */\n      dup5\n        /* \"#utility.yul\":9135:9146   */\n      sload\n        /* \"#utility.yul\":9107:9198   */\n      tag_217\n      jump\t// in\n    tag_350:\n        /* \"#utility.yul\":9101:9105   */\n      dup3\n        /* \"#utility.yul\":9094:9199   */\n      sstore\n        /* \"#utility.yul\":9012:9205   */\n      pop\n        /* \"#utility.yul\":8936:9205   */\n      pop\n      pop\n      pop\n      jump\t// out\n        /* \"#utility.yul\":9211:9284   */\n    tag_222:\n        /* \"#utility.yul\":9256:9259   */\n      0x00\n        /* \"#utility.yul\":9211:9284   */\n      swap1\n      jump\t// out\n        /* \"#utility.yul\":9290:9479   */\n    tag_223:\n        /* \"#utility.yul\":9367:9399   */\n      tag_354\n      tag_222\n      jump\t// in\n    tag_354:\n        /* \"#utility.yul\":9408:9473   */\n      tag_355\n        /* \"#utility.yul\":9466:9472   */\n      dup2\n        /* \"#utility.yul\":9458:9464   */\n      dup5\n        /* \"#utility.yul\":9452:9456   */\n      dup5\n        /* \"#utility.yul\":9408:9473   */\n      tag_221\n      jump\t// in\n    tag_355:\n        /* \"#utility.yul\":9343:9479   */\n      pop\n        /* \"#utility.yul\":9290:9479   */\n      pop\n      pop\n      jump\t// out\n        /* \"#utility.yul\":9485:9671   */\n    tag_224:\n        /* \"#utility.yul\":9545:9665   */\n    tag_357:\n        /* \"#utility.yul\":9562:9565   */\n      dup2\n        /* \"#utility.yul\":9555:9560   */\n      dup2\n        /* \"#utility.yul\":9552:9566   */\n      lt\n        /* \"#utility.yul\":9545:9665   */\n      iszero\n      tag_359\n      jumpi\n        /* \"#utility.yul\":9616:9655   */\n      tag_360\n        /* \"#utility.yul\":9653:9654   */\n      0x00\n        /* \"#utility.yul\":9646:9651   */\n      dup3\n        /* \"#utility.yul\":9616:9655   */\n      tag_223\n      jump\t// in\n    tag_360:\n        /* \"#utility.yul\":9589:9590   */\n      0x01\n        /* \"#utility.yul\":9582:9587   */\n      dup2\n        /* \"#utility.yul\":9578:9591   */\n      add\n        /* \"#utility.yul\":9569:9591   */\n      swap1\n      pop\n        /* \"#utility.yul\":9545:9665   */\n      jump(tag_357)\n    tag_359:\n        /* \"#utility.yul\":9485:9671   */\n      pop\n      pop\n      jump\t// out\n        /* \"#utility.yul\":9677:10220   */\n    tag_225:\n        /* \"#utility.yul\":9778:9780   */\n      0x1f\n        /* \"#utility.yul\":9773:9776   */\n      dup3\n        /* \"#utility.yul\":9770:9781   */\n      gt\n        /* \"#utility.yul\":9767:10213   */\n      iszero\n      tag_362\n      jumpi\n        /* \"#utility.yul\":9812:9850   */\n      tag_363\n        /* \"#utility.yul\":9844:9849   */\n      dup2\n        /* \"#utility.yul\":9812:9850   */\n      tag_214\n      jump\t// in\n    tag_363:\n        /* \"#utility.yul\":9896:9925   */\n      tag_364\n        /* \"#utility.yul\":9914:9924   */\n      dup5\n        /* \"#utility.yul\":9896:9925   */\n      tag_215\n      jump\t// in\n    tag_364:\n        /* \"#utility.yul\":9886:9894   */\n      dup2\n        /* \"#utility.yul\":9882:9926   */\n      add\n        /* \"#utility.yul\":10079:10081   */\n      0x20\n        /* \"#utility.yul\":10067:10077   */\n      dup6\n        /* \"#utility.yul\":10064:10082   */\n      lt\n        /* \"#utility.yul\":10061:10110   */\n      iszero\n      tag_365\n      jumpi\n        /* \"#utility.yul\":10100:10108   */\n      dup2\n        /* \"#utility.yul\":10085:10108   */\n      swap1\n      pop\n        /* \"#utility.yul\":10061:10110   */\n    tag_365:\n        /* \"#utility.yul\":10123:10203   */\n      tag_366\n        /* \"#utility.yul\":10179:10201   */\n      tag_367\n        /* \"#utility.yul\":10197:10200   */\n      dup6\n        /* \"#utility.yul\":10179:10201   */\n      tag_215\n      jump\t// in\n    tag_367:\n        /* \"#utility.yul\":10169:10177   */\n      dup4\n        /* \"#utility.yul\":10165:10202   */\n      add\n        /* \"#utility.yul\":10152:10163   */\n      dup3\n        /* \"#utility.yul\":10123:10203   */\n      tag_224\n      jump\t// in\n    tag_366:\n        /* \"#utility.yul\":9782:10213   */\n      pop\n      pop\n        /* \"#utility.yul\":9767:10213   */\n    tag_362:\n        /* \"#utility.yul\":9677:10220   */\n      pop\n      pop\n      pop\n      jump\t// out\n        /* \"#utility.yul\":10226:10343   */\n    tag_226:\n        /* \"#utility.yul\":10280:10288   */\n      0x00\n        /* \"#utility.yul\":10330:10335   */\n      dup3\n        /* \"#utility.yul\":10324:10328   */\n      dup3\n        /* \"#utility.yul\":10320:10336   */\n      shr\n        /* \"#utility.yul\":10299:10336   */\n      swap1\n      pop\n        /* \"#utility.yul\":10226:10343   */\n      swap3\n      swap2\n      pop\n      pop\n      jump\t// out\n        /* \"#utility.yul\":10349:10518   */\n    tag_227:\n        /* \"#utility.yul\":10393:10399   */\n      0x00\n        /* \"#utility.yul\":10426:10477   */\n      tag_370\n        /* \"#utility.yul\":10474:10475   */\n      0x00\n        /* \"#utility.yul\":10470:10476   */\n      not\n        /* \"#utility.yul\":10462:10467   */\n      dup5\n        /* \"#utility.yul\":10459:10460   */\n      0x08\n        /* \"#utility.yul\":10455:10468   */\n      mul\n        /* \"#utility.yul\":10426:10477   */\n      tag_226\n      jump\t// in\n    tag_370:\n        /* \"#utility.yul\":10422:10478   */\n      not\n        /* \"#utility.yul\":10507:10511   */\n      dup1\n        /* \"#utility.yul\":10501:10505   */\n      dup4\n        /* \"#utility.yul\":10497:10512   */\n      and\n        /* \"#utility.yul\":10487:10512   */\n      swap2\n      pop\n        /* \"#utility.yul\":10400:10518   */\n      pop\n        /* \"#utility.yul\":10349:10518   */\n      swap3\n      swap2\n      pop\n      pop\n      jump\t// out\n        /* \"#utility.yul\":10523:10818   */\n    tag_228:\n        /* \"#utility.yul\":10599:10603   */\n      0x00\n        /* \"#utility.yul\":10745:10774   */\n      tag_372\n        /* \"#utility.yul\":10770:10773   */\n      dup4\n        /* \"#utility.yul\":10764:10768   */\n      dup4\n        /* \"#utility.yul\":10745:10774   */\n      tag_227\n      jump\t// in\n    tag_372:\n        /* \"#utility.yul\":10737:10774   */\n      swap2\n      pop\n        /* \"#utility.yul\":10807:10810   */\n      dup3\n        /* \"#utility.yul\":10804:10805   */\n      0x02\n        /* \"#utility.yul\":10800:10811   */\n      mul\n        /* \"#utility.yul\":10794:10798   */\n      dup3\n        /* \"#utility.yul\":10791:10812   */\n      or\n        /* \"#utility.yul\":10783:10812   */\n      swap1\n      pop\n        /* \"#utility.yul\":10523:10818   */\n      swap3\n      swap2\n      pop\n      pop\n      jump\t// out\n        /* \"#utility.yul\":10823:12218   */\n    tag_69:\n        /* \"#utility.yul\":10940:10977   */\n      tag_374\n        /* \"#utility.yul\":10973:10976   */\n      dup3\n        /* \"#utility.yul\":10940:10977   */\n      tag_193\n      jump\t// in\n    tag_374:\n        /* \"#utility.yul\":11042:11060   */\n      0xffffffffffffffff\n        /* \"#utility.yul\":11034:11040   */\n      dup2\n        /* \"#utility.yul\":11031:11061   */\n      gt\n        /* \"#utility.yul\":11028:11084   */\n      iszero\n      tag_375\n      jumpi\n        /* \"#utility.yul\":11064:11082   */\n      tag_376\n      tag_206\n      jump\t// in\n    tag_376:\n        /* \"#utility.yul\":11028:11084   */\n    tag_375:\n        /* \"#utility.yul\":11108:11146   */\n      tag_377\n        /* \"#utility.yul\":11140:11144   */\n      dup3\n        /* \"#utility.yul\":11134:11145   */\n      sload\n        /* \"#utility.yul\":11108:11146   */\n      tag_45\n      jump\t// in\n    tag_377:\n        /* \"#utility.yul\":11193:11260   */\n      tag_378\n        /* \"#utility.yul\":11253:11259   */\n      dup3\n        /* \"#utility.yul\":11245:11251   */\n      dup3\n        /* \"#utility.yul\":11239:11243   */\n      dup6\n        /* \"#utility.yul\":11193:11260   */\n      tag_225\n      jump\t// in\n    tag_378:\n        /* \"#utility.yul\":11287:11288   */\n      0x00\n        /* \"#utility.yul\":11311:11315   */\n      0x20\n        /* \"#utility.yul\":11298:11315   */\n      swap1\n      pop\n        /* \"#utility.yul\":11343:11345   */\n      0x1f\n        /* \"#utility.yul\":11335:11341   */\n      dup4\n        /* \"#utility.yul\":11332:11346   */\n      gt\n        /* \"#utility.yul\":11360:11361   */\n      0x01\n        /* \"#utility.yul\":11355:11973   */\n      dup2\n      eq\n      tag_380\n      jumpi\n        /* \"#utility.yul\":12017:12018   */\n      0x00\n        /* \"#utility.yul\":12034:12040   */\n      dup5\n        /* \"#utility.yul\":12031:12108   */\n      iszero\n      tag_381\n      jumpi\n        /* \"#utility.yul\":12083:12092   */\n      dup3\n        /* \"#utility.yul\":12078:12081   */\n      dup8\n        /* \"#utility.yul\":12074:12093   */\n      add\n        /* \"#utility.yul\":12068:12094   */\n      mload\n        /* \"#utility.yul\":12059:12094   */\n      swap1\n      pop\n        /* \"#utility.yul\":12031:12108   */\n    tag_381:\n        /* \"#utility.yul\":12134:12201   */\n      tag_382\n        /* \"#utility.yul\":12194:12200   */\n      dup6\n        /* \"#utility.yul\":12187:12192   */\n      dup3\n        /* \"#utility.yul\":12134:12201   */\n      tag_228\n      jump\t// in\n    tag_382:\n        /* \"#utility.yul\":12128:12132   */\n      dup7\n        /* \"#utility.yul\":12121:12202   */\n      sstore\n        /* \"#utility.yul\":11990:12212   */\n      pop\n        /* \"#utility.yul\":11325:12212   */\n      jump(tag_379)\n        /* \"#utility.yul\":11355:11973   */\n    tag_380:\n        /* \"#utility.yul\":11407:11411   */\n      0x1f\n        /* \"#utility.yul\":11403:11412   */\n      not\n        /* \"#utility.yul\":11395:11401   */\n      dup5\n        /* \"#utility.yul\":11391:11413   */\n      and\n        /* \"#utility.yul\":11441:11478   */\n      tag_383\n        /* \"#utility.yul\":11473:11477   */\n      dup7\n        /* \"#utility.yul\":11441:11478   */\n      tag_214\n      jump\t// in\n    tag_383:\n        /* \"#utility.yul\":11500:11501   */\n      0x00\n        /* \"#utility.yul\":11514:11722   */\n    tag_384:\n        /* \"#utility.yul\":11528:11535   */\n      dup3\n        /* \"#utility.yul\":11525:11526   */\n      dup2\n        /* \"#utility.yul\":11522:11536   */\n      lt\n        /* \"#utility.yul\":11514:11722   */\n      iszero\n      tag_386\n      jumpi\n        /* \"#utility.yul\":11607:11616   */\n      dup5\n        /* \"#utility.yul\":11602:11605   */\n      dup10\n        /* \"#utility.yul\":11598:11617   */\n      add\n        /* \"#utility.yul\":11592:11618   */\n      mload\n        /* \"#utility.yul\":11584:11590   */\n      dup3\n        /* \"#utility.yul\":11577:11619   */\n      sstore\n        /* \"#utility.yul\":11658:11659   */\n      0x01\n        /* \"#utility.yul\":11650:11656   */\n      dup3\n        /* \"#utility.yul\":11646:11660   */\n      add\n        /* \"#utility.yul\":11636:11660   */\n      swap2\n      pop\n        /* \"#utility.yul\":11705:11707   */\n      0x20\n        /* \"#utility.yul\":11694:11703   */\n      dup6\n        /* \"#utility.yul\":11690:11708   */\n      add\n        /* \"#utility.yul\":11677:11708   */\n      swap5\n      pop\n        /* \"#utility.yul\":11551:11555   */\n      0x20\n        /* \"#utility.yul\":11548:11549   */\n      dup2\n        /* \"#utility.yul\":11544:11556   */\n      add\n        /* \"#utility.yul\":11539:11556   */\n      swap1\n      pop\n        /* \"#utility.yul\":11514:11722   */\n      jump(tag_384)\n    tag_386:\n        /* \"#utility.yul\":11750:11756   */\n      dup7\n        /* \"#utility.yul\":11741:11748   */\n      dup4\n        /* \"#utility.yul\":11738:11757   */\n      lt\n        /* \"#utility.yul\":11735:11914   */\n      iszero\n      tag_387\n      jumpi\n        /* \"#utility.yul\":11808:11817   */\n      dup5\n        /* \"#utility.yul\":11803:11806   */\n      dup10\n        /* \"#utility.yul\":11799:11818   */\n      add\n        /* \"#utility.yul\":11793:11819   */\n      mload\n        /* \"#utility.yul\":11851:11899   */\n      tag_388\n        /* \"#utility.yul\":11893:11897   */\n      0x1f\n        /* \"#utility.yul\":11885:11891   */\n      dup10\n        /* \"#utility.yul\":11881:11898   */\n      and\n        /* \"#utility.yul\":11870:11879   */\n      dup3\n        /* \"#utility.yul\":11851:11899   */\n      tag_227\n      jump\t// in\n    tag_388:\n        /* \"#utility.yul\":11843:11849   */\n      dup4\n        /* \"#utility.yul\":11836:11900   */\n      sstore\n        /* \"#utility.yul\":11758:11914   */\n      pop\n        /* \"#utility.yul\":11735:11914   */\n    tag_387:\n        /* \"#utility.yul\":11960:11961   */\n      0x01\n        /* \"#utility.yul\":11956:11957   */\n      0x02\n        /* \"#utility.yul\":11948:11954   */\n      dup9\n        /* \"#utility.yul\":11944:11958   */\n      mul\n        /* \"#utility.yul\":11940:11962   */\n      add\n        /* \"#utility.yul\":11934:11938   */\n      dup9\n        /* \"#utility.yul\":11927:11963   */\n      sstore\n        /* \"#utility.yul\":11362:11973   */\n      pop\n      pop\n      pop\n        /* \"#utility.yul\":11325:12212   */\n    tag_379:\n      pop\n        /* \"#utility.yul\":10915:12218   */\n      pop\n      pop\n      pop\n        /* \"#utility.yul\":10823:12218   */\n      pop\n      pop\n      jump\t// out\n        /* \"#utility.yul\":12224:12404   */\n    tag_229:\n        /* \"#utility.yul\":12272:12349   */\n      0x4e487b7100000000000000000000000000000000000000000000000000000000\n        /* \"#utility.yul\":12269:12270   */\n      0x00\n        /* \"#utility.yul\":12262:12350   */\n      mstore\n        /* \"#utility.yul\":12369:12373   */\n      0x11\n        /* \"#utility.yul\":12366:12367   */\n      0x04\n        /* \"#utility.yul\":12359:12374   */\n      mstore\n        /* \"#utility.yul\":12393:12397   */\n      0x24\n        /* \"#utility.yul\":12390:12391   */\n      0x00\n        /* \"#utility.yul\":12383:12398   */\n      revert\n        /* \"#utility.yul\":12410:12604   */\n    tag_73:\n        /* \"#utility.yul\":12450:12454   */\n      0x00\n        /* \"#utility.yul\":12470:12490   */\n      tag_391\n        /* \"#utility.yul\":12488:12489   */\n      dup3\n        /* \"#utility.yul\":12470:12490   */\n      tag_190\n      jump\t// in\n    tag_391:\n        /* \"#utility.yul\":12465:12490   */\n      swap2\n      pop\n        /* \"#utility.yul\":12504:12524   */\n      tag_392\n        /* \"#utility.yul\":12522:12523   */\n      dup4\n        /* \"#utility.yul\":12504:12524   */\n      tag_190\n      jump\t// in\n    tag_392:\n        /* \"#utility.yul\":12499:12524   */\n      swap3\n      pop\n        /* \"#utility.yul\":12548:12549   */\n      dup3\n        /* \"#utility.yul\":12545:12546   */\n      dup3\n        /* \"#utility.yul\":12541:12550   */\n      sub\n        /* \"#utility.yul\":12533:12550   */\n      swap1\n      pop\n        /* \"#utility.yul\":12572:12573   */\n      dup2\n        /* \"#utility.yul\":12566:12570   */\n      dup2\n        /* \"#utility.yul\":12563:12574   */\n      gt\n        /* \"#utility.yul\":12560:12597   */\n      iszero\n      tag_393\n      jumpi\n        /* \"#utility.yul\":12577:12595   */\n      tag_394\n      tag_229\n      jump\t// in\n    tag_394:\n        /* \"#utility.yul\":12560:12597   */\n    tag_393:\n        /* \"#utility.yul\":12410:12604   */\n      swap3\n      swap2\n      pop\n      pop\n      jump\t// out\n        /* \"#utility.yul\":12610:12843   */\n    tag_75:\n        /* \"#utility.yul\":12649:12652   */\n      0x00\n        /* \"#utility.yul\":12672:12696   */\n      tag_396\n        /* \"#utility.yul\":12690:12695   */\n      dup3\n        /* \"#utility.yul\":12672:12696   */\n      tag_190\n      jump\t// in\n    tag_396:\n        /* \"#utility.yul\":12663:12696   */\n      swap2\n      pop\n        /* \"#utility.yul\":12718:12784   */\n      0xffffffffffffffffffffffffffffffffffffffffffffffffffffffffffffffff\n        /* \"#utility.yul\":12711:12716   */\n      dup3\n        /* \"#utility.yul\":12708:12785   */\n      sub\n        /* \"#utility.yul\":12705:12808   */\n      tag_397\n      jumpi\n        /* \"#utility.yul\":12788:12806   */\n      tag_398\n      tag_229\n      jump\t// in\n    tag_398:\n        /* \"#utility.yul\":12705:12808   */\n    tag_397:\n        /* \"#utility.yul\":12835:12836   */\n      0x01\n        /* \"#utility.yul\":12828:12833   */\n      dup3\n        /* \"#utility.yul\":12824:12837   */\n      add\n        /* \"#utility.yul\":12817:12837   */\n      swap1\n      pop\n        /* \"#utility.yul\":12610:12843   */\n      swap2\n      swap1\n      pop\n      jump\t// out\n        /* \"#utility.yul\":12849:13074   */\n    tag_230:\n        /* \"#utility.yul\":12989:13023   */\n      0x4f776e61626c653a206e6577206f776e657220697320746865207a65726f2061\n        /* \"#utility.yul\":12985:12986   */\n      0x00\n        /* \"#utility.yul\":12977:12983   */\n      dup3\n        /* \"#utility.yul\":12973:12987   */\n      add\n        /* \"#utility.yul\":12966:13024   */\n      mstore\n        /* \"#utility.yul\":13058:13066   */\n      0x6464726573730000000000000000000000000000000000000000000000000000\n        /* \"#utility.yul\":13053:13055   */\n      0x20\n        /* \"#utility.yul\":13045:13051   */\n      dup3\n        /* \"#utility.yul\":13041:13056   */\n      add\n        /* \"#utility.yul\":13034:13067   */\n      mstore\n        /* \"#utility.yul\":12849:13074   */\n      pop\n      jump\t// out\n        /* \"#utility.yul\":13080:13446   */\n    tag_231:\n        /* \"#utility.yul\":13222:13225   */\n      0x00\n        /* \"#utility.yul\":13243:13310   */\n      tag_401\n        /* \"#utility.yul\":13307:13309   */\n      0x26\n        /* \"#utility.yul\":13302:13305   */\n      dup4\n        /* \"#utility.yul\":13243:13310   */\n      tag_194\n      jump\t// in\n    tag_401:\n        /* \"#utility.yul\":13236:13310   */\n      swap2\n      pop\n        /* \"#utility.yul\":13319:13412   */\n      tag_402\n        /* \"#utility.yul\":13408:13411   */\n      dup3\n        /* \"#utility.yul\":13319:13412   */\n      tag_230\n      jump\t// in\n    tag_402:\n        /* \"#utility.yul\":13437:13439   */\n      0x40\n        /* \"#utility.yul\":13432:13435   */\n      dup3\n        /* \"#utility.yul\":13428:13440   */\n      add\n        /* \"#utility.yul\":13421:13440   */\n      swap1\n      pop\n        /* \"#utility.yul\":13080:13446   */\n      swap2\n      swap1\n      pop\n      jump\t// out\n        /* \"#utility.yul\":13452:13871   */\n    tag_89:\n        /* \"#utility.yul\":13618:13622   */\n      0x00\n        /* \"#utility.yul\":13656:13658   */\n      0x20\n        /* \"#utility.yul\":13645:13654   */\n      dup3\n        /* \"#utility.yul\":13641:13659   */\n      add\n        /* \"#utility.yul\":13633:13659   */\n      swap1\n      pop\n        /* \"#utility.yul\":13705:13714   */\n      dup2\n        /* \"#utility.yul\":13699:13703   */\n      dup2\n        /* \"#utility.yul\":13695:13715   */\n      sub\n        /* \"#utility.yul\":13691:13692   */\n      0x00\n        /* \"#utility.yul\":13680:13689   */\n      dup4\n        /* \"#utility.yul\":13676:13693   */\n      add\n        /* \"#utility.yul\":13669:13716   */\n      mstore\n        /* \"#utility.yul\":13733:13864   */\n      tag_404\n        /* \"#utility.yul\":13859:13863   */\n      dup2\n        /* \"#utility.yul\":13733:13864   */\n      tag_231\n      jump\t// in\n    tag_404:\n        /* \"#utility.yul\":13725:13864   */\n      swap1\n      pop\n        /* \"#utility.yul\":13452:13871   */\n      swap2\n      swap1\n      pop\n      jump\t// out\n        /* \"#utility.yul\":13877:14025   */\n    tag_232:\n        /* \"#utility.yul\":13979:13990   */\n      0x00\n        /* \"#utility.yul\":14016:14019   */\n      dup2\n        /* \"#utility.yul\":14001:14019   */\n      swap1\n      pop\n        /* \"#utility.yul\":13877:14025   */\n      swap3\n      swap2\n      pop\n      pop\n      jump\t// out\n        /* \"#utility.yul\":14031:14421   */\n    tag_233:\n        /* \"#utility.yul\":14137:14140   */\n      0x00\n        /* \"#utility.yul\":14165:14204   */\n      tag_407\n        /* \"#utility.yul\":14198:14203   */\n      dup3\n        /* \"#utility.yul\":14165:14204   */\n      tag_193\n      jump\t// in\n    tag_407:\n        /* \"#utility.yul\":14220:14309   */\n      tag_408\n        /* \"#utility.yul\":14302:14308   */\n      dup2\n        /* \"#utility.yul\":14297:14300   */\n      dup6\n        /* \"#utility.yul\":14220:14309   */\n      tag_232\n      jump\t// in\n    tag_408:\n        /* \"#utility.yul\":14213:14309   */\n      swap4\n      pop\n        /* \"#utility.yul\":14318:14383   */\n      tag_409\n        /* \"#utility.yul\":14376:14382   */\n      dup2\n        /* \"#utility.yul\":14371:14374   */\n      dup6\n        /* \"#utility.yul\":14364:14368   */\n      0x20\n        /* \"#utility.yul\":14357:14362   */\n      dup7\n        /* \"#utility.yul\":14353:14369   */\n      add\n        /* \"#utility.yul\":14318:14383   */\n      tag_195\n      jump\t// in\n    tag_409:\n        /* \"#utility.yul\":14408:14414   */\n      dup1\n        /* \"#utility.yul\":14403:14406   */\n      dup5\n        /* \"#utility.yul\":14399:14415   */\n      add\n        /* \"#utility.yul\":14392:14415   */\n      swap2\n      pop\n        /* \"#utility.yul\":14141:14421   */\n      pop\n        /* \"#utility.yul\":14031:14421   */\n      swap3\n      swap2\n      pop\n      pop\n      jump\t// out\n        /* \"#utility.yul\":14427:14702   */\n    tag_102:\n        /* \"#utility.yul\":14559:14562   */\n      0x00\n        /* \"#utility.yul\":14581:14676   */\n      tag_411\n        /* \"#utility.yul\":14672:14675   */\n      dup3\n        /* \"#utility.yul\":14663:14669   */\n      dup5\n        /* \"#utility.yul\":14581:14676   */\n      tag_233\n      jump\t// in\n    tag_411:\n        /* \"#utility.yul\":14574:14676   */\n      swap2\n      pop\n        /* \"#utility.yul\":14693:14696   */\n      dup2\n        /* \"#utility.yul\":14686:14696   */\n      swap1\n      pop\n        /* \"#utility.yul\":14427:14702   */\n      swap3\n      swap2\n      pop\n      pop\n      jump\t// out\n        /* \"#utility.yul\":14708:14869   */\n    tag_234:\n        /* \"#utility.yul\":14848:14861   */\n      0x596f75207069636b656420000000000000000000000000000000000000000000\n        /* \"#utility.yul\":14844:14845   */\n      0x00\n        /* \"#utility.yul\":14836:14842   */\n      dup3\n        /* \"#utility.yul\":14832:14846   */\n      add\n        /* \"#utility.yul\":14825:14862   */\n      mstore\n        /* \"#utility.yul\":14708:14869   */\n      pop\n      jump\t// out\n        /* \"#utility.yul\":14875:15277   */\n    tag_235:\n        /* \"#utility.yul\":15035:15038   */\n      0x00\n        /* \"#utility.yul\":15056:15141   */\n      tag_414\n        /* \"#utility.yul\":15138:15140   */\n      0x0b\n        /* \"#utility.yul\":15133:15136   */\n      dup4\n        /* \"#utility.yul\":15056:15141   */\n      tag_232\n      jump\t// in\n    tag_414:\n        /* \"#utility.yul\":15049:15141   */\n      swap2\n      pop\n        /* \"#utility.yul\":15150:15243   */\n      tag_415\n        /* \"#utility.yul\":15239:15242   */\n      dup3\n        /* \"#utility.yul\":15150:15243   */\n      tag_234\n      jump\t// in\n    tag_415:\n        /* \"#utility.yul\":15268:15270   */\n      0x0b\n        /* \"#utility.yul\":15263:15266   */\n      dup3\n        /* \"#utility.yul\":15259:15271   */\n      add\n        /* \"#utility.yul\":15252:15271   */\n      swap1\n      pop\n        /* \"#utility.yul\":14875:15277   */\n      swap2\n      swap1\n      pop\n      jump\t// out\n        /* \"#utility.yul\":15283:15458   */\n    tag_236:\n        /* \"#utility.yul\":15423:15450   */\n      0x20616e642074686520636f6d7075746572207069636b65642000000000000000\n        /* \"#utility.yul\":15419:15420   */\n      0x00\n        /* \"#utility.yul\":15411:15417   */\n      dup3\n        /* \"#utility.yul\":15407:15421   */\n      add\n        /* \"#utility.yul\":15400:15451   */\n      mstore\n        /* \"#utility.yul\":15283:15458   */\n      pop\n      jump\t// out\n        /* \"#utility.yul\":15464:15866   */\n    tag_237:\n        /* \"#utility.yul\":15624:15627   */\n      0x00\n        /* \"#utility.yul\":15645:15730   */\n      tag_418\n        /* \"#utility.yul\":15727:15729   */\n      0x19\n        /* \"#utility.yul\":15722:15725   */\n      dup4\n        /* \"#utility.yul\":15645:15730   */\n      tag_232\n      jump\t// in\n    tag_418:\n        /* \"#utility.yul\":15638:15730   */\n      swap2\n      pop\n        /* \"#utility.yul\":15739:15832   */\n      tag_419\n        /* \"#utility.yul\":15828:15831   */\n      dup3\n        /* \"#utility.yul\":15739:15832   */\n      tag_236\n      jump\t// in\n    tag_419:\n        /* \"#utility.yul\":15857:15859   */\n      0x19\n        /* \"#utility.yul\":15852:15855   */\n      dup3\n        /* \"#utility.yul\":15848:15860   */\n      add\n        /* \"#utility.yul\":15841:15860   */\n      swap1\n      pop\n        /* \"#utility.yul\":15464:15866   */\n      swap2\n      swap1\n      pop\n      jump\t// out\n        /* \"#utility.yul\":15872:16999   */\n    tag_171:\n        /* \"#utility.yul\":16302:16305   */\n      0x00\n        /* \"#utility.yul\":16324:16472   */\n      tag_421\n        /* \"#utility.yul\":16468:16471   */\n      dup3\n        /* \"#utility.yul\":16324:16472   */\n      tag_235\n      jump\t// in\n    tag_421:\n        /* \"#utility.yul\":16317:16472   */\n      swap2\n      pop\n        /* \"#utility.yul\":16489:16584   */\n      tag_422\n        /* \"#utility.yul\":16580:16583   */\n      dup3\n        /* \"#utility.yul\":16571:16577   */\n      dup7\n        /* \"#utility.yul\":16489:16584   */\n      tag_233\n      jump\t// in\n    tag_422:\n        /* \"#utility.yul\":16482:16584   */\n      swap2\n      pop\n        /* \"#utility.yul\":16601:16749   */\n      tag_423\n        /* \"#utility.yul\":16745:16748   */\n      dup3\n        /* \"#utility.yul\":16601:16749   */\n      tag_237\n      jump\t// in\n    tag_423:\n        /* \"#utility.yul\":16594:16749   */\n      swap2\n      pop\n        /* \"#utility.yul\":16766:16861   */\n      tag_424\n        /* \"#utility.yul\":16857:16860   */\n      dup3\n        /* \"#utility.yul\":16848:16854   */\n      dup6\n        /* \"#utility.yul\":16766:16861   */\n      tag_233\n      jump\t// in\n    tag_424:\n        /* \"#utility.yul\":16759:16861   */\n      swap2\n      pop\n        /* \"#utility.yul\":16878:16973   */\n      tag_425\n        /* \"#utility.yul\":16969:16972   */\n      dup3\n        /* \"#utility.yul\":16960:16966   */\n      dup5\n        /* \"#utility.yul\":16878:16973   */\n      tag_233\n      jump\t// in\n    tag_425:\n        /* \"#utility.yul\":16871:16973   */\n      swap2\n      pop\n        /* \"#utility.yul\":16990:16993   */\n      dup2\n        /* \"#utility.yul\":16983:16993   */\n      swap1\n      pop\n        /* \"#utility.yul\":15872:16999   */\n      swap5\n      swap4\n      pop\n      pop\n      pop\n      pop\n      jump\t// out\n        /* \"#utility.yul\":17005:17187   */\n    tag_238:\n        /* \"#utility.yul\":17145:17179   */\n      0x4f776e61626c653a2063616c6c6572206973206e6f7420746865206f776e6572\n        /* \"#utility.yul\":17141:17142   */\n      0x00\n        /* \"#utility.yul\":17133:17139   */\n      dup3\n        /* \"#utility.yul\":17129:17143   */\n      add\n        /* \"#utility.yul\":17122:17180   */\n      mstore\n        /* \"#utility.yul\":17005:17187   */\n      pop\n      jump\t// out\n        /* \"#utility.yul\":17193:17559   */\n    tag_239:\n        /* \"#utility.yul\":17335:17338   */\n      0x00\n        /* \"#utility.yul\":17356:17423   */\n      tag_428\n        /* \"#utility.yul\":17420:17422   */\n      0x20\n        /* \"#utility.yul\":17415:17418   */\n      dup4\n        /* \"#utility.yul\":17356:17423   */\n      tag_194\n      jump\t// in\n    tag_428:\n        /* \"#utility.yul\":17349:17423   */\n      swap2\n      pop\n        /* \"#utility.yul\":17432:17525   */\n      tag_429\n        /* \"#utility.yul\":17521:17524   */\n      dup3\n        /* \"#utility.yul\":17432:17525   */\n      tag_238\n      jump\t// in\n    tag_429:\n        /* \"#utility.yul\":17550:17552   */\n      0x20\n        /* \"#utility.yul\":17545:17548   */\n      dup3\n        /* \"#utility.yul\":17541:17553   */\n      add\n        /* \"#utility.yul\":17534:17553   */\n      swap1\n      pop\n        /* \"#utility.yul\":17193:17559   */\n      swap2\n      swap1\n      pop\n      jump\t// out\n        /* \"#utility.yul\":17565:17984   */\n    tag_178:\n        /* \"#utility.yul\":17731:17735   */\n      0x00\n        /* \"#utility.yul\":17769:17771   */\n      0x20\n        /* \"#utility.yul\":17758:17767   */\n      dup3\n        /* \"#utility.yul\":17754:17772   */\n      add\n        /* \"#utility.yul\":17746:17772   */\n      swap1\n      pop\n        /* \"#utility.yul\":17818:17827   */\n      dup2\n        /* \"#utility.yul\":17812:17816   */\n      dup2\n        /* \"#utility.yul\":17808:17828   */\n      sub\n        /* \"#utility.yul\":17804:17805   */\n      0x00\n        /* \"#utility.yul\":17793:17802   */\n      dup4\n        /* \"#utility.yul\":17789:17806   */\n      add\n        /* \"#utility.yul\":17782:17829   */\n      mstore\n        /* \"#utility.yul\":17846:17977   */\n      tag_431\n        /* \"#utility.yul\":17972:17976   */\n      dup2\n        /* \"#utility.yul\":17846:17977   */\n      tag_239\n      jump\t// in\n    tag_431:\n        /* \"#utility.yul\":17838:17977   */\n      swap1\n      pop\n        /* \"#utility.yul\":17565:17984   */\n      swap2\n      swap1\n      pop\n      jump\t// out\n        /* \"#utility.yul\":17990:18069   */\n    tag_240:\n        /* \"#utility.yul\":18029:18036   */\n      0x00\n        /* \"#utility.yul\":18058:18063   */\n      dup2\n        /* \"#utility.yul\":18047:18063   */\n      swap1\n      pop\n        /* \"#utility.yul\":17990:18069   */\n      swap2\n      swap1\n      pop\n      jump\t// out\n        /* \"#utility.yul\":18075:18232   */\n    tag_241:\n        /* \"#utility.yul\":18180:18225   */\n      tag_434\n        /* \"#utility.yul\":18200:18224   */\n      tag_435\n        /* \"#utility.yul\":18218:18223   */\n      dup3\n        /* \"#utility.yul\":18200:18224   */\n      tag_190\n      jump\t// in\n    tag_435:\n        /* \"#utility.yul\":18180:18225   */\n      tag_240\n      jump\t// in\n    tag_434:\n        /* \"#utility.yul\":18175:18178   */\n      dup3\n        /* \"#utility.yul\":18168:18226   */\n      mstore\n        /* \"#utility.yul\":18075:18232   */\n      pop\n      pop\n      jump\t// out\n        /* \"#utility.yul\":18238:18332   */\n    tag_242:\n        /* \"#utility.yul\":18271:18279   */\n      0x00\n        /* \"#utility.yul\":18319:18324   */\n      dup2\n        /* \"#utility.yul\":18315:18317   */\n      0x60\n        /* \"#utility.yul\":18311:18325   */\n      shl\n        /* \"#utility.yul\":18290:18325   */\n      swap1\n      pop\n        /* \"#utility.yul\":18238:18332   */\n      swap2\n      swap1\n      pop\n      jump\t// out\n        /* \"#utility.yul\":18338:18432   */\n    tag_243:\n        /* \"#utility.yul\":18377:18384   */\n      0x00\n        /* \"#utility.yul\":18406:18426   */\n      tag_438\n        /* \"#utility.yul\":18420:18425   */\n      dup3\n        /* \"#utility.yul\":18406:18426   */\n      tag_242\n      jump\t// in\n    tag_438:\n        /* \"#utility.yul\":18395:18426   */\n      swap1\n      pop\n        /* \"#utility.yul\":18338:18432   */\n      swap2\n      swap1\n      pop\n      jump\t// out\n        /* \"#utility.yul\":18438:18538   */\n    tag_244:\n        /* \"#utility.yul\":18477:18484   */\n      0x00\n        /* \"#utility.yul\":18506:18532   */\n      tag_440\n        /* \"#utility.yul\":18526:18531   */\n      dup3\n        /* \"#utility.yul\":18506:18532   */\n      tag_243\n      jump\t// in\n    tag_440:\n        /* \"#utility.yul\":18495:18532   */\n      swap1\n      pop\n        /* \"#utility.yul\":18438:18538   */\n      swap2\n      swap1\n      pop\n      jump\t// out\n        /* \"#utility.yul\":18544:18701   */\n    tag_245:\n        /* \"#utility.yul\":18649:18694   */\n      tag_442\n        /* \"#utility.yul\":18669:18693   */\n      tag_443\n        /* \"#utility.yul\":18687:18692   */\n      dup3\n        /* \"#utility.yul\":18669:18693   */\n      tag_200\n      jump\t// in\n    tag_443:\n        /* \"#utility.yul\":18649:18694   */\n      tag_244\n      jump\t// in\n    tag_442:\n        /* \"#utility.yul\":18644:18647   */\n      dup3\n        /* \"#utility.yul\":18637:18695   */\n      mstore\n        /* \"#utility.yul\":18544:18701   */\n      pop\n      pop\n      jump\t// out\n        /* \"#utility.yul\":18707:19245   */\n    tag_183:\n        /* \"#utility.yul\":18875:18878   */\n      0x00\n        /* \"#utility.yul\":18890:18965   */\n      tag_445\n        /* \"#utility.yul\":18961:18964   */\n      dup3\n        /* \"#utility.yul\":18952:18958   */\n      dup7\n        /* \"#utility.yul\":18890:18965   */\n      tag_241\n      jump\t// in\n    tag_445:\n        /* \"#utility.yul\":18990:18992   */\n      0x20\n        /* \"#utility.yul\":18985:18988   */\n      dup3\n        /* \"#utility.yul\":18981:18993   */\n      add\n        /* \"#utility.yul\":18974:18993   */\n      swap2\n      pop\n        /* \"#utility.yul\":19003:19078   */\n      tag_446\n        /* \"#utility.yul\":19074:19077   */\n      dup3\n        /* \"#utility.yul\":19065:19071   */\n      dup6\n        /* \"#utility.yul\":19003:19078   */\n      tag_245\n      jump\t// in\n    tag_446:\n        /* \"#utility.yul\":19103:19105   */\n      0x14\n        /* \"#utility.yul\":19098:19101   */\n      dup3\n        /* \"#utility.yul\":19094:19106   */\n      add\n        /* \"#utility.yul\":19087:19106   */\n      swap2\n      pop\n        /* \"#utility.yul\":19116:19191   */\n      tag_447\n        /* \"#utility.yul\":19187:19190   */\n      dup3\n        /* \"#utility.yul\":19178:19184   */\n      dup5\n        /* \"#utility.yul\":19116:19191   */\n      tag_241\n      jump\t// in\n    tag_447:\n        /* \"#utility.yul\":19216:19218   */\n      0x20\n        /* \"#utility.yul\":19211:19214   */\n      dup3\n        /* \"#utility.yul\":19207:19219   */\n      add\n        /* \"#utility.yul\":19200:19219   */\n      swap2\n      pop\n        /* \"#utility.yul\":19236:19239   */\n      dup2\n        /* \"#utility.yul\":19229:19239   */\n      swap1\n      pop\n        /* \"#utility.yul\":18707:19245   */\n      swap5\n      swap4\n      pop\n      pop\n      pop\n      pop\n      jump\t// out\n        /* \"#utility.yul\":19251:19431   */\n    tag_246:\n        /* \"#utility.yul\":19299:19376   */\n      0x4e487b7100000000000000000000000000000000000000000000000000000000\n        /* \"#utility.yul\":19296:19297   */\n      0x00\n        /* \"#utility.yul\":19289:19377   */\n      mstore\n        /* \"#utility.yul\":19396:19400   */\n      0x12\n        /* \"#utility.yul\":19393:19394   */\n      0x04\n        /* \"#utility.yul\":19386:19401   */\n      mstore\n        /* \"#utility.yul\":19420:19424   */\n      0x24\n        /* \"#utility.yul\":19417:19418   */\n      0x00\n        /* \"#utility.yul\":19410:19425   */\n      revert\n        /* \"#utility.yul\":19437:19613   */\n    tag_185:\n        /* \"#utility.yul\":19469:19470   */\n      0x00\n        /* \"#utility.yul\":19486:19506   */\n      tag_450\n        /* \"#utility.yul\":19504:19505   */\n      dup3\n        /* \"#utility.yul\":19486:19506   */\n      tag_190\n      jump\t// in\n    tag_450:\n        /* \"#utility.yul\":19481:19506   */\n      swap2\n      pop\n        /* \"#utility.yul\":19520:19540   */\n      tag_451\n        /* \"#utility.yul\":19538:19539   */\n      dup4\n        /* \"#utility.yul\":19520:19540   */\n      tag_190\n      jump\t// in\n    tag_451:\n        /* \"#utility.yul\":19515:19540   */\n      swap3\n      pop\n        /* \"#utility.yul\":19559:19560   */\n      dup3\n        /* \"#utility.yul\":19549:19584   */\n      tag_452\n      jumpi\n        /* \"#utility.yul\":19564:19582   */\n      tag_453\n      tag_246\n      jump\t// in\n    tag_453:\n        /* \"#utility.yul\":19549:19584   */\n    tag_452:\n        /* \"#utility.yul\":19605:19606   */\n      dup3\n        /* \"#utility.yul\":19602:19603   */\n      dup3\n        /* \"#utility.yul\":19598:19607   */\n      mod\n        /* \"#utility.yul\":19593:19607   */\n      swap1\n      pop\n        /* \"#utility.yul\":19437:19613   */\n      swap3\n      swap2\n      pop\n      pop\n      jump\t// out\n\n    auxdata: 0xa2646970667358221220627e2185c48759a2dfa1addd74563e71ca3628ca660a6ebc8033d0f5874a82a964736f6c63430008110033\n}\n",
				"bytecode": {
					"linkReferences": {},
					"object": "608060405234801561001057600080fd5b5061002d61002261003260201b60201c565b61003a60201b60201c565b6100fe565b600033905090565b60008060009054906101000a900473ffffffffffffffffffffffffffffffffffffffff169050816000806101000a81548173ffffffffffffffffffffffffffffffffffffffff021916908373ffffffffffffffffffffffffffffffffffffffff1602179055508173ffffffffffffffffffffffffffffffffffffffff168173ffffffffffffffffffffffffffffffffffffffff167f8be0079c531659141344cd1fd0a4f28419497f9722a3daafe3b4186f6b6457e060405160405180910390a35050565b611bc88061010d6000396000f3fe608060405234801561001057600080fd5b506004361061007d5760003560e01c80634ef589161161005b5780634ef5891614610115578063715018a6146101455780638da5cb5b1461014f578063f2fde38b1461016d5761007d565b8063117a5b901461008257806338696766146100b5578063470778c4146100e5575b600080fd5b61009c6004803603810190610097919061113d565b610189565b6040516100ac9493929190611209565b60405180910390f35b6100cf60048036038101906100ca919061113d565b610361565b6040516100dc91906112a4565b60405180910390f35b6100ff60048036038101906100fa91906112eb565b610394565b60405161010c9190611318565b60405180910390f35b61012f600480360381019061012a9190611468565b6103ac565b60405161013c91906114b1565b60405180910390f35b61014d610576565b005b61015761058a565b60405161016491906112a4565b60405180910390f35b610187600480360381019061018291906112eb565b6105b3565b005b6001818154811061019957600080fd5b90600052602060002090600402016000915090508060000180546101bc90611502565b80601f01602080910402602001604051908101604052809291908181526020018280546101e890611502565b80156102355780601f1061020a57610100808354040283529160200191610235565b820191906000526020600020905b81548152906001019060200180831161021857829003601f168201915b50505050509080600101805461024a90611502565b80601f016020809104026020016040519081016040528092919081815260200182805461027690611502565b80156102c35780601f10610298576101008083540402835291602001916102c3565b820191906000526020600020905b8154815290600101906020018083116102a657829003601f168201915b5050505050908060020154908060030180546102de90611502565b80601f016020809104026020016040519081016040528092919081815260200182805461030a90611502565b80156103575780601f1061032c57610100808354040283529160200191610357565b820191906000526020600020905b81548152906001019060200180831161033a57829003601f168201915b5050505050905084565b60026020528060005260406000206000915054906101000a900473ffffffffffffffffffffffffffffffffffffffff1681565b60036020528060005260406000206000915090505481565b606060006103b8610636565b905060006103c68483610734565b905060006103d5858484610e4a565b905060016040518060800160405280878152602001858152602001848152602001838152509080600181540180825580915050600190039060005260206000209060040201600090919091909150600082015181600001908161043891906116df565b50602082015181600101908161044e91906116df565b5060408201518160020155606082015181600301908161046e91906116df565b50505060006001808054905061048491906117e0565b9050600360003373ffffffffffffffffffffffffffffffffffffffff1673ffffffffffffffffffffffffffffffffffffffff16815260200190815260200160002060008154809291906104d690611814565b9190505550336002600083815260200190815260200160002060006101000a81548173ffffffffffffffffffffffffffffffffffffffff021916908373ffffffffffffffffffffffffffffffffffffffff1602179055507fe40d376e16bd4fd04229f0f470f60a5b75581253e7d4a1276ea76d0f239393d1868585856040516105629493929190611209565b60405180910390a181945050505050919050565b61057e610f4e565b6105886000610fcc565b565b60008060009054906101000a900473ffffffffffffffffffffffffffffffffffffffff16905090565b6105bb610f4e565b600073ffffffffffffffffffffffffffffffffffffffff168173ffffffffffffffffffffffffffffffffffffffff160361062a576040517f08c379a0000000000000000000000000000000000000000000000000000000008152600401610621906118ce565b60405180910390fd5b61063381610fcc565b50565b6060600060219050600060429050600061064e611090565b9050606083821015610697576040518060400160405280600481526020017f726f636b00000000000000000000000000000000000000000000000000000000815250905061072a565b83821180156106a557508282105b156106e7576040518060400160405280600581526020017f70617065720000000000000000000000000000000000000000000000000000008152509050610729565b82821115610728576040518060400160405280600881526020017f73636973736f727300000000000000000000000000000000000000000000000081525090505b5b5b8094505050505090565b6000806040518060400160405280600481526020017f726f636b00000000000000000000000000000000000000000000000000000000815250905060006040518060400160405280600581526020017f7061706572000000000000000000000000000000000000000000000000000000815250905060006040518060400160405280600881526020017f73636973736f727300000000000000000000000000000000000000000000000081525090506000836040516020016107f6919061192a565b604051602081830303815290604052805190602001208760405160200161081d919061192a565b6040516020818303038152906040528051906020012014801561088b57508360405160200161084c919061192a565b6040516020818303038152906040528051906020012086604051602001610873919061192a565b60405160208183030381529060405280519060200120145b156108995760009050610e3d565b836040516020016108aa919061192a565b60405160208183030381529060405280519060200120876040516020016108d1919061192a565b6040516020818303038152906040528051906020012014801561093f575082604051602001610900919061192a565b6040516020818303038152906040528051906020012086604051602001610927919061192a565b60405160208183030381529060405280519060200120145b1561094d5760029050610e3c565b8360405160200161095e919061192a565b6040516020818303038152906040528051906020012087604051602001610985919061192a565b604051602081830303815290604052805190602001201480156109f35750816040516020016109b4919061192a565b60405160208183030381529060405280519060200120866040516020016109db919061192a565b60405160208183030381529060405280519060200120145b15610a015760019050610e3b565b82604051602001610a12919061192a565b6040516020818303038152906040528051906020012087604051602001610a39919061192a565b60405160208183030381529060405280519060200120148015610aa7575083604051602001610a68919061192a565b6040516020818303038152906040528051906020012086604051602001610a8f919061192a565b60405160208183030381529060405280519060200120145b15610ab55760029050610e3a565b82604051602001610ac6919061192a565b6040516020818303038152906040528051906020012087604051602001610aed919061192a565b60405160208183030381529060405280519060200120148015610b5b575082604051602001610b1c919061192a565b6040516020818303038152906040528051906020012086604051602001610b43919061192a565b60405160208183030381529060405280519060200120145b15610b695760009050610e39565b82604051602001610b7a919061192a565b6040516020818303038152906040528051906020012087604051602001610ba1919061192a565b60405160208183030381529060405280519060200120148015610c0f575081604051602001610bd0919061192a565b6040516020818303038152906040528051906020012086604051602001610bf7919061192a565b60405160208183030381529060405280519060200120145b15610c1d5760029050610e38565b81604051602001610c2e919061192a565b6040516020818303038152906040528051906020012087604051602001610c55919061192a565b60405160208183030381529060405280519060200120148015610cc3575083604051602001610c84919061192a565b6040516020818303038152906040528051906020012086604051602001610cab919061192a565b60405160208183030381529060405280519060200120145b15610cd15760029050610e37565b81604051602001610ce2919061192a565b6040516020818303038152906040528051906020012087604051602001610d09919061192a565b60405160208183030381529060405280519060200120148015610d77575082604051602001610d38919061192a565b6040516020818303038152906040528051906020012086604051602001610d5f919061192a565b60405160208183030381529060405280519060200120145b15610d855760019050610e36565b81604051602001610d96919061192a565b6040516020818303038152906040528051906020012087604051602001610dbd919061192a565b60405160208183030381529060405280519060200120148015610e2b575081604051602001610dec919061192a565b6040516020818303038152906040528051906020012086604051602001610e13919061192a565b60405160208183030381529060405280519060200120145b15610e3557600090505b5b5b5b5b5b5b5b5b8094505050505092915050565b606080606060008403610e94576040518060400160405280601b81526020017f2e205468652067616d6520656e64656420696e206120647261772e00000000008152509050610f1c565b60018403610ed9576040518060400160405280601381526020017f2e20596f7520776f6e207468652067616d652e000000000000000000000000008152509050610f1b565b60028403610f1a576040518060400160405280601481526020017f2e20596f75206c6f7374207468652067616d652e00000000000000000000000081525090505b5b5b858582604051602001610f31939291906119d9565b604051602081830303815290604052915081925050509392505050565b610f566110eb565b73ffffffffffffffffffffffffffffffffffffffff16610f7461058a565b73ffffffffffffffffffffffffffffffffffffffff1614610fca576040517f08c379a0000000000000000000000000000000000000000000000000000000008152600401610fc190611a6c565b60405180910390fd5b565b60008060009054906101000a900473ffffffffffffffffffffffffffffffffffffffff169050816000806101000a81548173ffffffffffffffffffffffffffffffffffffffff021916908373ffffffffffffffffffffffffffffffffffffffff1602179055508173ffffffffffffffffffffffffffffffffffffffff168173ffffffffffffffffffffffffffffffffffffffff167f8be0079c531659141344cd1fd0a4f28419497f9722a3daafe3b4186f6b6457e060405160405180910390a35050565b6000806000905060006064905081806110a890611814565b925050804233846040516020016110c193929190611af5565b6040516020818303038152906040528051906020012060001c6110e49190611b61565b9250505090565b600033905090565b6000604051905090565b600080fd5b600080fd5b6000819050919050565b61111a81611107565b811461112557600080fd5b50565b60008135905061113781611111565b92915050565b600060208284031215611153576111526110fd565b5b600061116184828501611128565b91505092915050565b600081519050919050565b600082825260208201905092915050565b60005b838110156111a4578082015181840152602081019050611189565b60008484015250505050565b6000601f19601f8301169050919050565b60006111cc8261116a565b6111d68185611175565b93506111e6818560208601611186565b6111ef816111b0565b840191505092915050565b61120381611107565b82525050565b6000608082019050818103600083015261122381876111c1565b9050818103602083015261123781866111c1565b905061124660408301856111fa565b818103606083015261125881846111c1565b905095945050505050565b600073ffffffffffffffffffffffffffffffffffffffff82169050919050565b600061128e82611263565b9050919050565b61129e81611283565b82525050565b60006020820190506112b96000830184611295565b92915050565b6112c881611283565b81146112d357600080fd5b50565b6000813590506112e5816112bf565b92915050565b600060208284031215611301576113006110fd565b5b600061130f848285016112d6565b91505092915050565b600060208201905061132d60008301846111fa565b92915050565b600080fd5b600080fd5b7f4e487b7100000000000000000000000000000000000000000000000000000000600052604160045260246000fd5b611375826111b0565b810181811067ffffffffffffffff821117156113945761139361133d565b5b80604052505050565b60006113a76110f3565b90506113b3828261136c565b919050565b600067ffffffffffffffff8211156113d3576113d261133d565b5b6113dc826111b0565b9050602081019050919050565b82818337600083830152505050565b600061140b611406846113b8565b61139d565b90508281526020810184848401111561142757611426611338565b5b6114328482856113e9565b509392505050565b600082601f83011261144f5761144e611333565b5b813561145f8482602086016113f8565b91505092915050565b60006020828403121561147e5761147d6110fd565b5b600082013567ffffffffffffffff81111561149c5761149b611102565b5b6114a88482850161143a565b91505092915050565b600060208201905081810360008301526114cb81846111c1565b905092915050565b7f4e487b7100000000000000000000000000000000000000000000000000000000600052602260045260246000fd5b6000600282049050600182168061151a57607f821691505b60208210810361152d5761152c6114d3565b5b50919050565b60008190508160005260206000209050919050565b60006020601f8301049050919050565b600082821b905092915050565b6000600883026115957fffffffffffffffffffffffffffffffffffffffffffffffffffffffffffffffff82611558565b61159f8683611558565b95508019841693508086168417925050509392505050565b6000819050919050565b60006115dc6115d76115d284611107565b6115b7565b611107565b9050919050565b6000819050919050565b6115f6836115c1565b61160a611602826115e3565b848454611565565b825550505050565b600090565b61161f611612565b61162a8184846115ed565b505050565b5b8181101561164e57611643600082611617565b600181019050611630565b5050565b601f8211156116935761166481611533565b61166d84611548565b8101602085101561167c578190505b61169061168885611548565b83018261162f565b50505b505050565b600082821c905092915050565b60006116b660001984600802611698565b1980831691505092915050565b60006116cf83836116a5565b9150826002028217905092915050565b6116e88261116a565b67ffffffffffffffff8111156117015761170061133d565b5b61170b8254611502565b611716828285611652565b600060209050601f8311600181146117495760008415611737578287015190505b61174185826116c3565b8655506117a9565b601f19841661175786611533565b60005b8281101561177f5784890151825560018201915060208501945060208101905061175a565b8683101561179c5784890151611798601f8916826116a5565b8355505b6001600288020188555050505b505050505050565b7f4e487b7100000000000000000000000000000000000000000000000000000000600052601160045260246000fd5b60006117eb82611107565b91506117f683611107565b925082820390508181111561180e5761180d6117b1565b5b92915050565b600061181f82611107565b91507fffffffffffffffffffffffffffffffffffffffffffffffffffffffffffffffff8203611851576118506117b1565b5b600182019050919050565b7f4f776e61626c653a206e6577206f776e657220697320746865207a65726f206160008201527f6464726573730000000000000000000000000000000000000000000000000000602082015250565b60006118b8602683611175565b91506118c38261185c565b604082019050919050565b600060208201905081810360008301526118e7816118ab565b9050919050565b600081905092915050565b60006119048261116a565b61190e81856118ee565b935061191e818560208601611186565b80840191505092915050565b600061193682846118f9565b915081905092915050565b7f596f75207069636b656420000000000000000000000000000000000000000000600082015250565b6000611977600b836118ee565b915061198282611941565b600b82019050919050565b7f20616e642074686520636f6d7075746572207069636b65642000000000000000600082015250565b60006119c36019836118ee565b91506119ce8261198d565b601982019050919050565b60006119e48261196a565b91506119f082866118f9565b91506119fb826119b6565b9150611a0782856118f9565b9150611a1382846118f9565b9150819050949350505050565b7f4f776e61626c653a2063616c6c6572206973206e6f7420746865206f776e6572600082015250565b6000611a56602083611175565b9150611a6182611a20565b602082019050919050565b60006020820190508181036000830152611a8581611a49565b9050919050565b6000819050919050565b611aa7611aa282611107565b611a8c565b82525050565b60008160601b9050919050565b6000611ac582611aad565b9050919050565b6000611ad782611aba565b9050919050565b611aef611aea82611283565b611acc565b82525050565b6000611b018286611a96565b602082019150611b118285611ade565b601482019150611b218284611a96565b602082019150819050949350505050565b7f4e487b7100000000000000000000000000000000000000000000000000000000600052601260045260246000fd5b6000611b6c82611107565b9150611b7783611107565b925082611b8757611b86611b32565b5b82820690509291505056fea2646970667358221220627e2185c48759a2dfa1addd74563e71ca3628ca660a6ebc8033d0f5874a82a964736f6c63430008110033",
					"opcodes": "PUSH1 0x80 PUSH1 0x40 MSTORE CALLVALUE DUP1 ISZERO PUSH2 0x10 JUMPI PUSH1 0x0 DUP1 REVERT JUMPDEST POP PUSH2 0x2D PUSH2 0x22 PUSH2 0x32 PUSH1 0x20 SHL PUSH1 0x20 SHR JUMP JUMPDEST PUSH2 0x3A PUSH1 0x20 SHL PUSH1 0x20 SHR JUMP JUMPDEST PUSH2 0xFE JUMP JUMPDEST PUSH1 0x0 CALLER SWAP1 POP SWAP1 JUMP JUMPDEST PUSH1 0x0 DUP1 PUSH1 0x0 SWAP1 SLOAD SWAP1 PUSH2 0x100 EXP SWAP1 DIV PUSH20 0xFFFFFFFFFFFFFFFFFFFFFFFFFFFFFFFFFFFFFFFF AND SWAP1 POP DUP2 PUSH1 0x0 DUP1 PUSH2 0x100 EXP DUP2 SLOAD DUP2 PUSH20 0xFFFFFFFFFFFFFFFFFFFFFFFFFFFFFFFFFFFFFFFF MUL NOT AND SWAP1 DUP4 PUSH20 0xFFFFFFFFFFFFFFFFFFFFFFFFFFFFFFFFFFFFFFFF AND MUL OR SWAP1 SSTORE POP DUP2 PUSH20 0xFFFFFFFFFFFFFFFFFFFFFFFFFFFFFFFFFFFFFFFF AND DUP2 PUSH20 0xFFFFFFFFFFFFFFFFFFFFFFFFFFFFFFFFFFFFFFFF AND PUSH32 0x8BE0079C531659141344CD1FD0A4F28419497F9722A3DAAFE3B4186F6B6457E0 PUSH1 0x40 MLOAD PUSH1 0x40 MLOAD DUP1 SWAP2 SUB SWAP1 LOG3 POP POP JUMP JUMPDEST PUSH2 0x1BC8 DUP1 PUSH2 0x10D PUSH1 0x0 CODECOPY PUSH1 0x0 RETURN INVALID PUSH1 0x80 PUSH1 0x40 MSTORE CALLVALUE DUP1 ISZERO PUSH2 0x10 JUMPI PUSH1 0x0 DUP1 REVERT JUMPDEST POP PUSH1 0x4 CALLDATASIZE LT PUSH2 0x7D JUMPI PUSH1 0x0 CALLDATALOAD PUSH1 0xE0 SHR DUP1 PUSH4 0x4EF58916 GT PUSH2 0x5B JUMPI DUP1 PUSH4 0x4EF58916 EQ PUSH2 0x115 JUMPI DUP1 PUSH4 0x715018A6 EQ PUSH2 0x145 JUMPI DUP1 PUSH4 0x8DA5CB5B EQ PUSH2 0x14F JUMPI DUP1 PUSH4 0xF2FDE38B EQ PUSH2 0x16D JUMPI PUSH2 0x7D JUMP JUMPDEST DUP1 PUSH4 0x117A5B90 EQ PUSH2 0x82 JUMPI DUP1 PUSH4 0x38696766 EQ PUSH2 0xB5 JUMPI DUP1 PUSH4 0x470778C4 EQ PUSH2 0xE5 JUMPI JUMPDEST PUSH1 0x0 DUP1 REVERT JUMPDEST PUSH2 0x9C PUSH1 0x4 DUP1 CALLDATASIZE SUB DUP2 ADD SWAP1 PUSH2 0x97 SWAP2 SWAP1 PUSH2 0x113D JUMP JUMPDEST PUSH2 0x189 JUMP JUMPDEST PUSH1 0x40 MLOAD PUSH2 0xAC SWAP5 SWAP4 SWAP3 SWAP2 SWAP1 PUSH2 0x1209 JUMP JUMPDEST PUSH1 0x40 MLOAD DUP1 SWAP2 SUB SWAP1 RETURN JUMPDEST PUSH2 0xCF PUSH1 0x4 DUP1 CALLDATASIZE SUB DUP2 ADD SWAP1 PUSH2 0xCA SWAP2 SWAP1 PUSH2 0x113D JUMP JUMPDEST PUSH2 0x361 JUMP JUMPDEST PUSH1 0x40 MLOAD PUSH2 0xDC SWAP2 SWAP1 PUSH2 0x12A4 JUMP JUMPDEST PUSH1 0x40 MLOAD DUP1 SWAP2 SUB SWAP1 RETURN JUMPDEST PUSH2 0xFF PUSH1 0x4 DUP1 CALLDATASIZE SUB DUP2 ADD SWAP1 PUSH2 0xFA SWAP2 SWAP1 PUSH2 0x12EB JUMP JUMPDEST PUSH2 0x394 JUMP JUMPDEST PUSH1 0x40 MLOAD PUSH2 0x10C SWAP2 SWAP1 PUSH2 0x1318 JUMP JUMPDEST PUSH1 0x40 MLOAD DUP1 SWAP2 SUB SWAP1 RETURN JUMPDEST PUSH2 0x12F PUSH1 0x4 DUP1 CALLDATASIZE SUB DUP2 ADD SWAP1 PUSH2 0x12A SWAP2 SWAP1 PUSH2 0x1468 JUMP JUMPDEST PUSH2 0x3AC JUMP JUMPDEST PUSH1 0x40 MLOAD PUSH2 0x13C SWAP2 SWAP1 PUSH2 0x14B1 JUMP JUMPDEST PUSH1 0x40 MLOAD DUP1 SWAP2 SUB SWAP1 RETURN JUMPDEST PUSH2 0x14D PUSH2 0x576 JUMP JUMPDEST STOP JUMPDEST PUSH2 0x157 PUSH2 0x58A JUMP JUMPDEST PUSH1 0x40 MLOAD PUSH2 0x164 SWAP2 SWAP1 PUSH2 0x12A4 JUMP JUMPDEST PUSH1 0x40 MLOAD DUP1 SWAP2 SUB SWAP1 RETURN JUMPDEST PUSH2 0x187 PUSH1 0x4 DUP1 CALLDATASIZE SUB DUP2 ADD SWAP1 PUSH2 0x182 SWAP2 SWAP1 PUSH2 0x12EB JUMP JUMPDEST PUSH2 0x5B3 JUMP JUMPDEST STOP JUMPDEST PUSH1 0x1 DUP2 DUP2 SLOAD DUP2 LT PUSH2 0x199 JUMPI PUSH1 0x0 DUP1 REVERT JUMPDEST SWAP1 PUSH1 0x0 MSTORE PUSH1 0x20 PUSH1 0x0 KECCAK256 SWAP1 PUSH1 0x4 MUL ADD PUSH1 0x0 SWAP2 POP SWAP1 POP DUP1 PUSH1 0x0 ADD DUP1 SLOAD PUSH2 0x1BC SWAP1 PUSH2 0x1502 JUMP JUMPDEST DUP1 PUSH1 0x1F ADD PUSH1 0x20 DUP1 SWAP2 DIV MUL PUSH1 0x20 ADD PUSH1 0x40 MLOAD SWAP1 DUP2 ADD PUSH1 0x40 MSTORE DUP1 SWAP3 SWAP2 SWAP1 DUP2 DUP2 MSTORE PUSH1 0x20 ADD DUP3 DUP1 SLOAD PUSH2 0x1E8 SWAP1 PUSH2 0x1502 JUMP JUMPDEST DUP1 ISZERO PUSH2 0x235 JUMPI DUP1 PUSH1 0x1F LT PUSH2 0x20A JUMPI PUSH2 0x100 DUP1 DUP4 SLOAD DIV MUL DUP4 MSTORE SWAP2 PUSH1 0x20 ADD SWAP2 PUSH2 0x235 JUMP JUMPDEST DUP3 ADD SWAP2 SWAP1 PUSH1 0x0 MSTORE PUSH1 0x20 PUSH1 0x0 KECCAK256 SWAP1 JUMPDEST DUP2 SLOAD DUP2 MSTORE SWAP1 PUSH1 0x1 ADD SWAP1 PUSH1 0x20 ADD DUP1 DUP4 GT PUSH2 0x218 JUMPI DUP3 SWAP1 SUB PUSH1 0x1F AND DUP3 ADD SWAP2 JUMPDEST POP POP POP POP POP SWAP1 DUP1 PUSH1 0x1 ADD DUP1 SLOAD PUSH2 0x24A SWAP1 PUSH2 0x1502 JUMP JUMPDEST DUP1 PUSH1 0x1F ADD PUSH1 0x20 DUP1 SWAP2 DIV MUL PUSH1 0x20 ADD PUSH1 0x40 MLOAD SWAP1 DUP2 ADD PUSH1 0x40 MSTORE DUP1 SWAP3 SWAP2 SWAP1 DUP2 DUP2 MSTORE PUSH1 0x20 ADD DUP3 DUP1 SLOAD PUSH2 0x276 SWAP1 PUSH2 0x1502 JUMP JUMPDEST DUP1 ISZERO PUSH2 0x2C3 JUMPI DUP1 PUSH1 0x1F LT PUSH2 0x298 JUMPI PUSH2 0x100 DUP1 DUP4 SLOAD DIV MUL DUP4 MSTORE SWAP2 PUSH1 0x20 ADD SWAP2 PUSH2 0x2C3 JUMP JUMPDEST DUP3 ADD SWAP2 SWAP1 PUSH1 0x0 MSTORE PUSH1 0x20 PUSH1 0x0 KECCAK256 SWAP1 JUMPDEST DUP2 SLOAD DUP2 MSTORE SWAP1 PUSH1 0x1 ADD SWAP1 PUSH1 0x20 ADD DUP1 DUP4 GT PUSH2 0x2A6 JUMPI DUP3 SWAP1 SUB PUSH1 0x1F AND DUP3 ADD SWAP2 JUMPDEST POP POP POP POP POP SWAP1 DUP1 PUSH1 0x2 ADD SLOAD SWAP1 DUP1 PUSH1 0x3 ADD DUP1 SLOAD PUSH2 0x2DE SWAP1 PUSH2 0x1502 JUMP JUMPDEST DUP1 PUSH1 0x1F ADD PUSH1 0x20 DUP1 SWAP2 DIV MUL PUSH1 0x20 ADD PUSH1 0x40 MLOAD SWAP1 DUP2 ADD PUSH1 0x40 MSTORE DUP1 SWAP3 SWAP2 SWAP1 DUP2 DUP2 MSTORE PUSH1 0x20 ADD DUP3 DUP1 SLOAD PUSH2 0x30A SWAP1 PUSH2 0x1502 JUMP JUMPDEST DUP1 ISZERO PUSH2 0x357 JUMPI DUP1 PUSH1 0x1F LT PUSH2 0x32C JUMPI PUSH2 0x100 DUP1 DUP4 SLOAD DIV MUL DUP4 MSTORE SWAP2 PUSH1 0x20 ADD SWAP2 PUSH2 0x357 JUMP JUMPDEST DUP3 ADD SWAP2 SWAP1 PUSH1 0x0 MSTORE PUSH1 0x20 PUSH1 0x0 KECCAK256 SWAP1 JUMPDEST DUP2 SLOAD DUP2 MSTORE SWAP1 PUSH1 0x1 ADD SWAP1 PUSH1 0x20 ADD DUP1 DUP4 GT PUSH2 0x33A JUMPI DUP3 SWAP1 SUB PUSH1 0x1F AND DUP3 ADD SWAP2 JUMPDEST POP POP POP POP POP SWAP1 POP DUP5 JUMP JUMPDEST PUSH1 0x2 PUSH1 0x20 MSTORE DUP1 PUSH1 0x0 MSTORE PUSH1 0x40 PUSH1 0x0 KECCAK256 PUSH1 0x0 SWAP2 POP SLOAD SWAP1 PUSH2 0x100 EXP SWAP1 DIV PUSH20 0xFFFFFFFFFFFFFFFFFFFFFFFFFFFFFFFFFFFFFFFF AND DUP2 JUMP JUMPDEST PUSH1 0x3 PUSH1 0x20 MSTORE DUP1 PUSH1 0x0 MSTORE PUSH1 0x40 PUSH1 0x0 KECCAK256 PUSH1 0x0 SWAP2 POP SWAP1 POP SLOAD DUP2 JUMP JUMPDEST PUSH1 0x60 PUSH1 0x0 PUSH2 0x3B8 PUSH2 0x636 JUMP JUMPDEST SWAP1 POP PUSH1 0x0 PUSH2 0x3C6 DUP5 DUP4 PUSH2 0x734 JUMP JUMPDEST SWAP1 POP PUSH1 0x0 PUSH2 0x3D5 DUP6 DUP5 DUP5 PUSH2 0xE4A JUMP JUMPDEST SWAP1 POP PUSH1 0x1 PUSH1 0x40 MLOAD DUP1 PUSH1 0x80 ADD PUSH1 0x40 MSTORE DUP1 DUP8 DUP2 MSTORE PUSH1 0x20 ADD DUP6 DUP2 MSTORE PUSH1 0x20 ADD DUP5 DUP2 MSTORE PUSH1 0x20 ADD DUP4 DUP2 MSTORE POP SWAP1 DUP1 PUSH1 0x1 DUP2 SLOAD ADD DUP1 DUP3 SSTORE DUP1 SWAP2 POP POP PUSH1 0x1 SWAP1 SUB SWAP1 PUSH1 0x0 MSTORE PUSH1 0x20 PUSH1 0x0 KECCAK256 SWAP1 PUSH1 0x4 MUL ADD PUSH1 0x0 SWAP1 SWAP2 SWAP1 SWAP2 SWAP1 SWAP2 POP PUSH1 0x0 DUP3 ADD MLOAD DUP2 PUSH1 0x0 ADD SWAP1 DUP2 PUSH2 0x438 SWAP2 SWAP1 PUSH2 0x16DF JUMP JUMPDEST POP PUSH1 0x20 DUP3 ADD MLOAD DUP2 PUSH1 0x1 ADD SWAP1 DUP2 PUSH2 0x44E SWAP2 SWAP1 PUSH2 0x16DF JUMP JUMPDEST POP PUSH1 0x40 DUP3 ADD MLOAD DUP2 PUSH1 0x2 ADD SSTORE PUSH1 0x60 DUP3 ADD MLOAD DUP2 PUSH1 0x3 ADD SWAP1 DUP2 PUSH2 0x46E SWAP2 SWAP1 PUSH2 0x16DF JUMP JUMPDEST POP POP POP PUSH1 0x0 PUSH1 0x1 DUP1 DUP1 SLOAD SWAP1 POP PUSH2 0x484 SWAP2 SWAP1 PUSH2 0x17E0 JUMP JUMPDEST SWAP1 POP PUSH1 0x3 PUSH1 0x0 CALLER PUSH20 0xFFFFFFFFFFFFFFFFFFFFFFFFFFFFFFFFFFFFFFFF AND PUSH20 0xFFFFFFFFFFFFFFFFFFFFFFFFFFFFFFFFFFFFFFFF AND DUP2 MSTORE PUSH1 0x20 ADD SWAP1 DUP2 MSTORE PUSH1 0x20 ADD PUSH1 0x0 KECCAK256 PUSH1 0x0 DUP2 SLOAD DUP1 SWAP3 SWAP2 SWAP1 PUSH2 0x4D6 SWAP1 PUSH2 0x1814 JUMP JUMPDEST SWAP2 SWAP1 POP SSTORE POP CALLER PUSH1 0x2 PUSH1 0x0 DUP4 DUP2 MSTORE PUSH1 0x20 ADD SWAP1 DUP2 MSTORE PUSH1 0x20 ADD PUSH1 0x0 KECCAK256 PUSH1 0x0 PUSH2 0x100 EXP DUP2 SLOAD DUP2 PUSH20 0xFFFFFFFFFFFFFFFFFFFFFFFFFFFFFFFFFFFFFFFF MUL NOT AND SWAP1 DUP4 PUSH20 0xFFFFFFFFFFFFFFFFFFFFFFFFFFFFFFFFFFFFFFFF AND MUL OR SWAP1 SSTORE POP PUSH32 0xE40D376E16BD4FD04229F0F470F60A5B75581253E7D4A1276EA76D0F239393D1 DUP7 DUP6 DUP6 DUP6 PUSH1 0x40 MLOAD PUSH2 0x562 SWAP5 SWAP4 SWAP3 SWAP2 SWAP1 PUSH2 0x1209 JUMP JUMPDEST PUSH1 0x40 MLOAD DUP1 SWAP2 SUB SWAP1 LOG1 DUP2 SWAP5 POP POP POP POP POP SWAP2 SWAP1 POP JUMP JUMPDEST PUSH2 0x57E PUSH2 0xF4E JUMP JUMPDEST PUSH2 0x588 PUSH1 0x0 PUSH2 0xFCC JUMP JUMPDEST JUMP JUMPDEST PUSH1 0x0 DUP1 PUSH1 0x0 SWAP1 SLOAD SWAP1 PUSH2 0x100 EXP SWAP1 DIV PUSH20 0xFFFFFFFFFFFFFFFFFFFFFFFFFFFFFFFFFFFFFFFF AND SWAP1 POP SWAP1 JUMP JUMPDEST PUSH2 0x5BB PUSH2 0xF4E JUMP JUMPDEST PUSH1 0x0 PUSH20 0xFFFFFFFFFFFFFFFFFFFFFFFFFFFFFFFFFFFFFFFF AND DUP2 PUSH20 0xFFFFFFFFFFFFFFFFFFFFFFFFFFFFFFFFFFFFFFFF AND SUB PUSH2 0x62A JUMPI PUSH1 0x40 MLOAD PUSH32 0x8C379A000000000000000000000000000000000000000000000000000000000 DUP2 MSTORE PUSH1 0x4 ADD PUSH2 0x621 SWAP1 PUSH2 0x18CE JUMP JUMPDEST PUSH1 0x40 MLOAD DUP1 SWAP2 SUB SWAP1 REVERT JUMPDEST PUSH2 0x633 DUP2 PUSH2 0xFCC JUMP JUMPDEST POP JUMP JUMPDEST PUSH1 0x60 PUSH1 0x0 PUSH1 0x21 SWAP1 POP PUSH1 0x0 PUSH1 0x42 SWAP1 POP PUSH1 0x0 PUSH2 0x64E PUSH2 0x1090 JUMP JUMPDEST SWAP1 POP PUSH1 0x60 DUP4 DUP3 LT ISZERO PUSH2 0x697 JUMPI PUSH1 0x40 MLOAD DUP1 PUSH1 0x40 ADD PUSH1 0x40 MSTORE DUP1 PUSH1 0x4 DUP2 MSTORE PUSH1 0x20 ADD PUSH32 0x726F636B00000000000000000000000000000000000000000000000000000000 DUP2 MSTORE POP SWAP1 POP PUSH2 0x72A JUMP JUMPDEST DUP4 DUP3 GT DUP1 ISZERO PUSH2 0x6A5 JUMPI POP DUP3 DUP3 LT JUMPDEST ISZERO PUSH2 0x6E7 JUMPI PUSH1 0x40 MLOAD DUP1 PUSH1 0x40 ADD PUSH1 0x40 MSTORE DUP1 PUSH1 0x5 DUP2 MSTORE PUSH1 0x20 ADD PUSH32 0x7061706572000000000000000000000000000000000000000000000000000000 DUP2 MSTORE POP SWAP1 POP PUSH2 0x729 JUMP JUMPDEST DUP3 DUP3 GT ISZERO PUSH2 0x728 JUMPI PUSH1 0x40 MLOAD DUP1 PUSH1 0x40 ADD PUSH1 0x40 MSTORE DUP1 PUSH1 0x8 DUP2 MSTORE PUSH1 0x20 ADD PUSH32 0x73636973736F7273000000000000000000000000000000000000000000000000 DUP2 MSTORE POP SWAP1 POP JUMPDEST JUMPDEST JUMPDEST DUP1 SWAP5 POP POP POP POP POP SWAP1 JUMP JUMPDEST PUSH1 0x0 DUP1 PUSH1 0x40 MLOAD DUP1 PUSH1 0x40 ADD PUSH1 0x40 MSTORE DUP1 PUSH1 0x4 DUP2 MSTORE PUSH1 0x20 ADD PUSH32 0x726F636B00000000000000000000000000000000000000000000000000000000 DUP2 MSTORE POP SWAP1 POP PUSH1 0x0 PUSH1 0x40 MLOAD DUP1 PUSH1 0x40 ADD PUSH1 0x40 MSTORE DUP1 PUSH1 0x5 DUP2 MSTORE PUSH1 0x20 ADD PUSH32 0x7061706572000000000000000000000000000000000000000000000000000000 DUP2 MSTORE POP SWAP1 POP PUSH1 0x0 PUSH1 0x40 MLOAD DUP1 PUSH1 0x40 ADD PUSH1 0x40 MSTORE DUP1 PUSH1 0x8 DUP2 MSTORE PUSH1 0x20 ADD PUSH32 0x73636973736F7273000000000000000000000000000000000000000000000000 DUP2 MSTORE POP SWAP1 POP PUSH1 0x0 DUP4 PUSH1 0x40 MLOAD PUSH1 0x20 ADD PUSH2 0x7F6 SWAP2 SWAP1 PUSH2 0x192A JUMP JUMPDEST PUSH1 0x40 MLOAD PUSH1 0x20 DUP2 DUP4 SUB SUB DUP2 MSTORE SWAP1 PUSH1 0x40 MSTORE DUP1 MLOAD SWAP1 PUSH1 0x20 ADD KECCAK256 DUP8 PUSH1 0x40 MLOAD PUSH1 0x20 ADD PUSH2 0x81D SWAP2 SWAP1 PUSH2 0x192A JUMP JUMPDEST PUSH1 0x40 MLOAD PUSH1 0x20 DUP2 DUP4 SUB SUB DUP2 MSTORE SWAP1 PUSH1 0x40 MSTORE DUP1 MLOAD SWAP1 PUSH1 0x20 ADD KECCAK256 EQ DUP1 ISZERO PUSH2 0x88B JUMPI POP DUP4 PUSH1 0x40 MLOAD PUSH1 0x20 ADD PUSH2 0x84C SWAP2 SWAP1 PUSH2 0x192A JUMP JUMPDEST PUSH1 0x40 MLOAD PUSH1 0x20 DUP2 DUP4 SUB SUB DUP2 MSTORE SWAP1 PUSH1 0x40 MSTORE DUP1 MLOAD SWAP1 PUSH1 0x20 ADD KECCAK256 DUP7 PUSH1 0x40 MLOAD PUSH1 0x20 ADD PUSH2 0x873 SWAP2 SWAP1 PUSH2 0x192A JUMP JUMPDEST PUSH1 0x40 MLOAD PUSH1 0x20 DUP2 DUP4 SUB SUB DUP2 MSTORE SWAP1 PUSH1 0x40 MSTORE DUP1 MLOAD SWAP1 PUSH1 0x20 ADD KECCAK256 EQ JUMPDEST ISZERO PUSH2 0x899 JUMPI PUSH1 0x0 SWAP1 POP PUSH2 0xE3D JUMP JUMPDEST DUP4 PUSH1 0x40 MLOAD PUSH1 0x20 ADD PUSH2 0x8AA SWAP2 SWAP1 PUSH2 0x192A JUMP JUMPDEST PUSH1 0x40 MLOAD PUSH1 0x20 DUP2 DUP4 SUB SUB DUP2 MSTORE SWAP1 PUSH1 0x40 MSTORE DUP1 MLOAD SWAP1 PUSH1 0x20 ADD KECCAK256 DUP8 PUSH1 0x40 MLOAD PUSH1 0x20 ADD PUSH2 0x8D1 SWAP2 SWAP1 PUSH2 0x192A JUMP JUMPDEST PUSH1 0x40 MLOAD PUSH1 0x20 DUP2 DUP4 SUB SUB DUP2 MSTORE SWAP1 PUSH1 0x40 MSTORE DUP1 MLOAD SWAP1 PUSH1 0x20 ADD KECCAK256 EQ DUP1 ISZERO PUSH2 0x93F JUMPI POP DUP3 PUSH1 0x40 MLOAD PUSH1 0x20 ADD PUSH2 0x900 SWAP2 SWAP1 PUSH2 0x192A JUMP JUMPDEST PUSH1 0x40 MLOAD PUSH1 0x20 DUP2 DUP4 SUB SUB DUP2 MSTORE SWAP1 PUSH1 0x40 MSTORE DUP1 MLOAD SWAP1 PUSH1 0x20 ADD KECCAK256 DUP7 PUSH1 0x40 MLOAD PUSH1 0x20 ADD PUSH2 0x927 SWAP2 SWAP1 PUSH2 0x192A JUMP JUMPDEST PUSH1 0x40 MLOAD PUSH1 0x20 DUP2 DUP4 SUB SUB DUP2 MSTORE SWAP1 PUSH1 0x40 MSTORE DUP1 MLOAD SWAP1 PUSH1 0x20 ADD KECCAK256 EQ JUMPDEST ISZERO PUSH2 0x94D JUMPI PUSH1 0x2 SWAP1 POP PUSH2 0xE3C JUMP JUMPDEST DUP4 PUSH1 0x40 MLOAD PUSH1 0x20 ADD PUSH2 0x95E SWAP2 SWAP1 PUSH2 0x192A JUMP JUMPDEST PUSH1 0x40 MLOAD PUSH1 0x20 DUP2 DUP4 SUB SUB DUP2 MSTORE SWAP1 PUSH1 0x40 MSTORE DUP1 MLOAD SWAP1 PUSH1 0x20 ADD KECCAK256 DUP8 PUSH1 0x40 MLOAD PUSH1 0x20 ADD PUSH2 0x985 SWAP2 SWAP1 PUSH2 0x192A JUMP JUMPDEST PUSH1 0x40 MLOAD PUSH1 0x20 DUP2 DUP4 SUB SUB DUP2 MSTORE SWAP1 PUSH1 0x40 MSTORE DUP1 MLOAD SWAP1 PUSH1 0x20 ADD KECCAK256 EQ DUP1 ISZERO PUSH2 0x9F3 JUMPI POP DUP2 PUSH1 0x40 MLOAD PUSH1 0x20 ADD PUSH2 0x9B4 SWAP2 SWAP1 PUSH2 0x192A JUMP JUMPDEST PUSH1 0x40 MLOAD PUSH1 0x20 DUP2 DUP4 SUB SUB DUP2 MSTORE SWAP1 PUSH1 0x40 MSTORE DUP1 MLOAD SWAP1 PUSH1 0x20 ADD KECCAK256 DUP7 PUSH1 0x40 MLOAD PUSH1 0x20 ADD PUSH2 0x9DB SWAP2 SWAP1 PUSH2 0x192A JUMP JUMPDEST PUSH1 0x40 MLOAD PUSH1 0x20 DUP2 DUP4 SUB SUB DUP2 MSTORE SWAP1 PUSH1 0x40 MSTORE DUP1 MLOAD SWAP1 PUSH1 0x20 ADD KECCAK256 EQ JUMPDEST ISZERO PUSH2 0xA01 JUMPI PUSH1 0x1 SWAP1 POP PUSH2 0xE3B JUMP JUMPDEST DUP3 PUSH1 0x40 MLOAD PUSH1 0x20 ADD PUSH2 0xA12 SWAP2 SWAP1 PUSH2 0x192A JUMP JUMPDEST PUSH1 0x40 MLOAD PUSH1 0x20 DUP2 DUP4 SUB SUB DUP2 MSTORE SWAP1 PUSH1 0x40 MSTORE DUP1 MLOAD SWAP1 PUSH1 0x20 ADD KECCAK256 DUP8 PUSH1 0x40 MLOAD PUSH1 0x20 ADD PUSH2 0xA39 SWAP2 SWAP1 PUSH2 0x192A JUMP JUMPDEST PUSH1 0x40 MLOAD PUSH1 0x20 DUP2 DUP4 SUB SUB DUP2 MSTORE SWAP1 PUSH1 0x40 MSTORE DUP1 MLOAD SWAP1 PUSH1 0x20 ADD KECCAK256 EQ DUP1 ISZERO PUSH2 0xAA7 JUMPI POP DUP4 PUSH1 0x40 MLOAD PUSH1 0x20 ADD PUSH2 0xA68 SWAP2 SWAP1 PUSH2 0x192A JUMP JUMPDEST PUSH1 0x40 MLOAD PUSH1 0x20 DUP2 DUP4 SUB SUB DUP2 MSTORE SWAP1 PUSH1 0x40 MSTORE DUP1 MLOAD SWAP1 PUSH1 0x20 ADD KECCAK256 DUP7 PUSH1 0x40 MLOAD PUSH1 0x20 ADD PUSH2 0xA8F SWAP2 SWAP1 PUSH2 0x192A JUMP JUMPDEST PUSH1 0x40 MLOAD PUSH1 0x20 DUP2 DUP4 SUB SUB DUP2 MSTORE SWAP1 PUSH1 0x40 MSTORE DUP1 MLOAD SWAP1 PUSH1 0x20 ADD KECCAK256 EQ JUMPDEST ISZERO PUSH2 0xAB5 JUMPI PUSH1 0x2 SWAP1 POP PUSH2 0xE3A JUMP JUMPDEST DUP3 PUSH1 0x40 MLOAD PUSH1 0x20 ADD PUSH2 0xAC6 SWAP2 SWAP1 PUSH2 0x192A JUMP JUMPDEST PUSH1 0x40 MLOAD PUSH1 0x20 DUP2 DUP4 SUB SUB DUP2 MSTORE SWAP1 PUSH1 0x40 MSTORE DUP1 MLOAD SWAP1 PUSH1 0x20 ADD KECCAK256 DUP8 PUSH1 0x40 MLOAD PUSH1 0x20 ADD PUSH2 0xAED SWAP2 SWAP1 PUSH2 0x192A JUMP JUMPDEST PUSH1 0x40 MLOAD PUSH1 0x20 DUP2 DUP4 SUB SUB DUP2 MSTORE SWAP1 PUSH1 0x40 MSTORE DUP1 MLOAD SWAP1 PUSH1 0x20 ADD KECCAK256 EQ DUP1 ISZERO PUSH2 0xB5B JUMPI POP DUP3 PUSH1 0x40 MLOAD PUSH1 0x20 ADD PUSH2 0xB1C SWAP2 SWAP1 PUSH2 0x192A JUMP JUMPDEST PUSH1 0x40 MLOAD PUSH1 0x20 DUP2 DUP4 SUB SUB DUP2 MSTORE SWAP1 PUSH1 0x40 MSTORE DUP1 MLOAD SWAP1 PUSH1 0x20 ADD KECCAK256 DUP7 PUSH1 0x40 MLOAD PUSH1 0x20 ADD PUSH2 0xB43 SWAP2 SWAP1 PUSH2 0x192A JUMP JUMPDEST PUSH1 0x40 MLOAD PUSH1 0x20 DUP2 DUP4 SUB SUB DUP2 MSTORE SWAP1 PUSH1 0x40 MSTORE DUP1 MLOAD SWAP1 PUSH1 0x20 ADD KECCAK256 EQ JUMPDEST ISZERO PUSH2 0xB69 JUMPI PUSH1 0x0 SWAP1 POP PUSH2 0xE39 JUMP JUMPDEST DUP3 PUSH1 0x40 MLOAD PUSH1 0x20 ADD PUSH2 0xB7A SWAP2 SWAP1 PUSH2 0x192A JUMP JUMPDEST PUSH1 0x40 MLOAD PUSH1 0x20 DUP2 DUP4 SUB SUB DUP2 MSTORE SWAP1 PUSH1 0x40 MSTORE DUP1 MLOAD SWAP1 PUSH1 0x20 ADD KECCAK256 DUP8 PUSH1 0x40 MLOAD PUSH1 0x20 ADD PUSH2 0xBA1 SWAP2 SWAP1 PUSH2 0x192A JUMP JUMPDEST PUSH1 0x40 MLOAD PUSH1 0x20 DUP2 DUP4 SUB SUB DUP2 MSTORE SWAP1 PUSH1 0x40 MSTORE DUP1 MLOAD SWAP1 PUSH1 0x20 ADD KECCAK256 EQ DUP1 ISZERO PUSH2 0xC0F JUMPI POP DUP2 PUSH1 0x40 MLOAD PUSH1 0x20 ADD PUSH2 0xBD0 SWAP2 SWAP1 PUSH2 0x192A JUMP JUMPDEST PUSH1 0x40 MLOAD PUSH1 0x20 DUP2 DUP4 SUB SUB DUP2 MSTORE SWAP1 PUSH1 0x40 MSTORE DUP1 MLOAD SWAP1 PUSH1 0x20 ADD KECCAK256 DUP7 PUSH1 0x40 MLOAD PUSH1 0x20 ADD PUSH2 0xBF7 SWAP2 SWAP1 PUSH2 0x192A JUMP JUMPDEST PUSH1 0x40 MLOAD PUSH1 0x20 DUP2 DUP4 SUB SUB DUP2 MSTORE SWAP1 PUSH1 0x40 MSTORE DUP1 MLOAD SWAP1 PUSH1 0x20 ADD KECCAK256 EQ JUMPDEST ISZERO PUSH2 0xC1D JUMPI PUSH1 0x2 SWAP1 POP PUSH2 0xE38 JUMP JUMPDEST DUP2 PUSH1 0x40 MLOAD PUSH1 0x20 ADD PUSH2 0xC2E SWAP2 SWAP1 PUSH2 0x192A JUMP JUMPDEST PUSH1 0x40 MLOAD PUSH1 0x20 DUP2 DUP4 SUB SUB DUP2 MSTORE SWAP1 PUSH1 0x40 MSTORE DUP1 MLOAD SWAP1 PUSH1 0x20 ADD KECCAK256 DUP8 PUSH1 0x40 MLOAD PUSH1 0x20 ADD PUSH2 0xC55 SWAP2 SWAP1 PUSH2 0x192A JUMP JUMPDEST PUSH1 0x40 MLOAD PUSH1 0x20 DUP2 DUP4 SUB SUB DUP2 MSTORE SWAP1 PUSH1 0x40 MSTORE DUP1 MLOAD SWAP1 PUSH1 0x20 ADD KECCAK256 EQ DUP1 ISZERO PUSH2 0xCC3 JUMPI POP DUP4 PUSH1 0x40 MLOAD PUSH1 0x20 ADD PUSH2 0xC84 SWAP2 SWAP1 PUSH2 0x192A JUMP JUMPDEST PUSH1 0x40 MLOAD PUSH1 0x20 DUP2 DUP4 SUB SUB DUP2 MSTORE SWAP1 PUSH1 0x40 MSTORE DUP1 MLOAD SWAP1 PUSH1 0x20 ADD KECCAK256 DUP7 PUSH1 0x40 MLOAD PUSH1 0x20 ADD PUSH2 0xCAB SWAP2 SWAP1 PUSH2 0x192A JUMP JUMPDEST PUSH1 0x40 MLOAD PUSH1 0x20 DUP2 DUP4 SUB SUB DUP2 MSTORE SWAP1 PUSH1 0x40 MSTORE DUP1 MLOAD SWAP1 PUSH1 0x20 ADD KECCAK256 EQ JUMPDEST ISZERO PUSH2 0xCD1 JUMPI PUSH1 0x2 SWAP1 POP PUSH2 0xE37 JUMP JUMPDEST DUP2 PUSH1 0x40 MLOAD PUSH1 0x20 ADD PUSH2 0xCE2 SWAP2 SWAP1 PUSH2 0x192A JUMP JUMPDEST PUSH1 0x40 MLOAD PUSH1 0x20 DUP2 DUP4 SUB SUB DUP2 MSTORE SWAP1 PUSH1 0x40 MSTORE DUP1 MLOAD SWAP1 PUSH1 0x20 ADD KECCAK256 DUP8 PUSH1 0x40 MLOAD PUSH1 0x20 ADD PUSH2 0xD09 SWAP2 SWAP1 PUSH2 0x192A JUMP JUMPDEST PUSH1 0x40 MLOAD PUSH1 0x20 DUP2 DUP4 SUB SUB DUP2 MSTORE SWAP1 PUSH1 0x40 MSTORE DUP1 MLOAD SWAP1 PUSH1 0x20 ADD KECCAK256 EQ DUP1 ISZERO PUSH2 0xD77 JUMPI POP DUP3 PUSH1 0x40 MLOAD PUSH1 0x20 ADD PUSH2 0xD38 SWAP2 SWAP1 PUSH2 0x192A JUMP JUMPDEST PUSH1 0x40 MLOAD PUSH1 0x20 DUP2 DUP4 SUB SUB DUP2 MSTORE SWAP1 PUSH1 0x40 MSTORE DUP1 MLOAD SWAP1 PUSH1 0x20 ADD KECCAK256 DUP7 PUSH1 0x40 MLOAD PUSH1 0x20 ADD PUSH2 0xD5F SWAP2 SWAP1 PUSH2 0x192A JUMP JUMPDEST PUSH1 0x40 MLOAD PUSH1 0x20 DUP2 DUP4 SUB SUB DUP2 MSTORE SWAP1 PUSH1 0x40 MSTORE DUP1 MLOAD SWAP1 PUSH1 0x20 ADD KECCAK256 EQ JUMPDEST ISZERO PUSH2 0xD85 JUMPI PUSH1 0x1 SWAP1 POP PUSH2 0xE36 JUMP JUMPDEST DUP2 PUSH1 0x40 MLOAD PUSH1 0x20 ADD PUSH2 0xD96 SWAP2 SWAP1 PUSH2 0x192A JUMP JUMPDEST PUSH1 0x40 MLOAD PUSH1 0x20 DUP2 DUP4 SUB SUB DUP2 MSTORE SWAP1 PUSH1 0x40 MSTORE DUP1 MLOAD SWAP1 PUSH1 0x20 ADD KECCAK256 DUP8 PUSH1 0x40 MLOAD PUSH1 0x20 ADD PUSH2 0xDBD SWAP2 SWAP1 PUSH2 0x192A JUMP JUMPDEST PUSH1 0x40 MLOAD PUSH1 0x20 DUP2 DUP4 SUB SUB DUP2 MSTORE SWAP1 PUSH1 0x40 MSTORE DUP1 MLOAD SWAP1 PUSH1 0x20 ADD KECCAK256 EQ DUP1 ISZERO PUSH2 0xE2B JUMPI POP DUP2 PUSH1 0x40 MLOAD PUSH1 0x20 ADD PUSH2 0xDEC SWAP2 SWAP1 PUSH2 0x192A JUMP JUMPDEST PUSH1 0x40 MLOAD PUSH1 0x20 DUP2 DUP4 SUB SUB DUP2 MSTORE SWAP1 PUSH1 0x40 MSTORE DUP1 MLOAD SWAP1 PUSH1 0x20 ADD KECCAK256 DUP7 PUSH1 0x40 MLOAD PUSH1 0x20 ADD PUSH2 0xE13 SWAP2 SWAP1 PUSH2 0x192A JUMP JUMPDEST PUSH1 0x40 MLOAD PUSH1 0x20 DUP2 DUP4 SUB SUB DUP2 MSTORE SWAP1 PUSH1 0x40 MSTORE DUP1 MLOAD SWAP1 PUSH1 0x20 ADD KECCAK256 EQ JUMPDEST ISZERO PUSH2 0xE35 JUMPI PUSH1 0x0 SWAP1 POP JUMPDEST JUMPDEST JUMPDEST JUMPDEST JUMPDEST JUMPDEST JUMPDEST JUMPDEST JUMPDEST DUP1 SWAP5 POP POP POP POP POP SWAP3 SWAP2 POP POP JUMP JUMPDEST PUSH1 0x60 DUP1 PUSH1 0x60 PUSH1 0x0 DUP5 SUB PUSH2 0xE94 JUMPI PUSH1 0x40 MLOAD DUP1 PUSH1 0x40 ADD PUSH1 0x40 MSTORE DUP1 PUSH1 0x1B DUP2 MSTORE PUSH1 0x20 ADD PUSH32 0x2E205468652067616D6520656E64656420696E206120647261772E0000000000 DUP2 MSTORE POP SWAP1 POP PUSH2 0xF1C JUMP JUMPDEST PUSH1 0x1 DUP5 SUB PUSH2 0xED9 JUMPI PUSH1 0x40 MLOAD DUP1 PUSH1 0x40 ADD PUSH1 0x40 MSTORE DUP1 PUSH1 0x13 DUP2 MSTORE PUSH1 0x20 ADD PUSH32 0x2E20596F7520776F6E207468652067616D652E00000000000000000000000000 DUP2 MSTORE POP SWAP1 POP PUSH2 0xF1B JUMP JUMPDEST PUSH1 0x2 DUP5 SUB PUSH2 0xF1A JUMPI PUSH1 0x40 MLOAD DUP1 PUSH1 0x40 ADD PUSH1 0x40 MSTORE DUP1 PUSH1 0x14 DUP2 MSTORE PUSH1 0x20 ADD PUSH32 0x2E20596F75206C6F7374207468652067616D652E000000000000000000000000 DUP2 MSTORE POP SWAP1 POP JUMPDEST JUMPDEST JUMPDEST DUP6 DUP6 DUP3 PUSH1 0x40 MLOAD PUSH1 0x20 ADD PUSH2 0xF31 SWAP4 SWAP3 SWAP2 SWAP1 PUSH2 0x19D9 JUMP JUMPDEST PUSH1 0x40 MLOAD PUSH1 0x20 DUP2 DUP4 SUB SUB DUP2 MSTORE SWAP1 PUSH1 0x40 MSTORE SWAP2 POP DUP2 SWAP3 POP POP POP SWAP4 SWAP3 POP POP POP JUMP JUMPDEST PUSH2 0xF56 PUSH2 0x10EB JUMP JUMPDEST PUSH20 0xFFFFFFFFFFFFFFFFFFFFFFFFFFFFFFFFFFFFFFFF AND PUSH2 0xF74 PUSH2 0x58A JUMP JUMPDEST PUSH20 0xFFFFFFFFFFFFFFFFFFFFFFFFFFFFFFFFFFFFFFFF AND EQ PUSH2 0xFCA JUMPI PUSH1 0x40 MLOAD PUSH32 0x8C379A000000000000000000000000000000000000000000000000000000000 DUP2 MSTORE PUSH1 0x4 ADD PUSH2 0xFC1 SWAP1 PUSH2 0x1A6C JUMP JUMPDEST PUSH1 0x40 MLOAD DUP1 SWAP2 SUB SWAP1 REVERT JUMPDEST JUMP JUMPDEST PUSH1 0x0 DUP1 PUSH1 0x0 SWAP1 SLOAD SWAP1 PUSH2 0x100 EXP SWAP1 DIV PUSH20 0xFFFFFFFFFFFFFFFFFFFFFFFFFFFFFFFFFFFFFFFF AND SWAP1 POP DUP2 PUSH1 0x0 DUP1 PUSH2 0x100 EXP DUP2 SLOAD DUP2 PUSH20 0xFFFFFFFFFFFFFFFFFFFFFFFFFFFFFFFFFFFFFFFF MUL NOT AND SWAP1 DUP4 PUSH20 0xFFFFFFFFFFFFFFFFFFFFFFFFFFFFFFFFFFFFFFFF AND MUL OR SWAP1 SSTORE POP DUP2 PUSH20 0xFFFFFFFFFFFFFFFFFFFFFFFFFFFFFFFFFFFFFFFF AND DUP2 PUSH20 0xFFFFFFFFFFFFFFFFFFFFFFFFFFFFFFFFFFFFFFFF AND PUSH32 0x8BE0079C531659141344CD1FD0A4F28419497F9722A3DAAFE3B4186F6B6457E0 PUSH1 0x40 MLOAD PUSH1 0x40 MLOAD DUP1 SWAP2 SUB SWAP1 LOG3 POP POP JUMP JUMPDEST PUSH1 0x0 DUP1 PUSH1 0x0 SWAP1 POP PUSH1 0x0 PUSH1 0x64 SWAP1 POP DUP2 DUP1 PUSH2 0x10A8 SWAP1 PUSH2 0x1814 JUMP JUMPDEST SWAP3 POP POP DUP1 TIMESTAMP CALLER DUP5 PUSH1 0x40 MLOAD PUSH1 0x20 ADD PUSH2 0x10C1 SWAP4 SWAP3 SWAP2 SWAP1 PUSH2 0x1AF5 JUMP JUMPDEST PUSH1 0x40 MLOAD PUSH1 0x20 DUP2 DUP4 SUB SUB DUP2 MSTORE SWAP1 PUSH1 0x40 MSTORE DUP1 MLOAD SWAP1 PUSH1 0x20 ADD KECCAK256 PUSH1 0x0 SHR PUSH2 0x10E4 SWAP2 SWAP1 PUSH2 0x1B61 JUMP JUMPDEST SWAP3 POP POP POP SWAP1 JUMP JUMPDEST PUSH1 0x0 CALLER SWAP1 POP SWAP1 JUMP JUMPDEST PUSH1 0x0 PUSH1 0x40 MLOAD SWAP1 POP SWAP1 JUMP JUMPDEST PUSH1 0x0 DUP1 REVERT JUMPDEST PUSH1 0x0 DUP1 REVERT JUMPDEST PUSH1 0x0 DUP2 SWAP1 POP SWAP2 SWAP1 POP JUMP JUMPDEST PUSH2 0x111A DUP2 PUSH2 0x1107 JUMP JUMPDEST DUP2 EQ PUSH2 0x1125 JUMPI PUSH1 0x0 DUP1 REVERT JUMPDEST POP JUMP JUMPDEST PUSH1 0x0 DUP2 CALLDATALOAD SWAP1 POP PUSH2 0x1137 DUP2 PUSH2 0x1111 JUMP JUMPDEST SWAP3 SWAP2 POP POP JUMP JUMPDEST PUSH1 0x0 PUSH1 0x20 DUP3 DUP5 SUB SLT ISZERO PUSH2 0x1153 JUMPI PUSH2 0x1152 PUSH2 0x10FD JUMP JUMPDEST JUMPDEST PUSH1 0x0 PUSH2 0x1161 DUP5 DUP3 DUP6 ADD PUSH2 0x1128 JUMP JUMPDEST SWAP2 POP POP SWAP3 SWAP2 POP POP JUMP JUMPDEST PUSH1 0x0 DUP2 MLOAD SWAP1 POP SWAP2 SWAP1 POP JUMP JUMPDEST PUSH1 0x0 DUP3 DUP3 MSTORE PUSH1 0x20 DUP3 ADD SWAP1 POP SWAP3 SWAP2 POP POP JUMP JUMPDEST PUSH1 0x0 JUMPDEST DUP4 DUP2 LT ISZERO PUSH2 0x11A4 JUMPI DUP1 DUP3 ADD MLOAD DUP2 DUP5 ADD MSTORE PUSH1 0x20 DUP2 ADD SWAP1 POP PUSH2 0x1189 JUMP JUMPDEST PUSH1 0x0 DUP5 DUP5 ADD MSTORE POP POP POP POP JUMP JUMPDEST PUSH1 0x0 PUSH1 0x1F NOT PUSH1 0x1F DUP4 ADD AND SWAP1 POP SWAP2 SWAP1 POP JUMP JUMPDEST PUSH1 0x0 PUSH2 0x11CC DUP3 PUSH2 0x116A JUMP JUMPDEST PUSH2 0x11D6 DUP2 DUP6 PUSH2 0x1175 JUMP JUMPDEST SWAP4 POP PUSH2 0x11E6 DUP2 DUP6 PUSH1 0x20 DUP7 ADD PUSH2 0x1186 JUMP JUMPDEST PUSH2 0x11EF DUP2 PUSH2 0x11B0 JUMP JUMPDEST DUP5 ADD SWAP2 POP POP SWAP3 SWAP2 POP POP JUMP JUMPDEST PUSH2 0x1203 DUP2 PUSH2 0x1107 JUMP JUMPDEST DUP3 MSTORE POP POP JUMP JUMPDEST PUSH1 0x0 PUSH1 0x80 DUP3 ADD SWAP1 POP DUP2 DUP2 SUB PUSH1 0x0 DUP4 ADD MSTORE PUSH2 0x1223 DUP2 DUP8 PUSH2 0x11C1 JUMP JUMPDEST SWAP1 POP DUP2 DUP2 SUB PUSH1 0x20 DUP4 ADD MSTORE PUSH2 0x1237 DUP2 DUP7 PUSH2 0x11C1 JUMP JUMPDEST SWAP1 POP PUSH2 0x1246 PUSH1 0x40 DUP4 ADD DUP6 PUSH2 0x11FA JUMP JUMPDEST DUP2 DUP2 SUB PUSH1 0x60 DUP4 ADD MSTORE PUSH2 0x1258 DUP2 DUP5 PUSH2 0x11C1 JUMP JUMPDEST SWAP1 POP SWAP6 SWAP5 POP POP POP POP POP JUMP JUMPDEST PUSH1 0x0 PUSH20 0xFFFFFFFFFFFFFFFFFFFFFFFFFFFFFFFFFFFFFFFF DUP3 AND SWAP1 POP SWAP2 SWAP1 POP JUMP JUMPDEST PUSH1 0x0 PUSH2 0x128E DUP3 PUSH2 0x1263 JUMP JUMPDEST SWAP1 POP SWAP2 SWAP1 POP JUMP JUMPDEST PUSH2 0x129E DUP2 PUSH2 0x1283 JUMP JUMPDEST DUP3 MSTORE POP POP JUMP JUMPDEST PUSH1 0x0 PUSH1 0x20 DUP3 ADD SWAP1 POP PUSH2 0x12B9 PUSH1 0x0 DUP4 ADD DUP5 PUSH2 0x1295 JUMP JUMPDEST SWAP3 SWAP2 POP POP JUMP JUMPDEST PUSH2 0x12C8 DUP2 PUSH2 0x1283 JUMP JUMPDEST DUP2 EQ PUSH2 0x12D3 JUMPI PUSH1 0x0 DUP1 REVERT JUMPDEST POP JUMP JUMPDEST PUSH1 0x0 DUP2 CALLDATALOAD SWAP1 POP PUSH2 0x12E5 DUP2 PUSH2 0x12BF JUMP JUMPDEST SWAP3 SWAP2 POP POP JUMP JUMPDEST PUSH1 0x0 PUSH1 0x20 DUP3 DUP5 SUB SLT ISZERO PUSH2 0x1301 JUMPI PUSH2 0x1300 PUSH2 0x10FD JUMP JUMPDEST JUMPDEST PUSH1 0x0 PUSH2 0x130F DUP5 DUP3 DUP6 ADD PUSH2 0x12D6 JUMP JUMPDEST SWAP2 POP POP SWAP3 SWAP2 POP POP JUMP JUMPDEST PUSH1 0x0 PUSH1 0x20 DUP3 ADD SWAP1 POP PUSH2 0x132D PUSH1 0x0 DUP4 ADD DUP5 PUSH2 0x11FA JUMP JUMPDEST SWAP3 SWAP2 POP POP JUMP JUMPDEST PUSH1 0x0 DUP1 REVERT JUMPDEST PUSH1 0x0 DUP1 REVERT JUMPDEST PUSH32 0x4E487B7100000000000000000000000000000000000000000000000000000000 PUSH1 0x0 MSTORE PUSH1 0x41 PUSH1 0x4 MSTORE PUSH1 0x24 PUSH1 0x0 REVERT JUMPDEST PUSH2 0x1375 DUP3 PUSH2 0x11B0 JUMP JUMPDEST DUP2 ADD DUP2 DUP2 LT PUSH8 0xFFFFFFFFFFFFFFFF DUP3 GT OR ISZERO PUSH2 0x1394 JUMPI PUSH2 0x1393 PUSH2 0x133D JUMP JUMPDEST JUMPDEST DUP1 PUSH1 0x40 MSTORE POP POP POP JUMP JUMPDEST PUSH1 0x0 PUSH2 0x13A7 PUSH2 0x10F3 JUMP JUMPDEST SWAP1 POP PUSH2 0x13B3 DUP3 DUP3 PUSH2 0x136C JUMP JUMPDEST SWAP2 SWAP1 POP JUMP JUMPDEST PUSH1 0x0 PUSH8 0xFFFFFFFFFFFFFFFF DUP3 GT ISZERO PUSH2 0x13D3 JUMPI PUSH2 0x13D2 PUSH2 0x133D JUMP JUMPDEST JUMPDEST PUSH2 0x13DC DUP3 PUSH2 0x11B0 JUMP JUMPDEST SWAP1 POP PUSH1 0x20 DUP2 ADD SWAP1 POP SWAP2 SWAP1 POP JUMP JUMPDEST DUP3 DUP2 DUP4 CALLDATACOPY PUSH1 0x0 DUP4 DUP4 ADD MSTORE POP POP POP JUMP JUMPDEST PUSH1 0x0 PUSH2 0x140B PUSH2 0x1406 DUP5 PUSH2 0x13B8 JUMP JUMPDEST PUSH2 0x139D JUMP JUMPDEST SWAP1 POP DUP3 DUP2 MSTORE PUSH1 0x20 DUP2 ADD DUP5 DUP5 DUP5 ADD GT ISZERO PUSH2 0x1427 JUMPI PUSH2 0x1426 PUSH2 0x1338 JUMP JUMPDEST JUMPDEST PUSH2 0x1432 DUP5 DUP3 DUP6 PUSH2 0x13E9 JUMP JUMPDEST POP SWAP4 SWAP3 POP POP POP JUMP JUMPDEST PUSH1 0x0 DUP3 PUSH1 0x1F DUP4 ADD SLT PUSH2 0x144F JUMPI PUSH2 0x144E PUSH2 0x1333 JUMP JUMPDEST JUMPDEST DUP2 CALLDATALOAD PUSH2 0x145F DUP5 DUP3 PUSH1 0x20 DUP7 ADD PUSH2 0x13F8 JUMP JUMPDEST SWAP2 POP POP SWAP3 SWAP2 POP POP JUMP JUMPDEST PUSH1 0x0 PUSH1 0x20 DUP3 DUP5 SUB SLT ISZERO PUSH2 0x147E JUMPI PUSH2 0x147D PUSH2 0x10FD JUMP JUMPDEST JUMPDEST PUSH1 0x0 DUP3 ADD CALLDATALOAD PUSH8 0xFFFFFFFFFFFFFFFF DUP2 GT ISZERO PUSH2 0x149C JUMPI PUSH2 0x149B PUSH2 0x1102 JUMP JUMPDEST JUMPDEST PUSH2 0x14A8 DUP5 DUP3 DUP6 ADD PUSH2 0x143A JUMP JUMPDEST SWAP2 POP POP SWAP3 SWAP2 POP POP JUMP JUMPDEST PUSH1 0x0 PUSH1 0x20 DUP3 ADD SWAP1 POP DUP2 DUP2 SUB PUSH1 0x0 DUP4 ADD MSTORE PUSH2 0x14CB DUP2 DUP5 PUSH2 0x11C1 JUMP JUMPDEST SWAP1 POP SWAP3 SWAP2 POP POP JUMP JUMPDEST PUSH32 0x4E487B7100000000000000000000000000000000000000000000000000000000 PUSH1 0x0 MSTORE PUSH1 0x22 PUSH1 0x4 MSTORE PUSH1 0x24 PUSH1 0x0 REVERT JUMPDEST PUSH1 0x0 PUSH1 0x2 DUP3 DIV SWAP1 POP PUSH1 0x1 DUP3 AND DUP1 PUSH2 0x151A JUMPI PUSH1 0x7F DUP3 AND SWAP2 POP JUMPDEST PUSH1 0x20 DUP3 LT DUP2 SUB PUSH2 0x152D JUMPI PUSH2 0x152C PUSH2 0x14D3 JUMP JUMPDEST JUMPDEST POP SWAP2 SWAP1 POP JUMP JUMPDEST PUSH1 0x0 DUP2 SWAP1 POP DUP2 PUSH1 0x0 MSTORE PUSH1 0x20 PUSH1 0x0 KECCAK256 SWAP1 POP SWAP2 SWAP1 POP JUMP JUMPDEST PUSH1 0x0 PUSH1 0x20 PUSH1 0x1F DUP4 ADD DIV SWAP1 POP SWAP2 SWAP1 POP JUMP JUMPDEST PUSH1 0x0 DUP3 DUP3 SHL SWAP1 POP SWAP3 SWAP2 POP POP JUMP JUMPDEST PUSH1 0x0 PUSH1 0x8 DUP4 MUL PUSH2 0x1595 PUSH32 0xFFFFFFFFFFFFFFFFFFFFFFFFFFFFFFFFFFFFFFFFFFFFFFFFFFFFFFFFFFFFFFFF DUP3 PUSH2 0x1558 JUMP JUMPDEST PUSH2 0x159F DUP7 DUP4 PUSH2 0x1558 JUMP JUMPDEST SWAP6 POP DUP1 NOT DUP5 AND SWAP4 POP DUP1 DUP7 AND DUP5 OR SWAP3 POP POP POP SWAP4 SWAP3 POP POP POP JUMP JUMPDEST PUSH1 0x0 DUP2 SWAP1 POP SWAP2 SWAP1 POP JUMP JUMPDEST PUSH1 0x0 PUSH2 0x15DC PUSH2 0x15D7 PUSH2 0x15D2 DUP5 PUSH2 0x1107 JUMP JUMPDEST PUSH2 0x15B7 JUMP JUMPDEST PUSH2 0x1107 JUMP JUMPDEST SWAP1 POP SWAP2 SWAP1 POP JUMP JUMPDEST PUSH1 0x0 DUP2 SWAP1 POP SWAP2 SWAP1 POP JUMP JUMPDEST PUSH2 0x15F6 DUP4 PUSH2 0x15C1 JUMP JUMPDEST PUSH2 0x160A PUSH2 0x1602 DUP3 PUSH2 0x15E3 JUMP JUMPDEST DUP5 DUP5 SLOAD PUSH2 0x1565 JUMP JUMPDEST DUP3 SSTORE POP POP POP POP JUMP JUMPDEST PUSH1 0x0 SWAP1 JUMP JUMPDEST PUSH2 0x161F PUSH2 0x1612 JUMP JUMPDEST PUSH2 0x162A DUP2 DUP5 DUP5 PUSH2 0x15ED JUMP JUMPDEST POP POP POP JUMP JUMPDEST JUMPDEST DUP2 DUP2 LT ISZERO PUSH2 0x164E JUMPI PUSH2 0x1643 PUSH1 0x0 DUP3 PUSH2 0x1617 JUMP JUMPDEST PUSH1 0x1 DUP2 ADD SWAP1 POP PUSH2 0x1630 JUMP JUMPDEST POP POP JUMP JUMPDEST PUSH1 0x1F DUP3 GT ISZERO PUSH2 0x1693 JUMPI PUSH2 0x1664 DUP2 PUSH2 0x1533 JUMP JUMPDEST PUSH2 0x166D DUP5 PUSH2 0x1548 JUMP JUMPDEST DUP2 ADD PUSH1 0x20 DUP6 LT ISZERO PUSH2 0x167C JUMPI DUP2 SWAP1 POP JUMPDEST PUSH2 0x1690 PUSH2 0x1688 DUP6 PUSH2 0x1548 JUMP JUMPDEST DUP4 ADD DUP3 PUSH2 0x162F JUMP JUMPDEST POP POP JUMPDEST POP POP POP JUMP JUMPDEST PUSH1 0x0 DUP3 DUP3 SHR SWAP1 POP SWAP3 SWAP2 POP POP JUMP JUMPDEST PUSH1 0x0 PUSH2 0x16B6 PUSH1 0x0 NOT DUP5 PUSH1 0x8 MUL PUSH2 0x1698 JUMP JUMPDEST NOT DUP1 DUP4 AND SWAP2 POP POP SWAP3 SWAP2 POP POP JUMP JUMPDEST PUSH1 0x0 PUSH2 0x16CF DUP4 DUP4 PUSH2 0x16A5 JUMP JUMPDEST SWAP2 POP DUP3 PUSH1 0x2 MUL DUP3 OR SWAP1 POP SWAP3 SWAP2 POP POP JUMP JUMPDEST PUSH2 0x16E8 DUP3 PUSH2 0x116A JUMP JUMPDEST PUSH8 0xFFFFFFFFFFFFFFFF DUP2 GT ISZERO PUSH2 0x1701 JUMPI PUSH2 0x1700 PUSH2 0x133D JUMP JUMPDEST JUMPDEST PUSH2 0x170B DUP3 SLOAD PUSH2 0x1502 JUMP JUMPDEST PUSH2 0x1716 DUP3 DUP3 DUP6 PUSH2 0x1652 JUMP JUMPDEST PUSH1 0x0 PUSH1 0x20 SWAP1 POP PUSH1 0x1F DUP4 GT PUSH1 0x1 DUP2 EQ PUSH2 0x1749 JUMPI PUSH1 0x0 DUP5 ISZERO PUSH2 0x1737 JUMPI DUP3 DUP8 ADD MLOAD SWAP1 POP JUMPDEST PUSH2 0x1741 DUP6 DUP3 PUSH2 0x16C3 JUMP JUMPDEST DUP7 SSTORE POP PUSH2 0x17A9 JUMP JUMPDEST PUSH1 0x1F NOT DUP5 AND PUSH2 0x1757 DUP7 PUSH2 0x1533 JUMP JUMPDEST PUSH1 0x0 JUMPDEST DUP3 DUP2 LT ISZERO PUSH2 0x177F JUMPI DUP5 DUP10 ADD MLOAD DUP3 SSTORE PUSH1 0x1 DUP3 ADD SWAP2 POP PUSH1 0x20 DUP6 ADD SWAP5 POP PUSH1 0x20 DUP2 ADD SWAP1 POP PUSH2 0x175A JUMP JUMPDEST DUP7 DUP4 LT ISZERO PUSH2 0x179C JUMPI DUP5 DUP10 ADD MLOAD PUSH2 0x1798 PUSH1 0x1F DUP10 AND DUP3 PUSH2 0x16A5 JUMP JUMPDEST DUP4 SSTORE POP JUMPDEST PUSH1 0x1 PUSH1 0x2 DUP9 MUL ADD DUP9 SSTORE POP POP POP JUMPDEST POP POP POP POP POP POP JUMP JUMPDEST PUSH32 0x4E487B7100000000000000000000000000000000000000000000000000000000 PUSH1 0x0 MSTORE PUSH1 0x11 PUSH1 0x4 MSTORE PUSH1 0x24 PUSH1 0x0 REVERT JUMPDEST PUSH1 0x0 PUSH2 0x17EB DUP3 PUSH2 0x1107 JUMP JUMPDEST SWAP2 POP PUSH2 0x17F6 DUP4 PUSH2 0x1107 JUMP JUMPDEST SWAP3 POP DUP3 DUP3 SUB SWAP1 POP DUP2 DUP2 GT ISZERO PUSH2 0x180E JUMPI PUSH2 0x180D PUSH2 0x17B1 JUMP JUMPDEST JUMPDEST SWAP3 SWAP2 POP POP JUMP JUMPDEST PUSH1 0x0 PUSH2 0x181F DUP3 PUSH2 0x1107 JUMP JUMPDEST SWAP2 POP PUSH32 0xFFFFFFFFFFFFFFFFFFFFFFFFFFFFFFFFFFFFFFFFFFFFFFFFFFFFFFFFFFFFFFFF DUP3 SUB PUSH2 0x1851 JUMPI PUSH2 0x1850 PUSH2 0x17B1 JUMP JUMPDEST JUMPDEST PUSH1 0x1 DUP3 ADD SWAP1 POP SWAP2 SWAP1 POP JUMP JUMPDEST PUSH32 0x4F776E61626C653A206E6577206F776E657220697320746865207A65726F2061 PUSH1 0x0 DUP3 ADD MSTORE PUSH32 0x6464726573730000000000000000000000000000000000000000000000000000 PUSH1 0x20 DUP3 ADD MSTORE POP JUMP JUMPDEST PUSH1 0x0 PUSH2 0x18B8 PUSH1 0x26 DUP4 PUSH2 0x1175 JUMP JUMPDEST SWAP2 POP PUSH2 0x18C3 DUP3 PUSH2 0x185C JUMP JUMPDEST PUSH1 0x40 DUP3 ADD SWAP1 POP SWAP2 SWAP1 POP JUMP JUMPDEST PUSH1 0x0 PUSH1 0x20 DUP3 ADD SWAP1 POP DUP2 DUP2 SUB PUSH1 0x0 DUP4 ADD MSTORE PUSH2 0x18E7 DUP2 PUSH2 0x18AB JUMP JUMPDEST SWAP1 POP SWAP2 SWAP1 POP JUMP JUMPDEST PUSH1 0x0 DUP2 SWAP1 POP SWAP3 SWAP2 POP POP JUMP JUMPDEST PUSH1 0x0 PUSH2 0x1904 DUP3 PUSH2 0x116A JUMP JUMPDEST PUSH2 0x190E DUP2 DUP6 PUSH2 0x18EE JUMP JUMPDEST SWAP4 POP PUSH2 0x191E DUP2 DUP6 PUSH1 0x20 DUP7 ADD PUSH2 0x1186 JUMP JUMPDEST DUP1 DUP5 ADD SWAP2 POP POP SWAP3 SWAP2 POP POP JUMP JUMPDEST PUSH1 0x0 PUSH2 0x1936 DUP3 DUP5 PUSH2 0x18F9 JUMP JUMPDEST SWAP2 POP DUP2 SWAP1 POP SWAP3 SWAP2 POP POP JUMP JUMPDEST PUSH32 0x596F75207069636B656420000000000000000000000000000000000000000000 PUSH1 0x0 DUP3 ADD MSTORE POP JUMP JUMPDEST PUSH1 0x0 PUSH2 0x1977 PUSH1 0xB DUP4 PUSH2 0x18EE JUMP JUMPDEST SWAP2 POP PUSH2 0x1982 DUP3 PUSH2 0x1941 JUMP JUMPDEST PUSH1 0xB DUP3 ADD SWAP1 POP SWAP2 SWAP1 POP JUMP JUMPDEST PUSH32 0x20616E642074686520636F6D7075746572207069636B65642000000000000000 PUSH1 0x0 DUP3 ADD MSTORE POP JUMP JUMPDEST PUSH1 0x0 PUSH2 0x19C3 PUSH1 0x19 DUP4 PUSH2 0x18EE JUMP JUMPDEST SWAP2 POP PUSH2 0x19CE DUP3 PUSH2 0x198D JUMP JUMPDEST PUSH1 0x19 DUP3 ADD SWAP1 POP SWAP2 SWAP1 POP JUMP JUMPDEST PUSH1 0x0 PUSH2 0x19E4 DUP3 PUSH2 0x196A JUMP JUMPDEST SWAP2 POP PUSH2 0x19F0 DUP3 DUP7 PUSH2 0x18F9 JUMP JUMPDEST SWAP2 POP PUSH2 0x19FB DUP3 PUSH2 0x19B6 JUMP JUMPDEST SWAP2 POP PUSH2 0x1A07 DUP3 DUP6 PUSH2 0x18F9 JUMP JUMPDEST SWAP2 POP PUSH2 0x1A13 DUP3 DUP5 PUSH2 0x18F9 JUMP JUMPDEST SWAP2 POP DUP2 SWAP1 POP SWAP5 SWAP4 POP POP POP POP JUMP JUMPDEST PUSH32 0x4F776E61626C653A2063616C6C6572206973206E6F7420746865206F776E6572 PUSH1 0x0 DUP3 ADD MSTORE POP JUMP JUMPDEST PUSH1 0x0 PUSH2 0x1A56 PUSH1 0x20 DUP4 PUSH2 0x1175 JUMP JUMPDEST SWAP2 POP PUSH2 0x1A61 DUP3 PUSH2 0x1A20 JUMP JUMPDEST PUSH1 0x20 DUP3 ADD SWAP1 POP SWAP2 SWAP1 POP JUMP JUMPDEST PUSH1 0x0 PUSH1 0x20 DUP3 ADD SWAP1 POP DUP2 DUP2 SUB PUSH1 0x0 DUP4 ADD MSTORE PUSH2 0x1A85 DUP2 PUSH2 0x1A49 JUMP JUMPDEST SWAP1 POP SWAP2 SWAP1 POP JUMP JUMPDEST PUSH1 0x0 DUP2 SWAP1 POP SWAP2 SWAP1 POP JUMP JUMPDEST PUSH2 0x1AA7 PUSH2 0x1AA2 DUP3 PUSH2 0x1107 JUMP JUMPDEST PUSH2 0x1A8C JUMP JUMPDEST DUP3 MSTORE POP POP JUMP JUMPDEST PUSH1 0x0 DUP2 PUSH1 0x60 SHL SWAP1 POP SWAP2 SWAP1 POP JUMP JUMPDEST PUSH1 0x0 PUSH2 0x1AC5 DUP3 PUSH2 0x1AAD JUMP JUMPDEST SWAP1 POP SWAP2 SWAP1 POP JUMP JUMPDEST PUSH1 0x0 PUSH2 0x1AD7 DUP3 PUSH2 0x1ABA JUMP JUMPDEST SWAP1 POP SWAP2 SWAP1 POP JUMP JUMPDEST PUSH2 0x1AEF PUSH2 0x1AEA DUP3 PUSH2 0x1283 JUMP JUMPDEST PUSH2 0x1ACC JUMP JUMPDEST DUP3 MSTORE POP POP JUMP JUMPDEST PUSH1 0x0 PUSH2 0x1B01 DUP3 DUP7 PUSH2 0x1A96 JUMP JUMPDEST PUSH1 0x20 DUP3 ADD SWAP2 POP PUSH2 0x1B11 DUP3 DUP6 PUSH2 0x1ADE JUMP JUMPDEST PUSH1 0x14 DUP3 ADD SWAP2 POP PUSH2 0x1B21 DUP3 DUP5 PUSH2 0x1A96 JUMP JUMPDEST PUSH1 0x20 DUP3 ADD SWAP2 POP DUP2 SWAP1 POP SWAP5 SWAP4 POP POP POP POP JUMP JUMPDEST PUSH32 0x4E487B7100000000000000000000000000000000000000000000000000000000 PUSH1 0x0 MSTORE PUSH1 0x12 PUSH1 0x4 MSTORE PUSH1 0x24 PUSH1 0x0 REVERT JUMPDEST PUSH1 0x0 PUSH2 0x1B6C DUP3 PUSH2 0x1107 JUMP JUMPDEST SWAP2 POP PUSH2 0x1B77 DUP4 PUSH2 0x1107 JUMP JUMPDEST SWAP3 POP DUP3 PUSH2 0x1B87 JUMPI PUSH2 0x1B86 PUSH2 0x1B32 JUMP JUMPDEST JUMPDEST DUP3 DUP3 MOD SWAP1 POP SWAP3 SWAP2 POP POP JUMP INVALID LOG2 PUSH5 0x6970667358 0x22 SLT KECCAK256 PUSH3 0x7E2185 0xC4 DUP8 MSIZE LOG2 0xDF LOG1 0xAD 0xDD PUSH21 0x563E71CA3628CA660A6EBC8033D0F5874A82A96473 PUSH16 0x6C634300081100330000000000000000 "
				},
				"gasEstimates": {
					"creation": {
						"codeDepositCost": "1422400",
						"executionCost": "infinite",
						"totalCost": "infinite"
					},
					"external": {
						"gameToOwner(uint256)": "2862",
						"games(uint256)": "infinite",
						"owner()": "2566",
						"ownerGamesCount(address)": "2859",
						"playRockPaperScissors(string)": "infinite",
						"renounceOwnership()": "30420",
						"transferOwnership(address)": "30810"
					},
					"internal": {
						"createOutputMessage(string memory,string memory,uint256)": "infinite",
						"determineComputerChoice()": "infinite",
						"determineGameOutcome(string memory,string memory)": "infinite",
						"randMod()": "infinite"
					}
				},
				"methodIdentifiers": {
					"gameToOwner(uint256)": "38696766",
					"games(uint256)": "117a5b90",
					"owner()": "8da5cb5b",
					"ownerGamesCount(address)": "470778c4",
					"playRockPaperScissors(string)": "4ef58916",
					"renounceOwnership()": "715018a6",
					"transferOwnership(address)": "f2fde38b"
				}
			},
			"storageLayout": {
				"storage": [
					{
						"astId": 7,
						"contract": "contracts/rock_paper_scissors.sol:RockPaperScissors",
						"label": "_owner",
						"offset": 0,
						"slot": "0",
						"type": "t_address"
					},
					{
						"astId": 140,
						"contract": "contracts/rock_paper_scissors.sol:RockPaperScissors",
						"label": "games",
						"offset": 0,
						"slot": "1",
						"type": "t_array(t_struct(Game)136_storage)dyn_storage"
					},
					{
						"astId": 144,
						"contract": "contracts/rock_paper_scissors.sol:RockPaperScissors",
						"label": "gameToOwner",
						"offset": 0,
						"slot": "2",
						"type": "t_mapping(t_uint256,t_address)"
					},
					{
						"astId": 148,
						"contract": "contracts/rock_paper_scissors.sol:RockPaperScissors",
						"label": "ownerGamesCount",
						"offset": 0,
						"slot": "3",
						"type": "t_mapping(t_address,t_uint256)"
					}
				],
				"types": {
					"t_address": {
						"encoding": "inplace",
						"label": "address",
						"numberOfBytes": "20"
					},
					"t_array(t_struct(Game)136_storage)dyn_storage": {
						"base": "t_struct(Game)136_storage",
						"encoding": "dynamic_array",
						"label": "struct RockPaperScissors.Game[]",
						"numberOfBytes": "32"
					},
					"t_mapping(t_address,t_uint256)": {
						"encoding": "mapping",
						"key": "t_address",
						"label": "mapping(address => uint256)",
						"numberOfBytes": "32",
						"value": "t_uint256"
					},
					"t_mapping(t_uint256,t_address)": {
						"encoding": "mapping",
						"key": "t_uint256",
						"label": "mapping(uint256 => address)",
						"numberOfBytes": "32",
						"value": "t_address"
					},
					"t_string_storage": {
						"encoding": "bytes",
						"label": "string",
						"numberOfBytes": "32"
					},
					"t_struct(Game)136_storage": {
						"encoding": "inplace",
						"label": "struct RockPaperScissors.Game",
						"members": [
							{
								"astId": 129,
								"contract": "contracts/rock_paper_scissors.sol:RockPaperScissors",
								"label": "playerInput",
								"offset": 0,
								"slot": "0",
								"type": "t_string_storage"
							},
							{
								"astId": 131,
								"contract": "contracts/rock_paper_scissors.sol:RockPaperScissors",
								"label": "computerChoice",
								"offset": 0,
								"slot": "1",
								"type": "t_string_storage"
							},
							{
								"astId": 133,
								"contract": "contracts/rock_paper_scissors.sol:RockPaperScissors",
								"label": "gameOutcome",
								"offset": 0,
								"slot": "2",
								"type": "t_uint256"
							},
							{
								"astId": 135,
								"contract": "contracts/rock_paper_scissors.sol:RockPaperScissors",
								"label": "outputMessage",
								"offset": 0,
								"slot": "3",
								"type": "t_string_storage"
							}
						],
						"numberOfBytes": "128"
					},
					"t_uint256": {
						"encoding": "inplace",
						"label": "uint256",
						"numberOfBytes": "32"
					}
				}
			},
			"userdoc": {
				"kind": "user",
				"methods": {},
				"version": 1
			}
		}
	}
}