{
	"data": {
		"bytecode": {
			"linkReferences": {},
			"object": "608060405234801561001057600080fd5b5061002d61002261003260201b60201c565b61003a60201b60201c565b6100fe565b600033905090565b60008060009054906101000a900473ffffffffffffffffffffffffffffffffffffffff169050816000806101000a81548173ffffffffffffffffffffffffffffffffffffffff021916908373ffffffffffffffffffffffffffffffffffffffff1602179055508173ffffffffffffffffffffffffffffffffffffffff168173ffffffffffffffffffffffffffffffffffffffff167f8be0079c531659141344cd1fd0a4f28419497f9722a3daafe3b4186f6b6457e060405160405180910390a35050565b611bc88061010d6000396000f3fe608060405234801561001057600080fd5b506004361061007d5760003560e01c80634ef589161161005b5780634ef5891614610115578063715018a6146101455780638da5cb5b1461014f578063f2fde38b1461016d5761007d565b8063117a5b901461008257806338696766146100b5578063470778c4146100e5575b600080fd5b61009c6004803603810190610097919061113d565b610189565b6040516100ac9493929190611209565b60405180910390f35b6100cf60048036038101906100ca919061113d565b610361565b6040516100dc91906112a4565b60405180910390f35b6100ff60048036038101906100fa91906112eb565b610394565b60405161010c9190611318565b60405180910390f35b61012f600480360381019061012a9190611468565b6103ac565b60405161013c91906114b1565b60405180910390f35b61014d610576565b005b61015761058a565b60405161016491906112a4565b60405180910390f35b610187600480360381019061018291906112eb565b6105b3565b005b6001818154811061019957600080fd5b90600052602060002090600402016000915090508060000180546101bc90611502565b80601f01602080910402602001604051908101604052809291908181526020018280546101e890611502565b80156102355780601f1061020a57610100808354040283529160200191610235565b820191906000526020600020905b81548152906001019060200180831161021857829003601f168201915b50505050509080600101805461024a90611502565b80601f016020809104026020016040519081016040528092919081815260200182805461027690611502565b80156102c35780601f10610298576101008083540402835291602001916102c3565b820191906000526020600020905b8154815290600101906020018083116102a657829003601f168201915b5050505050908060020154908060030180546102de90611502565b80601f016020809104026020016040519081016040528092919081815260200182805461030a90611502565b80156103575780601f1061032c57610100808354040283529160200191610357565b820191906000526020600020905b81548152906001019060200180831161033a57829003601f168201915b5050505050905084565b60026020528060005260406000206000915054906101000a900473ffffffffffffffffffffffffffffffffffffffff1681565b60036020528060005260406000206000915090505481565b606060006103b8610636565b905060006103c68483610734565b905060006103d5858484610e4a565b905060016040518060800160405280878152602001858152602001848152602001838152509080600181540180825580915050600190039060005260206000209060040201600090919091909150600082015181600001908161043891906116df565b50602082015181600101908161044e91906116df565b5060408201518160020155606082015181600301908161046e91906116df565b50505060006001808054905061048491906117e0565b9050600360003373ffffffffffffffffffffffffffffffffffffffff1673ffffffffffffffffffffffffffffffffffffffff16815260200190815260200160002060008154809291906104d690611814565b9190505550336002600083815260200190815260200160002060006101000a81548173ffffffffffffffffffffffffffffffffffffffff021916908373ffffffffffffffffffffffffffffffffffffffff1602179055507fe40d376e16bd4fd04229f0f470f60a5b75581253e7d4a1276ea76d0f239393d1868585856040516105629493929190611209565b60405180910390a181945050505050919050565b61057e610f4e565b6105886000610fcc565b565b60008060009054906101000a900473ffffffffffffffffffffffffffffffffffffffff16905090565b6105bb610f4e565b600073ffffffffffffffffffffffffffffffffffffffff168173ffffffffffffffffffffffffffffffffffffffff160361062a576040517f08c379a0000000000000000000000000000000000000000000000000000000008152600401610621906118ce565b60405180910390fd5b61063381610fcc565b50565b6060600060219050600060429050600061064e611090565b9050606083821015610697576040518060400160405280600481526020017f726f636b00000000000000000000000000000000000000000000000000000000815250905061072a565b83821180156106a557508282105b156106e7576040518060400160405280600581526020017f70617065720000000000000000000000000000000000000000000000000000008152509050610729565b82821115610728576040518060400160405280600881526020017f73636973736f727300000000000000000000000000000000000000000000000081525090505b5b5b8094505050505090565b6000806040518060400160405280600481526020017f726f636b00000000000000000000000000000000000000000000000000000000815250905060006040518060400160405280600581526020017f7061706572000000000000000000000000000000000000000000000000000000815250905060006040518060400160405280600881526020017f73636973736f727300000000000000000000000000000000000000000000000081525090506000836040516020016107f6919061192a565b604051602081830303815290604052805190602001208760405160200161081d919061192a565b6040516020818303038152906040528051906020012014801561088b57508360405160200161084c919061192a565b6040516020818303038152906040528051906020012086604051602001610873919061192a565b60405160208183030381529060405280519060200120145b156108995760009050610e3d565b836040516020016108aa919061192a565b60405160208183030381529060405280519060200120876040516020016108d1919061192a565b6040516020818303038152906040528051906020012014801561093f575082604051602001610900919061192a565b6040516020818303038152906040528051906020012086604051602001610927919061192a565b60405160208183030381529060405280519060200120145b1561094d5760029050610e3c565b8360405160200161095e919061192a565b6040516020818303038152906040528051906020012087604051602001610985919061192a565b604051602081830303815290604052805190602001201480156109f35750816040516020016109b4919061192a565b60405160208183030381529060405280519060200120866040516020016109db919061192a565b60405160208183030381529060405280519060200120145b15610a015760019050610e3b565b82604051602001610a12919061192a565b6040516020818303038152906040528051906020012087604051602001610a39919061192a565b60405160208183030381529060405280519060200120148015610aa7575083604051602001610a68919061192a565b6040516020818303038152906040528051906020012086604051602001610a8f919061192a565b60405160208183030381529060405280519060200120145b15610ab55760029050610e3a565b82604051602001610ac6919061192a565b6040516020818303038152906040528051906020012087604051602001610aed919061192a565b60405160208183030381529060405280519060200120148015610b5b575082604051602001610b1c919061192a565b6040516020818303038152906040528051906020012086604051602001610b43919061192a565b60405160208183030381529060405280519060200120145b15610b695760009050610e39565b82604051602001610b7a919061192a565b6040516020818303038152906040528051906020012087604051602001610ba1919061192a565b60405160208183030381529060405280519060200120148015610c0f575081604051602001610bd0919061192a565b6040516020818303038152906040528051906020012086604051602001610bf7919061192a565b60405160208183030381529060405280519060200120145b15610c1d5760029050610e38565b81604051602001610c2e919061192a565b6040516020818303038152906040528051906020012087604051602001610c55919061192a565b60405160208183030381529060405280519060200120148015610cc3575083604051602001610c84919061192a565b6040516020818303038152906040528051906020012086604051602001610cab919061192a565b60405160208183030381529060405280519060200120145b15610cd15760029050610e37565b81604051602001610ce2919061192a565b6040516020818303038152906040528051906020012087604051602001610d09919061192a565b60405160208183030381529060405280519060200120148015610d77575082604051602001610d38919061192a565b6040516020818303038152906040528051906020012086604051602001610d5f919061192a565b60405160208183030381529060405280519060200120145b15610d855760019050610e36565b81604051602001610d96919061192a565b6040516020818303038152906040528051906020012087604051602001610dbd919061192a565b60405160208183030381529060405280519060200120148015610e2b575081604051602001610dec919061192a565b6040516020818303038152906040528051906020012086604051602001610e13919061192a565b60405160208183030381529060405280519060200120145b15610e3557600090505b5b5b5b5b5b5b5b5b8094505050505092915050565b606080606060008403610e94576040518060400160405280601b81526020017f2e205468652067616d6520656e64656420696e206120647261772e00000000008152509050610f1c565b60018403610ed9576040518060400160405280601381526020017f2e20596f7520776f6e207468652067616d652e000000000000000000000000008152509050610f1b565b60028403610f1a576040518060400160405280601481526020017f2e20596f75206c6f7374207468652067616d652e00000000000000000000000081525090505b5b5b858582604051602001610f31939291906119d9565b604051602081830303815290604052915081925050509392505050565b610f566110eb565b73ffffffffffffffffffffffffffffffffffffffff16610f7461058a565b73ffffffffffffffffffffffffffffffffffffffff1614610fca576040517f08c379a0000000000000000000000000000000000000000000000000000000008152600401610fc190611a6c565b60405180910390fd5b565b60008060009054906101000a900473ffffffffffffffffffffffffffffffffffffffff169050816000806101000a81548173ffffffffffffffffffffffffffffffffffffffff021916908373ffffffffffffffffffffffffffffffffffffffff1602179055508173ffffffffffffffffffffffffffffffffffffffff168173ffffffffffffffffffffffffffffffffffffffff167f8be0079c531659141344cd1fd0a4f28419497f9722a3daafe3b4186f6b6457e060405160405180910390a35050565b6000806000905060006064905081806110a890611814565b925050804233846040516020016110c193929190611af5565b6040516020818303038152906040528051906020012060001c6110e49190611b61565b9250505090565b600033905090565b6000604051905090565b600080fd5b600080fd5b6000819050919050565b61111a81611107565b811461112557600080fd5b50565b60008135905061113781611111565b92915050565b600060208284031215611153576111526110fd565b5b600061116184828501611128565b91505092915050565b600081519050919050565b600082825260208201905092915050565b60005b838110156111a4578082015181840152602081019050611189565b60008484015250505050565b6000601f19601f8301169050919050565b60006111cc8261116a565b6111d68185611175565b93506111e6818560208601611186565b6111ef816111b0565b840191505092915050565b61120381611107565b82525050565b6000608082019050818103600083015261122381876111c1565b9050818103602083015261123781866111c1565b905061124660408301856111fa565b818103606083015261125881846111c1565b905095945050505050565b600073ffffffffffffffffffffffffffffffffffffffff82169050919050565b600061128e82611263565b9050919050565b61129e81611283565b82525050565b60006020820190506112b96000830184611295565b92915050565b6112c881611283565b81146112d357600080fd5b50565b6000813590506112e5816112bf565b92915050565b600060208284031215611301576113006110fd565b5b600061130f848285016112d6565b91505092915050565b600060208201905061132d60008301846111fa565b92915050565b600080fd5b600080fd5b7f4e487b7100000000000000000000000000000000000000000000000000000000600052604160045260246000fd5b611375826111b0565b810181811067ffffffffffffffff821117156113945761139361133d565b5b80604052505050565b60006113a76110f3565b90506113b3828261136c565b919050565b600067ffffffffffffffff8211156113d3576113d261133d565b5b6113dc826111b0565b9050602081019050919050565b82818337600083830152505050565b600061140b611406846113b8565b61139d565b90508281526020810184848401111561142757611426611338565b5b6114328482856113e9565b509392505050565b600082601f83011261144f5761144e611333565b5b813561145f8482602086016113f8565b91505092915050565b60006020828403121561147e5761147d6110fd565b5b600082013567ffffffffffffffff81111561149c5761149b611102565b5b6114a88482850161143a565b91505092915050565b600060208201905081810360008301526114cb81846111c1565b905092915050565b7f4e487b7100000000000000000000000000000000000000000000000000000000600052602260045260246000fd5b6000600282049050600182168061151a57607f821691505b60208210810361152d5761152c6114d3565b5b50919050565b60008190508160005260206000209050919050565b60006020601f8301049050919050565b600082821b905092915050565b6000600883026115957fffffffffffffffffffffffffffffffffffffffffffffffffffffffffffffffff82611558565b61159f8683611558565b95508019841693508086168417925050509392505050565b6000819050919050565b60006115dc6115d76115d284611107565b6115b7565b611107565b9050919050565b6000819050919050565b6115f6836115c1565b61160a611602826115e3565b848454611565565b825550505050565b600090565b61161f611612565b61162a8184846115ed565b505050565b5b8181101561164e57611643600082611617565b600181019050611630565b5050565b601f8211156116935761166481611533565b61166d84611548565b8101602085101561167c578190505b61169061168885611548565b83018261162f565b50505b505050565b600082821c905092915050565b60006116b660001984600802611698565b1980831691505092915050565b60006116cf83836116a5565b9150826002028217905092915050565b6116e88261116a565b67ffffffffffffffff8111156117015761170061133d565b5b61170b8254611502565b611716828285611652565b600060209050601f8311600181146117495760008415611737578287015190505b61174185826116c3565b8655506117a9565b601f19841661175786611533565b60005b8281101561177f5784890151825560018201915060208501945060208101905061175a565b8683101561179c5784890151611798601f8916826116a5565b8355505b6001600288020188555050505b505050505050565b7f4e487b7100000000000000000000000000000000000000000000000000000000600052601160045260246000fd5b60006117eb82611107565b91506117f683611107565b925082820390508181111561180e5761180d6117b1565b5b92915050565b600061181f82611107565b91507fffffffffffffffffffffffffffffffffffffffffffffffffffffffffffffffff8203611851576118506117b1565b5b600182019050919050565b7f4f776e61626c653a206e6577206f776e657220697320746865207a65726f206160008201527f6464726573730000000000000000000000000000000000000000000000000000602082015250565b60006118b8602683611175565b91506118c38261185c565b604082019050919050565b600060208201905081810360008301526118e7816118ab565b9050919050565b600081905092915050565b60006119048261116a565b61190e81856118ee565b935061191e818560208601611186565b80840191505092915050565b600061193682846118f9565b915081905092915050565b7f596f75207069636b656420000000000000000000000000000000000000000000600082015250565b6000611977600b836118ee565b915061198282611941565b600b82019050919050565b7f20616e642074686520636f6d7075746572207069636b65642000000000000000600082015250565b60006119c36019836118ee565b91506119ce8261198d565b601982019050919050565b60006119e48261196a565b91506119f082866118f9565b91506119fb826119b6565b9150611a0782856118f9565b9150611a1382846118f9565b9150819050949350505050565b7f4f776e61626c653a2063616c6c6572206973206e6f7420746865206f776e6572600082015250565b6000611a56602083611175565b9150611a6182611a20565b602082019050919050565b60006020820190508181036000830152611a8581611a49565b9050919050565b6000819050919050565b611aa7611aa282611107565b611a8c565b82525050565b60008160601b9050919050565b6000611ac582611aad565b9050919050565b6000611ad782611aba565b9050919050565b611aef611aea82611283565b611acc565b82525050565b6000611b018286611a96565b602082019150611b118285611ade565b601482019150611b218284611a96565b602082019150819050949350505050565b7f4e487b7100000000000000000000000000000000000000000000000000000000600052601260045260246000fd5b6000611b6c82611107565b9150611b7783611107565b925082611b8757611b86611b32565b5b82820690509291505056fea2646970667358221220627e2185c48759a2dfa1addd74563e71ca3628ca660a6ebc8033d0f5874a82a964736f6c63430008110033",
			"opcodes": "PUSH1 0x80 PUSH1 0x40 MSTORE CALLVALUE DUP1 ISZERO PUSH2 0x10 JUMPI PUSH1 0x0 DUP1 REVERT JUMPDEST POP PUSH2 0x2D PUSH2 0x22 PUSH2 0x32 PUSH1 0x20 SHL PUSH1 0x20 SHR JUMP JUMPDEST PUSH2 0x3A PUSH1 0x20 SHL PUSH1 0x20 SHR JUMP JUMPDEST PUSH2 0xFE JUMP JUMPDEST PUSH1 0x0 CALLER SWAP1 POP SWAP1 JUMP JUMPDEST PUSH1 0x0 DUP1 PUSH1 0x0 SWAP1 SLOAD SWAP1 PUSH2 0x100 EXP SWAP1 DIV PUSH20 0xFFFFFFFFFFFFFFFFFFFFFFFFFFFFFFFFFFFFFFFF AND SWAP1 POP DUP2 PUSH1 0x0 DUP1 PUSH2 0x100 EXP DUP2 SLOAD DUP2 PUSH20 0xFFFFFFFFFFFFFFFFFFFFFFFFFFFFFFFFFFFFFFFF MUL NOT AND SWAP1 DUP4 PUSH20 0xFFFFFFFFFFFFFFFFFFFFFFFFFFFFFFFFFFFFFFFF AND MUL OR SWAP1 SSTORE POP DUP2 PUSH20 0xFFFFFFFFFFFFFFFFFFFFFFFFFFFFFFFFFFFFFFFF AND DUP2 PUSH20 0xFFFFFFFFFFFFFFFFFFFFFFFFFFFFFFFFFFFFFFFF AND PUSH32 0x8BE0079C531659141344CD1FD0A4F28419497F9722A3DAAFE3B4186F6B6457E0 PUSH1 0x40 MLOAD PUSH1 0x40 MLOAD DUP1 SWAP2 SUB SWAP1 LOG3 POP POP JUMP JUMPDEST PUSH2 0x1BC8 DUP1 PUSH2 0x10D PUSH1 0x0 CODECOPY PUSH1 0x0 RETURN INVALID PUSH1 0x80 PUSH1 0x40 MSTORE CALLVALUE DUP1 ISZERO PUSH2 0x10 JUMPI PUSH1 0x0 DUP1 REVERT JUMPDEST POP PUSH1 0x4 CALLDATASIZE LT PUSH2 0x7D JUMPI PUSH1 0x0 CALLDATALOAD PUSH1 0xE0 SHR DUP1 PUSH4 0x4EF58916 GT PUSH2 0x5B JUMPI DUP1 PUSH4 0x4EF58916 EQ PUSH2 0x115 JUMPI DUP1 PUSH4 0x715018A6 EQ PUSH2 0x145 JUMPI DUP1 PUSH4 0x8DA5CB5B EQ PUSH2 0x14F JUMPI DUP1 PUSH4 0xF2FDE38B EQ PUSH2 0x16D JUMPI PUSH2 0x7D JUMP JUMPDEST DUP1 PUSH4 0x117A5B90 EQ PUSH2 0x82 JUMPI DUP1 PUSH4 0x38696766 EQ PUSH2 0xB5 JUMPI DUP1 PUSH4 0x470778C4 EQ PUSH2 0xE5 JUMPI JUMPDEST PUSH1 0x0 DUP1 REVERT JUMPDEST PUSH2 0x9C PUSH1 0x4 DUP1 CALLDATASIZE SUB DUP2 ADD SWAP1 PUSH2 0x97 SWAP2 SWAP1 PUSH2 0x113D JUMP JUMPDEST PUSH2 0x189 JUMP JUMPDEST PUSH1 0x40 MLOAD PUSH2 0xAC SWAP5 SWAP4 SWAP3 SWAP2 SWAP1 PUSH2 0x1209 JUMP JUMPDEST PUSH1 0x40 MLOAD DUP1 SWAP2 SUB SWAP1 RETURN JUMPDEST PUSH2 0xCF PUSH1 0x4 DUP1 CALLDATASIZE SUB DUP2 ADD SWAP1 PUSH2 0xCA SWAP2 SWAP1 PUSH2 0x113D JUMP JUMPDEST PUSH2 0x361 JUMP JUMPDEST PUSH1 0x40 MLOAD PUSH2 0xDC SWAP2 SWAP1 PUSH2 0x12A4 JUMP JUMPDEST PUSH1 0x40 MLOAD DUP1 SWAP2 SUB SWAP1 RETURN JUMPDEST PUSH2 0xFF PUSH1 0x4 DUP1 CALLDATASIZE SUB DUP2 ADD SWAP1 PUSH2 0xFA SWAP2 SWAP1 PUSH2 0x12EB JUMP JUMPDEST PUSH2 0x394 JUMP JUMPDEST PUSH1 0x40 MLOAD PUSH2 0x10C SWAP2 SWAP1 PUSH2 0x1318 JUMP JUMPDEST PUSH1 0x40 MLOAD DUP1 SWAP2 SUB SWAP1 RETURN JUMPDEST PUSH2 0x12F PUSH1 0x4 DUP1 CALLDATASIZE SUB DUP2 ADD SWAP1 PUSH2 0x12A SWAP2 SWAP1 PUSH2 0x1468 JUMP JUMPDEST PUSH2 0x3AC JUMP JUMPDEST PUSH1 0x40 MLOAD PUSH2 0x13C SWAP2 SWAP1 PUSH2 0x14B1 JUMP JUMPDEST PUSH1 0x40 MLOAD DUP1 SWAP2 SUB SWAP1 RETURN JUMPDEST PUSH2 0x14D PUSH2 0x576 JUMP JUMPDEST STOP JUMPDEST PUSH2 0x157 PUSH2 0x58A JUMP JUMPDEST PUSH1 0x40 MLOAD PUSH2 0x164 SWAP2 SWAP1 PUSH2 0x12A4 JUMP JUMPDEST PUSH1 0x40 MLOAD DUP1 SWAP2 SUB SWAP1 RETURN JUMPDEST PUSH2 0x187 PUSH1 0x4 DUP1 CALLDATASIZE SUB DUP2 ADD SWAP1 PUSH2 0x182 SWAP2 SWAP1 PUSH2 0x12EB JUMP JUMPDEST PUSH2 0x5B3 JUMP JUMPDEST STOP JUMPDEST PUSH1 0x1 DUP2 DUP2 SLOAD DUP2 LT PUSH2 0x199 JUMPI PUSH1 0x0 DUP1 REVERT JUMPDEST SWAP1 PUSH1 0x0 MSTORE PUSH1 0x20 PUSH1 0x0 KECCAK256 SWAP1 PUSH1 0x4 MUL ADD PUSH1 0x0 SWAP2 POP SWAP1 POP DUP1 PUSH1 0x0 ADD DUP1 SLOAD PUSH2 0x1BC SWAP1 PUSH2 0x1502 JUMP JUMPDEST DUP1 PUSH1 0x1F ADD PUSH1 0x20 DUP1 SWAP2 DIV MUL PUSH1 0x20 ADD PUSH1 0x40 MLOAD SWAP1 DUP2 ADD PUSH1 0x40 MSTORE DUP1 SWAP3 SWAP2 SWAP1 DUP2 DUP2 MSTORE PUSH1 0x20 ADD DUP3 DUP1 SLOAD PUSH2 0x1E8 SWAP1 PUSH2 0x1502 JUMP JUMPDEST DUP1 ISZERO PUSH2 0x235 JUMPI DUP1 PUSH1 0x1F LT PUSH2 0x20A JUMPI PUSH2 0x100 DUP1 DUP4 SLOAD DIV MUL DUP4 MSTORE SWAP2 PUSH1 0x20 ADD SWAP2 PUSH2 0x235 JUMP JUMPDEST DUP3 ADD SWAP2 SWAP1 PUSH1 0x0 MSTORE PUSH1 0x20 PUSH1 0x0 KECCAK256 SWAP1 JUMPDEST DUP2 SLOAD DUP2 MSTORE SWAP1 PUSH1 0x1 ADD SWAP1 PUSH1 0x20 ADD DUP1 DUP4 GT PUSH2 0x218 JUMPI DUP3 SWAP1 SUB PUSH1 0x1F AND DUP3 ADD SWAP2 JUMPDEST POP POP POP POP POP SWAP1 DUP1 PUSH1 0x1 ADD DUP1 SLOAD PUSH2 0x24A SWAP1 PUSH2 0x1502 JUMP JUMPDEST DUP1 PUSH1 0x1F ADD PUSH1 0x20 DUP1 SWAP2 DIV MUL PUSH1 0x20 ADD PUSH1 0x40 MLOAD SWAP1 DUP2 ADD PUSH1 0x40 MSTORE DUP1 SWAP3 SWAP2 SWAP1 DUP2 DUP2 MSTORE PUSH1 0x20 ADD DUP3 DUP1 SLOAD PUSH2 0x276 SWAP1 PUSH2 0x1502 JUMP JUMPDEST DUP1 ISZERO PUSH2 0x2C3 JUMPI DUP1 PUSH1 0x1F LT PUSH2 0x298 JUMPI PUSH2 0x100 DUP1 DUP4 SLOAD DIV MUL DUP4 MSTORE SWAP2 PUSH1 0x20 ADD SWAP2 PUSH2 0x2C3 JUMP JUMPDEST DUP3 ADD SWAP2 SWAP1 PUSH1 0x0 MSTORE PUSH1 0x20 PUSH1 0x0 KECCAK256 SWAP1 JUMPDEST DUP2 SLOAD DUP2 MSTORE SWAP1 PUSH1 0x1 ADD SWAP1 PUSH1 0x20 ADD DUP1 DUP4 GT PUSH2 0x2A6 JUMPI DUP3 SWAP1 SUB PUSH1 0x1F AND DUP3 ADD SWAP2 JUMPDEST POP POP POP POP POP SWAP1 DUP1 PUSH1 0x2 ADD SLOAD SWAP1 DUP1 PUSH1 0x3 ADD DUP1 SLOAD PUSH2 0x2DE SWAP1 PUSH2 0x1502 JUMP JUMPDEST DUP1 PUSH1 0x1F ADD PUSH1 0x20 DUP1 SWAP2 DIV MUL PUSH1 0x20 ADD PUSH1 0x40 MLOAD SWAP1 DUP2 ADD PUSH1 0x40 MSTORE DUP1 SWAP3 SWAP2 SWAP1 DUP2 DUP2 MSTORE PUSH1 0x20 ADD DUP3 DUP1 SLOAD PUSH2 0x30A SWAP1 PUSH2 0x1502 JUMP JUMPDEST DUP1 ISZERO PUSH2 0x357 JUMPI DUP1 PUSH1 0x1F LT PUSH2 0x32C JUMPI PUSH2 0x100 DUP1 DUP4 SLOAD DIV MUL DUP4 MSTORE SWAP2 PUSH1 0x20 ADD SWAP2 PUSH2 0x357 JUMP JUMPDEST DUP3 ADD SWAP2 SWAP1 PUSH1 0x0 MSTORE PUSH1 0x20 PUSH1 0x0 KECCAK256 SWAP1 JUMPDEST DUP2 SLOAD DUP2 MSTORE SWAP1 PUSH1 0x1 ADD SWAP1 PUSH1 0x20 ADD DUP1 DUP4 GT PUSH2 0x33A JUMPI DUP3 SWAP1 SUB PUSH1 0x1F AND DUP3 ADD SWAP2 JUMPDEST POP POP POP POP POP SWAP1 POP DUP5 JUMP JUMPDEST PUSH1 0x2 PUSH1 0x20 MSTORE DUP1 PUSH1 0x0 MSTORE PUSH1 0x40 PUSH1 0x0 KECCAK256 PUSH1 0x0 SWAP2 POP SLOAD SWAP1 PUSH2 0x100 EXP SWAP1 DIV PUSH20 0xFFFFFFFFFFFFFFFFFFFFFFFFFFFFFFFFFFFFFFFF AND DUP2 JUMP JUMPDEST PUSH1 0x3 PUSH1 0x20 MSTORE DUP1 PUSH1 0x0 MSTORE PUSH1 0x40 PUSH1 0x0 KECCAK256 PUSH1 0x0 SWAP2 POP SWAP1 POP SLOAD DUP2 JUMP JUMPDEST PUSH1 0x60 PUSH1 0x0 PUSH2 0x3B8 PUSH2 0x636 JUMP JUMPDEST SWAP1 POP PUSH1 0x0 PUSH2 0x3C6 DUP5 DUP4 PUSH2 0x734 JUMP JUMPDEST SWAP1 POP PUSH1 0x0 PUSH2 0x3D5 DUP6 DUP5 DUP5 PUSH2 0xE4A JUMP JUMPDEST SWAP1 POP PUSH1 0x1 PUSH1 0x40 MLOAD DUP1 PUSH1 0x80 ADD PUSH1 0x40 MSTORE DUP1 DUP8 DUP2 MSTORE PUSH1 0x20 ADD DUP6 DUP2 MSTORE PUSH1 0x20 ADD DUP5 DUP2 MSTORE PUSH1 0x20 ADD DUP4 DUP2 MSTORE POP SWAP1 DUP1 PUSH1 0x1 DUP2 SLOAD ADD DUP1 DUP3 SSTORE DUP1 SWAP2 POP POP PUSH1 0x1 SWAP1 SUB SWAP1 PUSH1 0x0 MSTORE PUSH1 0x20 PUSH1 0x0 KECCAK256 SWAP1 PUSH1 0x4 MUL ADD PUSH1 0x0 SWAP1 SWAP2 SWAP1 SWAP2 SWAP1 SWAP2 POP PUSH1 0x0 DUP3 ADD MLOAD DUP2 PUSH1 0x0 ADD SWAP1 DUP2 PUSH2 0x438 SWAP2 SWAP1 PUSH2 0x16DF JUMP JUMPDEST POP PUSH1 0x20 DUP3 ADD MLOAD DUP2 PUSH1 0x1 ADD SWAP1 DUP2 PUSH2 0x44E SWAP2 SWAP1 PUSH2 0x16DF JUMP JUMPDEST POP PUSH1 0x40 DUP3 ADD MLOAD DUP2 PUSH1 0x2 ADD SSTORE PUSH1 0x60 DUP3 ADD MLOAD DUP2 PUSH1 0x3 ADD SWAP1 DUP2 PUSH2 0x46E SWAP2 SWAP1 PUSH2 0x16DF JUMP JUMPDEST POP POP POP PUSH1 0x0 PUSH1 0x1 DUP1 DUP1 SLOAD SWAP1 POP PUSH2 0x484 SWAP2 SWAP1 PUSH2 0x17E0 JUMP JUMPDEST SWAP1 POP PUSH1 0x3 PUSH1 0x0 CALLER PUSH20 0xFFFFFFFFFFFFFFFFFFFFFFFFFFFFFFFFFFFFFFFF AND PUSH20 0xFFFFFFFFFFFFFFFFFFFFFFFFFFFFFFFFFFFFFFFF AND DUP2 MSTORE PUSH1 0x20 ADD SWAP1 DUP2 MSTORE PUSH1 0x20 ADD PUSH1 0x0 KECCAK256 PUSH1 0x0 DUP2 SLOAD DUP1 SWAP3 SWAP2 SWAP1 PUSH2 0x4D6 SWAP1 PUSH2 0x1814 JUMP JUMPDEST SWAP2 SWAP1 POP SSTORE POP CALLER PUSH1 0x2 PUSH1 0x0 DUP4 DUP2 MSTORE PUSH1 0x20 ADD SWAP1 DUP2 MSTORE PUSH1 0x20 ADD PUSH1 0x0 KECCAK256 PUSH1 0x0 PUSH2 0x100 EXP DUP2 SLOAD DUP2 PUSH20 0xFFFFFFFFFFFFFFFFFFFFFFFFFFFFFFFFFFFFFFFF MUL NOT AND SWAP1 DUP4 PUSH20 0xFFFFFFFFFFFFFFFFFFFFFFFFFFFFFFFFFFFFFFFF AND MUL OR SWAP1 SSTORE POP PUSH32 0xE40D376E16BD4FD04229F0F470F60A5B75581253E7D4A1276EA76D0F239393D1 DUP7 DUP6 DUP6 DUP6 PUSH1 0x40 MLOAD PUSH2 0x562 SWAP5 SWAP4 SWAP3 SWAP2 SWAP1 PUSH2 0x1209 JUMP JUMPDEST PUSH1 0x40 MLOAD DUP1 SWAP2 SUB SWAP1 LOG1 DUP2 SWAP5 POP POP POP POP POP SWAP2 SWAP1 POP JUMP JUMPDEST PUSH2 0x57E PUSH2 0xF4E JUMP JUMPDEST PUSH2 0x588 PUSH1 0x0 PUSH2 0xFCC JUMP JUMPDEST JUMP JUMPDEST PUSH1 0x0 DUP1 PUSH1 0x0 SWAP1 SLOAD SWAP1 PUSH2 0x100 EXP SWAP1 DIV PUSH20 0xFFFFFFFFFFFFFFFFFFFFFFFFFFFFFFFFFFFFFFFF AND SWAP1 POP SWAP1 JUMP JUMPDEST PUSH2 0x5BB PUSH2 0xF4E JUMP JUMPDEST PUSH1 0x0 PUSH20 0xFFFFFFFFFFFFFFFFFFFFFFFFFFFFFFFFFFFFFFFF AND DUP2 PUSH20 0xFFFFFFFFFFFFFFFFFFFFFFFFFFFFFFFFFFFFFFFF AND SUB PUSH2 0x62A JUMPI PUSH1 0x40 MLOAD PUSH32 0x8C379A000000000000000000000000000000000000000000000000000000000 DUP2 MSTORE PUSH1 0x4 ADD PUSH2 0x621 SWAP1 PUSH2 0x18CE JUMP JUMPDEST PUSH1 0x40 MLOAD DUP1 SWAP2 SUB SWAP1 REVERT JUMPDEST PUSH2 0x633 DUP2 PUSH2 0xFCC JUMP JUMPDEST POP JUMP JUMPDEST PUSH1 0x60 PUSH1 0x0 PUSH1 0x21 SWAP1 POP PUSH1 0x0 PUSH1 0x42 SWAP1 POP PUSH1 0x0 PUSH2 0x64E PUSH2 0x1090 JUMP JUMPDEST SWAP1 POP PUSH1 0x60 DUP4 DUP3 LT ISZERO PUSH2 0x697 JUMPI PUSH1 0x40 MLOAD DUP1 PUSH1 0x40 ADD PUSH1 0x40 MSTORE DUP1 PUSH1 0x4 DUP2 MSTORE PUSH1 0x20 ADD PUSH32 0x726F636B00000000000000000000000000000000000000000000000000000000 DUP2 MSTORE POP SWAP1 POP PUSH2 0x72A JUMP JUMPDEST DUP4 DUP3 GT DUP1 ISZERO PUSH2 0x6A5 JUMPI POP DUP3 DUP3 LT JUMPDEST ISZERO PUSH2 0x6E7 JUMPI PUSH1 0x40 MLOAD DUP1 PUSH1 0x40 ADD PUSH1 0x40 MSTORE DUP1 PUSH1 0x5 DUP2 MSTORE PUSH1 0x20 ADD PUSH32 0x7061706572000000000000000000000000000000000000000000000000000000 DUP2 MSTORE POP SWAP1 POP PUSH2 0x729 JUMP JUMPDEST DUP3 DUP3 GT ISZERO PUSH2 0x728 JUMPI PUSH1 0x40 MLOAD DUP1 PUSH1 0x40 ADD PUSH1 0x40 MSTORE DUP1 PUSH1 0x8 DUP2 MSTORE PUSH1 0x20 ADD PUSH32 0x73636973736F7273000000000000000000000000000000000000000000000000 DUP2 MSTORE POP SWAP1 POP JUMPDEST JUMPDEST JUMPDEST DUP1 SWAP5 POP POP POP POP POP SWAP1 JUMP JUMPDEST PUSH1 0x0 DUP1 PUSH1 0x40 MLOAD DUP1 PUSH1 0x40 ADD PUSH1 0x40 MSTORE DUP1 PUSH1 0x4 DUP2 MSTORE PUSH1 0x20 ADD PUSH32 0x726F636B00000000000000000000000000000000000000000000000000000000 DUP2 MSTORE POP SWAP1 POP PUSH1 0x0 PUSH1 0x40 MLOAD DUP1 PUSH1 0x40 ADD PUSH1 0x40 MSTORE DUP1 PUSH1 0x5 DUP2 MSTORE PUSH1 0x20 ADD PUSH32 0x7061706572000000000000000000000000000000000000000000000000000000 DUP2 MSTORE POP SWAP1 POP PUSH1 0x0 PUSH1 0x40 MLOAD DUP1 PUSH1 0x40 ADD PUSH1 0x40 MSTORE DUP1 PUSH1 0x8 DUP2 MSTORE PUSH1 0x20 ADD PUSH32 0x73636973736F7273000000000000000000000000000000000000000000000000 DUP2 MSTORE POP SWAP1 POP PUSH1 0x0 DUP4 PUSH1 0x40 MLOAD PUSH1 0x20 ADD PUSH2 0x7F6 SWAP2 SWAP1 PUSH2 0x192A JUMP JUMPDEST PUSH1 0x40 MLOAD PUSH1 0x20 DUP2 DUP4 SUB SUB DUP2 MSTORE SWAP1 PUSH1 0x40 MSTORE DUP1 MLOAD SWAP1 PUSH1 0x20 ADD KECCAK256 DUP8 PUSH1 0x40 MLOAD PUSH1 0x20 ADD PUSH2 0x81D SWAP2 SWAP1 PUSH2 0x192A JUMP JUMPDEST PUSH1 0x40 MLOAD PUSH1 0x20 DUP2 DUP4 SUB SUB DUP2 MSTORE SWAP1 PUSH1 0x40 MSTORE DUP1 MLOAD SWAP1 PUSH1 0x20 ADD KECCAK256 EQ DUP1 ISZERO PUSH2 0x88B JUMPI POP DUP4 PUSH1 0x40 MLOAD PUSH1 0x20 ADD PUSH2 0x84C SWAP2 SWAP1 PUSH2 0x192A JUMP JUMPDEST PUSH1 0x40 MLOAD PUSH1 0x20 DUP2 DUP4 SUB SUB DUP2 MSTORE SWAP1 PUSH1 0x40 MSTORE DUP1 MLOAD SWAP1 PUSH1 0x20 ADD KECCAK256 DUP7 PUSH1 0x40 MLOAD PUSH1 0x20 ADD PUSH2 0x873 SWAP2 SWAP1 PUSH2 0x192A JUMP JUMPDEST PUSH1 0x40 MLOAD PUSH1 0x20 DUP2 DUP4 SUB SUB DUP2 MSTORE SWAP1 PUSH1 0x40 MSTORE DUP1 MLOAD SWAP1 PUSH1 0x20 ADD KECCAK256 EQ JUMPDEST ISZERO PUSH2 0x899 JUMPI PUSH1 0x0 SWAP1 POP PUSH2 0xE3D JUMP JUMPDEST DUP4 PUSH1 0x40 MLOAD PUSH1 0x20 ADD PUSH2 0x8AA SWAP2 SWAP1 PUSH2 0x192A JUMP JUMPDEST PUSH1 0x40 MLOAD PUSH1 0x20 DUP2 DUP4 SUB SUB DUP2 MSTORE SWAP1 PUSH1 0x40 MSTORE DUP1 MLOAD SWAP1 PUSH1 0x20 ADD KECCAK256 DUP8 PUSH1 0x40 MLOAD PUSH1 0x20 ADD PUSH2 0x8D1 SWAP2 SWAP1 PUSH2 0x192A JUMP JUMPDEST PUSH1 0x40 MLOAD PUSH1 0x20 DUP2 DUP4 SUB SUB DUP2 MSTORE SWAP1 PUSH1 0x40 MSTORE DUP1 MLOAD SWAP1 PUSH1 0x20 ADD KECCAK256 EQ DUP1 ISZERO PUSH2 0x93F JUMPI POP DUP3 PUSH1 0x40 MLOAD PUSH1 0x20 ADD PUSH2 0x900 SWAP2 SWAP1 PUSH2 0x192A JUMP JUMPDEST PUSH1 0x40 MLOAD PUSH1 0x20 DUP2 DUP4 SUB SUB DUP2 MSTORE SWAP1 PUSH1 0x40 MSTORE DUP1 MLOAD SWAP1 PUSH1 0x20 ADD KECCAK256 DUP7 PUSH1 0x40 MLOAD PUSH1 0x20 ADD PUSH2 0x927 SWAP2 SWAP1 PUSH2 0x192A JUMP JUMPDEST PUSH1 0x40 MLOAD PUSH1 0x20 DUP2 DUP4 SUB SUB DUP2 MSTORE SWAP1 PUSH1 0x40 MSTORE DUP1 MLOAD SWAP1 PUSH1 0x20 ADD KECCAK256 EQ JUMPDEST ISZERO PUSH2 0x94D JUMPI PUSH1 0x2 SWAP1 POP PUSH2 0xE3C JUMP JUMPDEST DUP4 PUSH1 0x40 MLOAD PUSH1 0x20 ADD PUSH2 0x95E SWAP2 SWAP1 PUSH2 0x192A JUMP JUMPDEST PUSH1 0x40 MLOAD PUSH1 0x20 DUP2 DUP4 SUB SUB DUP2 MSTORE SWAP1 PUSH1 0x40 MSTORE DUP1 MLOAD SWAP1 PUSH1 0x20 ADD KECCAK256 DUP8 PUSH1 0x40 MLOAD PUSH1 0x20 ADD PUSH2 0x985 SWAP2 SWAP1 PUSH2 0x192A JUMP JUMPDEST PUSH1 0x40 MLOAD PUSH1 0x20 DUP2 DUP4 SUB SUB DUP2 MSTORE SWAP1 PUSH1 0x40 MSTORE DUP1 MLOAD SWAP1 PUSH1 0x20 ADD KECCAK256 EQ DUP1 ISZERO PUSH2 0x9F3 JUMPI POP DUP2 PUSH1 0x40 MLOAD PUSH1 0x20 ADD PUSH2 0x9B4 SWAP2 SWAP1 PUSH2 0x192A JUMP JUMPDEST PUSH1 0x40 MLOAD PUSH1 0x20 DUP2 DUP4 SUB SUB DUP2 MSTORE SWAP1 PUSH1 0x40 MSTORE DUP1 MLOAD SWAP1 PUSH1 0x20 ADD KECCAK256 DUP7 PUSH1 0x40 MLOAD PUSH1 0x20 ADD PUSH2 0x9DB SWAP2 SWAP1 PUSH2 0x192A JUMP JUMPDEST PUSH1 0x40 MLOAD PUSH1 0x20 DUP2 DUP4 SUB SUB DUP2 MSTORE SWAP1 PUSH1 0x40 MSTORE DUP1 MLOAD SWAP1 PUSH1 0x20 ADD KECCAK256 EQ JUMPDEST ISZERO PUSH2 0xA01 JUMPI PUSH1 0x1 SWAP1 POP PUSH2 0xE3B JUMP JUMPDEST DUP3 PUSH1 0x40 MLOAD PUSH1 0x20 ADD PUSH2 0xA12 SWAP2 SWAP1 PUSH2 0x192A JUMP JUMPDEST PUSH1 0x40 MLOAD PUSH1 0x20 DUP2 DUP4 SUB SUB DUP2 MSTORE SWAP1 PUSH1 0x40 MSTORE DUP1 MLOAD SWAP1 PUSH1 0x20 ADD KECCAK256 DUP8 PUSH1 0x40 MLOAD PUSH1 0x20 ADD PUSH2 0xA39 SWAP2 SWAP1 PUSH2 0x192A JUMP JUMPDEST PUSH1 0x40 MLOAD PUSH1 0x20 DUP2 DUP4 SUB SUB DUP2 MSTORE SWAP1 PUSH1 0x40 MSTORE DUP1 MLOAD SWAP1 PUSH1 0x20 ADD KECCAK256 EQ DUP1 ISZERO PUSH2 0xAA7 JUMPI POP DUP4 PUSH1 0x40 MLOAD PUSH1 0x20 ADD PUSH2 0xA68 SWAP2 SWAP1 PUSH2 0x192A JUMP JUMPDEST PUSH1 0x40 MLOAD PUSH1 0x20 DUP2 DUP4 SUB SUB DUP2 MSTORE SWAP1 PUSH1 0x40 MSTORE DUP1 MLOAD SWAP1 PUSH1 0x20 ADD KECCAK256 DUP7 PUSH1 0x40 MLOAD PUSH1 0x20 ADD PUSH2 0xA8F SWAP2 SWAP1 PUSH2 0x192A JUMP JUMPDEST PUSH1 0x40 MLOAD PUSH1 0x20 DUP2 DUP4 SUB SUB DUP2 MSTORE SWAP1 PUSH1 0x40 MSTORE DUP1 MLOAD SWAP1 PUSH1 0x20 ADD KECCAK256 EQ JUMPDEST ISZERO PUSH2 0xAB5 JUMPI PUSH1 0x2 SWAP1 POP PUSH2 0xE3A JUMP JUMPDEST DUP3 PUSH1 0x40 MLOAD PUSH1 0x20 ADD PUSH2 0xAC6 SWAP2 SWAP1 PUSH2 0x192A JUMP JUMPDEST PUSH1 0x40 MLOAD PUSH1 0x20 DUP2 DUP4 SUB SUB DUP2 MSTORE SWAP1 PUSH1 0x40 MSTORE DUP1 MLOAD SWAP1 PUSH1 0x20 ADD KECCAK256 DUP8 PUSH1 0x40 MLOAD PUSH1 0x20 ADD PUSH2 0xAED SWAP2 SWAP1 PUSH2 0x192A JUMP JUMPDEST PUSH1 0x40 MLOAD PUSH1 0x20 DUP2 DUP4 SUB SUB DUP2 MSTORE SWAP1 PUSH1 0x40 MSTORE DUP1 MLOAD SWAP1 PUSH1 0x20 ADD KECCAK256 EQ DUP1 ISZERO PUSH2 0xB5B JUMPI POP DUP3 PUSH1 0x40 MLOAD PUSH1 0x20 ADD PUSH2 0xB1C SWAP2 SWAP1 PUSH2 0x192A JUMP JUMPDEST PUSH1 0x40 MLOAD PUSH1 0x20 DUP2 DUP4 SUB SUB DUP2 MSTORE SWAP1 PUSH1 0x40 MSTORE DUP1 MLOAD SWAP1 PUSH1 0x20 ADD KECCAK256 DUP7 PUSH1 0x40 MLOAD PUSH1 0x20 ADD PUSH2 0xB43 SWAP2 SWAP1 PUSH2 0x192A JUMP JUMPDEST PUSH1 0x40 MLOAD PUSH1 0x20 DUP2 DUP4 SUB SUB DUP2 MSTORE SWAP1 PUSH1 0x40 MSTORE DUP1 MLOAD SWAP1 PUSH1 0x20 ADD KECCAK256 EQ JUMPDEST ISZERO PUSH2 0xB69 JUMPI PUSH1 0x0 SWAP1 POP PUSH2 0xE39 JUMP JUMPDEST DUP3 PUSH1 0x40 MLOAD PUSH1 0x20 ADD PUSH2 0xB7A SWAP2 SWAP1 PUSH2 0x192A JUMP JUMPDEST PUSH1 0x40 MLOAD PUSH1 0x20 DUP2 DUP4 SUB SUB DUP2 MSTORE SWAP1 PUSH1 0x40 MSTORE DUP1 MLOAD SWAP1 PUSH1 0x20 ADD KECCAK256 DUP8 PUSH1 0x40 MLOAD PUSH1 0x20 ADD PUSH2 0xBA1 SWAP2 SWAP1 PUSH2 0x192A JUMP JUMPDEST PUSH1 0x40 MLOAD PUSH1 0x20 DUP2 DUP4 SUB SUB DUP2 MSTORE SWAP1 PUSH1 0x40 MSTORE DUP1 MLOAD SWAP1 PUSH1 0x20 ADD KECCAK256 EQ DUP1 ISZERO PUSH2 0xC0F JUMPI POP DUP2 PUSH1 0x40 MLOAD PUSH1 0x20 ADD PUSH2 0xBD0 SWAP2 SWAP1 PUSH2 0x192A JUMP JUMPDEST PUSH1 0x40 MLOAD PUSH1 0x20 DUP2 DUP4 SUB SUB DUP2 MSTORE SWAP1 PUSH1 0x40 MSTORE DUP1 MLOAD SWAP1 PUSH1 0x20 ADD KECCAK256 DUP7 PUSH1 0x40 MLOAD PUSH1 0x20 ADD PUSH2 0xBF7 SWAP2 SWAP1 PUSH2 0x192A JUMP JUMPDEST PUSH1 0x40 MLOAD PUSH1 0x20 DUP2 DUP4 SUB SUB DUP2 MSTORE SWAP1 PUSH1 0x40 MSTORE DUP1 MLOAD SWAP1 PUSH1 0x20 ADD KECCAK256 EQ JUMPDEST ISZERO PUSH2 0xC1D JUMPI PUSH1 0x2 SWAP1 POP PUSH2 0xE38 JUMP JUMPDEST DUP2 PUSH1 0x40 MLOAD PUSH1 0x20 ADD PUSH2 0xC2E SWAP2 SWAP1 PUSH2 0x192A JUMP JUMPDEST PUSH1 0x40 MLOAD PUSH1 0x20 DUP2 DUP4 SUB SUB DUP2 MSTORE SWAP1 PUSH1 0x40 MSTORE DUP1 MLOAD SWAP1 PUSH1 0x20 ADD KECCAK256 DUP8 PUSH1 0x40 MLOAD PUSH1 0x20 ADD PUSH2 0xC55 SWAP2 SWAP1 PUSH2 0x192A JUMP JUMPDEST PUSH1 0x40 MLOAD PUSH1 0x20 DUP2 DUP4 SUB SUB DUP2 MSTORE SWAP1 PUSH1 0x40 MSTORE DUP1 MLOAD SWAP1 PUSH1 0x20 ADD KECCAK256 EQ DUP1 ISZERO PUSH2 0xCC3 JUMPI POP DUP4 PUSH1 0x40 MLOAD PUSH1 0x20 ADD PUSH2 0xC84 SWAP2 SWAP1 PUSH2 0x192A JUMP JUMPDEST PUSH1 0x40 MLOAD PUSH1 0x20 DUP2 DUP4 SUB SUB DUP2 MSTORE SWAP1 PUSH1 0x40 MSTORE DUP1 MLOAD SWAP1 PUSH1 0x20 ADD KECCAK256 DUP7 PUSH1 0x40 MLOAD PUSH1 0x20 ADD PUSH2 0xCAB SWAP2 SWAP1 PUSH2 0x192A JUMP JUMPDEST PUSH1 0x40 MLOAD PUSH1 0x20 DUP2 DUP4 SUB SUB DUP2 MSTORE SWAP1 PUSH1 0x40 MSTORE DUP1 MLOAD SWAP1 PUSH1 0x20 ADD KECCAK256 EQ JUMPDEST ISZERO PUSH2 0xCD1 JUMPI PUSH1 0x2 SWAP1 POP PUSH2 0xE37 JUMP JUMPDEST DUP2 PUSH1 0x40 MLOAD PUSH1 0x20 ADD PUSH2 0xCE2 SWAP2 SWAP1 PUSH2 0x192A JUMP JUMPDEST PUSH1 0x40 MLOAD PUSH1 0x20 DUP2 DUP4 SUB SUB DUP2 MSTORE SWAP1 PUSH1 0x40 MSTORE DUP1 MLOAD SWAP1 PUSH1 0x20 ADD KECCAK256 DUP8 PUSH1 0x40 MLOAD PUSH1 0x20 ADD PUSH2 0xD09 SWAP2 SWAP1 PUSH2 0x192A JUMP JUMPDEST PUSH1 0x40 MLOAD PUSH1 0x20 DUP2 DUP4 SUB SUB DUP2 MSTORE SWAP1 PUSH1 0x40 MSTORE DUP1 MLOAD SWAP1 PUSH1 0x20 ADD KECCAK256 EQ DUP1 ISZERO PUSH2 0xD77 JUMPI POP DUP3 PUSH1 0x40 MLOAD PUSH1 0x20 ADD PUSH2 0xD38 SWAP2 SWAP1 PUSH2 0x192A JUMP JUMPDEST PUSH1 0x40 MLOAD PUSH1 0x20 DUP2 DUP4 SUB SUB DUP2 MSTORE SWAP1 PUSH1 0x40 MSTORE DUP1 MLOAD SWAP1 PUSH1 0x20 ADD KECCAK256 DUP7 PUSH1 0x40 MLOAD PUSH1 0x20 ADD PUSH2 0xD5F SWAP2 SWAP1 PUSH2 0x192A JUMP JUMPDEST PUSH1 0x40 MLOAD PUSH1 0x20 DUP2 DUP4 SUB SUB DUP2 MSTORE SWAP1 PUSH1 0x40 MSTORE DUP1 MLOAD SWAP1 PUSH1 0x20 ADD KECCAK256 EQ JUMPDEST ISZERO PUSH2 0xD85 JUMPI PUSH1 0x1 SWAP1 POP PUSH2 0xE36 JUMP JUMPDEST DUP2 PUSH1 0x40 MLOAD PUSH1 0x20 ADD PUSH2 0xD96 SWAP2 SWAP1 PUSH2 0x192A JUMP JUMPDEST PUSH1 0x40 MLOAD PUSH1 0x20 DUP2 DUP4 SUB SUB DUP2 MSTORE SWAP1 PUSH1 0x40 MSTORE DUP1 MLOAD SWAP1 PUSH1 0x20 ADD KECCAK256 DUP8 PUSH1 0x40 MLOAD PUSH1 0x20 ADD PUSH2 0xDBD SWAP2 SWAP1 PUSH2 0x192A JUMP JUMPDEST PUSH1 0x40 MLOAD PUSH1 0x20 DUP2 DUP4 SUB SUB DUP2 MSTORE SWAP1 PUSH1 0x40 MSTORE DUP1 MLOAD SWAP1 PUSH1 0x20 ADD KECCAK256 EQ DUP1 ISZERO PUSH2 0xE2B JUMPI POP DUP2 PUSH1 0x40 MLOAD PUSH1 0x20 ADD PUSH2 0xDEC SWAP2 SWAP1 PUSH2 0x192A JUMP JUMPDEST PUSH1 0x40 MLOAD PUSH1 0x20 DUP2 DUP4 SUB SUB DUP2 MSTORE SWAP1 PUSH1 0x40 MSTORE DUP1 MLOAD SWAP1 PUSH1 0x20 ADD KECCAK256 DUP7 PUSH1 0x40 MLOAD PUSH1 0x20 ADD PUSH2 0xE13 SWAP2 SWAP1 PUSH2 0x192A JUMP JUMPDEST PUSH1 0x40 MLOAD PUSH1 0x20 DUP2 DUP4 SUB SUB DUP2 MSTORE SWAP1 PUSH1 0x40 MSTORE DUP1 MLOAD SWAP1 PUSH1 0x20 ADD KECCAK256 EQ JUMPDEST ISZERO PUSH2 0xE35 JUMPI PUSH1 0x0 SWAP1 POP JUMPDEST JUMPDEST JUMPDEST JUMPDEST JUMPDEST JUMPDEST JUMPDEST JUMPDEST JUMPDEST DUP1 SWAP5 POP POP POP POP POP SWAP3 SWAP2 POP POP JUMP JUMPDEST PUSH1 0x60 DUP1 PUSH1 0x60 PUSH1 0x0 DUP5 SUB PUSH2 0xE94 JUMPI PUSH1 0x40 MLOAD DUP1 PUSH1 0x40 ADD PUSH1 0x40 MSTORE DUP1 PUSH1 0x1B DUP2 MSTORE PUSH1 0x20 ADD PUSH32 0x2E205468652067616D6520656E64656420696E206120647261772E0000000000 DUP2 MSTORE POP SWAP1 POP PUSH2 0xF1C JUMP JUMPDEST PUSH1 0x1 DUP5 SUB PUSH2 0xED9 JUMPI PUSH1 0x40 MLOAD DUP1 PUSH1 0x40 ADD PUSH1 0x40 MSTORE DUP1 PUSH1 0x13 DUP2 MSTORE PUSH1 0x20 ADD PUSH32 0x2E20596F7520776F6E207468652067616D652E00000000000000000000000000 DUP2 MSTORE POP SWAP1 POP PUSH2 0xF1B JUMP JUMPDEST PUSH1 0x2 DUP5 SUB PUSH2 0xF1A JUMPI PUSH1 0x40 MLOAD DUP1 PUSH1 0x40 ADD PUSH1 0x40 MSTORE DUP1 PUSH1 0x14 DUP2 MSTORE PUSH1 0x20 ADD PUSH32 0x2E20596F75206C6F7374207468652067616D652E000000000000000000000000 DUP2 MSTORE POP SWAP1 POP JUMPDEST JUMPDEST JUMPDEST DUP6 DUP6 DUP3 PUSH1 0x40 MLOAD PUSH1 0x20 ADD PUSH2 0xF31 SWAP4 SWAP3 SWAP2 SWAP1 PUSH2 0x19D9 JUMP JUMPDEST PUSH1 0x40 MLOAD PUSH1 0x20 DUP2 DUP4 SUB SUB DUP2 MSTORE SWAP1 PUSH1 0x40 MSTORE SWAP2 POP DUP2 SWAP3 POP POP POP SWAP4 SWAP3 POP POP POP JUMP JUMPDEST PUSH2 0xF56 PUSH2 0x10EB JUMP JUMPDEST PUSH20 0xFFFFFFFFFFFFFFFFFFFFFFFFFFFFFFFFFFFFFFFF AND PUSH2 0xF74 PUSH2 0x58A JUMP JUMPDEST PUSH20 0xFFFFFFFFFFFFFFFFFFFFFFFFFFFFFFFFFFFFFFFF AND EQ PUSH2 0xFCA JUMPI PUSH1 0x40 MLOAD PUSH32 0x8C379A000000000000000000000000000000000000000000000000000000000 DUP2 MSTORE PUSH1 0x4 ADD PUSH2 0xFC1 SWAP1 PUSH2 0x1A6C JUMP JUMPDEST PUSH1 0x40 MLOAD DUP1 SWAP2 SUB SWAP1 REVERT JUMPDEST JUMP JUMPDEST PUSH1 0x0 DUP1 PUSH1 0x0 SWAP1 SLOAD SWAP1 PUSH2 0x100 EXP SWAP1 DIV PUSH20 0xFFFFFFFFFFFFFFFFFFFFFFFFFFFFFFFFFFFFFFFF AND SWAP1 POP DUP2 PUSH1 0x0 DUP1 PUSH2 0x100 EXP DUP2 SLOAD DUP2 PUSH20 0xFFFFFFFFFFFFFFFFFFFFFFFFFFFFFFFFFFFFFFFF MUL NOT AND SWAP1 DUP4 PUSH20 0xFFFFFFFFFFFFFFFFFFFFFFFFFFFFFFFFFFFFFFFF AND MUL OR SWAP1 SSTORE POP DUP2 PUSH20 0xFFFFFFFFFFFFFFFFFFFFFFFFFFFFFFFFFFFFFFFF AND DUP2 PUSH20 0xFFFFFFFFFFFFFFFFFFFFFFFFFFFFFFFFFFFFFFFF AND PUSH32 0x8BE0079C531659141344CD1FD0A4F28419497F9722A3DAAFE3B4186F6B6457E0 PUSH1 0x40 MLOAD PUSH1 0x40 MLOAD DUP1 SWAP2 SUB SWAP1 LOG3 POP POP JUMP JUMPDEST PUSH1 0x0 DUP1 PUSH1 0x0 SWAP1 POP PUSH1 0x0 PUSH1 0x64 SWAP1 POP DUP2 DUP1 PUSH2 0x10A8 SWAP1 PUSH2 0x1814 JUMP JUMPDEST SWAP3 POP POP DUP1 TIMESTAMP CALLER DUP5 PUSH1 0x40 MLOAD PUSH1 0x20 ADD PUSH2 0x10C1 SWAP4 SWAP3 SWAP2 SWAP1 PUSH2 0x1AF5 JUMP JUMPDEST PUSH1 0x40 MLOAD PUSH1 0x20 DUP2 DUP4 SUB SUB DUP2 MSTORE SWAP1 PUSH1 0x40 MSTORE DUP1 MLOAD SWAP1 PUSH1 0x20 ADD KECCAK256 PUSH1 0x0 SHR PUSH2 0x10E4 SWAP2 SWAP1 PUSH2 0x1B61 JUMP JUMPDEST SWAP3 POP POP POP SWAP1 JUMP JUMPDEST PUSH1 0x0 CALLER SWAP1 POP SWAP1 JUMP JUMPDEST PUSH1 0x0 PUSH1 0x40 MLOAD SWAP1 POP SWAP1 JUMP JUMPDEST PUSH1 0x0 DUP1 REVERT JUMPDEST PUSH1 0x0 DUP1 REVERT JUMPDEST PUSH1 0x0 DUP2 SWAP1 POP SWAP2 SWAP1 POP JUMP JUMPDEST PUSH2 0x111A DUP2 PUSH2 0x1107 JUMP JUMPDEST DUP2 EQ PUSH2 0x1125 JUMPI PUSH1 0x0 DUP1 REVERT JUMPDEST POP JUMP JUMPDEST PUSH1 0x0 DUP2 CALLDATALOAD SWAP1 POP PUSH2 0x1137 DUP2 PUSH2 0x1111 JUMP JUMPDEST SWAP3 SWAP2 POP POP JUMP JUMPDEST PUSH1 0x0 PUSH1 0x20 DUP3 DUP5 SUB SLT ISZERO PUSH2 0x1153 JUMPI PUSH2 0x1152 PUSH2 0x10FD JUMP JUMPDEST JUMPDEST PUSH1 0x0 PUSH2 0x1161 DUP5 DUP3 DUP6 ADD PUSH2 0x1128 JUMP JUMPDEST SWAP2 POP POP SWAP3 SWAP2 POP POP JUMP JUMPDEST PUSH1 0x0 DUP2 MLOAD SWAP1 POP SWAP2 SWAP1 POP JUMP JUMPDEST PUSH1 0x0 DUP3 DUP3 MSTORE PUSH1 0x20 DUP3 ADD SWAP1 POP SWAP3 SWAP2 POP POP JUMP JUMPDEST PUSH1 0x0 JUMPDEST DUP4 DUP2 LT ISZERO PUSH2 0x11A4 JUMPI DUP1 DUP3 ADD MLOAD DUP2 DUP5 ADD MSTORE PUSH1 0x20 DUP2 ADD SWAP1 POP PUSH2 0x1189 JUMP JUMPDEST PUSH1 0x0 DUP5 DUP5 ADD MSTORE POP POP POP POP JUMP JUMPDEST PUSH1 0x0 PUSH1 0x1F NOT PUSH1 0x1F DUP4 ADD AND SWAP1 POP SWAP2 SWAP1 POP JUMP JUMPDEST PUSH1 0x0 PUSH2 0x11CC DUP3 PUSH2 0x116A JUMP JUMPDEST PUSH2 0x11D6 DUP2 DUP6 PUSH2 0x1175 JUMP JUMPDEST SWAP4 POP PUSH2 0x11E6 DUP2 DUP6 PUSH1 0x20 DUP7 ADD PUSH2 0x1186 JUMP JUMPDEST PUSH2 0x11EF DUP2 PUSH2 0x11B0 JUMP JUMPDEST DUP5 ADD SWAP2 POP POP SWAP3 SWAP2 POP POP JUMP JUMPDEST PUSH2 0x1203 DUP2 PUSH2 0x1107 JUMP JUMPDEST DUP3 MSTORE POP POP JUMP JUMPDEST PUSH1 0x0 PUSH1 0x80 DUP3 ADD SWAP1 POP DUP2 DUP2 SUB PUSH1 0x0 DUP4 ADD MSTORE PUSH2 0x1223 DUP2 DUP8 PUSH2 0x11C1 JUMP JUMPDEST SWAP1 POP DUP2 DUP2 SUB PUSH1 0x20 DUP4 ADD MSTORE PUSH2 0x1237 DUP2 DUP7 PUSH2 0x11C1 JUMP JUMPDEST SWAP1 POP PUSH2 0x1246 PUSH1 0x40 DUP4 ADD DUP6 PUSH2 0x11FA JUMP JUMPDEST DUP2 DUP2 SUB PUSH1 0x60 DUP4 ADD MSTORE PUSH2 0x1258 DUP2 DUP5 PUSH2 0x11C1 JUMP JUMPDEST SWAP1 POP SWAP6 SWAP5 POP POP POP POP POP JUMP JUMPDEST PUSH1 0x0 PUSH20 0xFFFFFFFFFFFFFFFFFFFFFFFFFFFFFFFFFFFFFFFF DUP3 AND SWAP1 POP SWAP2 SWAP1 POP JUMP JUMPDEST PUSH1 0x0 PUSH2 0x128E DUP3 PUSH2 0x1263 JUMP JUMPDEST SWAP1 POP SWAP2 SWAP1 POP JUMP JUMPDEST PUSH2 0x129E DUP2 PUSH2 0x1283 JUMP JUMPDEST DUP3 MSTORE POP POP JUMP JUMPDEST PUSH1 0x0 PUSH1 0x20 DUP3 ADD SWAP1 POP PUSH2 0x12B9 PUSH1 0x0 DUP4 ADD DUP5 PUSH2 0x1295 JUMP JUMPDEST SWAP3 SWAP2 POP POP JUMP JUMPDEST PUSH2 0x12C8 DUP2 PUSH2 0x1283 JUMP JUMPDEST DUP2 EQ PUSH2 0x12D3 JUMPI PUSH1 0x0 DUP1 REVERT JUMPDEST POP JUMP JUMPDEST PUSH1 0x0 DUP2 CALLDATALOAD SWAP1 POP PUSH2 0x12E5 DUP2 PUSH2 0x12BF JUMP JUMPDEST SWAP3 SWAP2 POP POP JUMP JUMPDEST PUSH1 0x0 PUSH1 0x20 DUP3 DUP5 SUB SLT ISZERO PUSH2 0x1301 JUMPI PUSH2 0x1300 PUSH2 0x10FD JUMP JUMPDEST JUMPDEST PUSH1 0x0 PUSH2 0x130F DUP5 DUP3 DUP6 ADD PUSH2 0x12D6 JUMP JUMPDEST SWAP2 POP POP SWAP3 SWAP2 POP POP JUMP JUMPDEST PUSH1 0x0 PUSH1 0x20 DUP3 ADD SWAP1 POP PUSH2 0x132D PUSH1 0x0 DUP4 ADD DUP5 PUSH2 0x11FA JUMP JUMPDEST SWAP3 SWAP2 POP POP JUMP JUMPDEST PUSH1 0x0 DUP1 REVERT JUMPDEST PUSH1 0x0 DUP1 REVERT JUMPDEST PUSH32 0x4E487B7100000000000000000000000000000000000000000000000000000000 PUSH1 0x0 MSTORE PUSH1 0x41 PUSH1 0x4 MSTORE PUSH1 0x24 PUSH1 0x0 REVERT JUMPDEST PUSH2 0x1375 DUP3 PUSH2 0x11B0 JUMP JUMPDEST DUP2 ADD DUP2 DUP2 LT PUSH8 0xFFFFFFFFFFFFFFFF DUP3 GT OR ISZERO PUSH2 0x1394 JUMPI PUSH2 0x1393 PUSH2 0x133D JUMP JUMPDEST JUMPDEST DUP1 PUSH1 0x40 MSTORE POP POP POP JUMP JUMPDEST PUSH1 0x0 PUSH2 0x13A7 PUSH2 0x10F3 JUMP JUMPDEST SWAP1 POP PUSH2 0x13B3 DUP3 DUP3 PUSH2 0x136C JUMP JUMPDEST SWAP2 SWAP1 POP JUMP JUMPDEST PUSH1 0x0 PUSH8 0xFFFFFFFFFFFFFFFF DUP3 GT ISZERO PUSH2 0x13D3 JUMPI PUSH2 0x13D2 PUSH2 0x133D JUMP JUMPDEST JUMPDEST PUSH2 0x13DC DUP3 PUSH2 0x11B0 JUMP JUMPDEST SWAP1 POP PUSH1 0x20 DUP2 ADD SWAP1 POP SWAP2 SWAP1 POP JUMP JUMPDEST DUP3 DUP2 DUP4 CALLDATACOPY PUSH1 0x0 DUP4 DUP4 ADD MSTORE POP POP POP JUMP JUMPDEST PUSH1 0x0 PUSH2 0x140B PUSH2 0x1406 DUP5 PUSH2 0x13B8 JUMP JUMPDEST PUSH2 0x139D JUMP JUMPDEST SWAP1 POP DUP3 DUP2 MSTORE PUSH1 0x20 DUP2 ADD DUP5 DUP5 DUP5 ADD GT ISZERO PUSH2 0x1427 JUMPI PUSH2 0x1426 PUSH2 0x1338 JUMP JUMPDEST JUMPDEST PUSH2 0x1432 DUP5 DUP3 DUP6 PUSH2 0x13E9 JUMP JUMPDEST POP SWAP4 SWAP3 POP POP POP JUMP JUMPDEST PUSH1 0x0 DUP3 PUSH1 0x1F DUP4 ADD SLT PUSH2 0x144F JUMPI PUSH2 0x144E PUSH2 0x1333 JUMP JUMPDEST JUMPDEST DUP2 CALLDATALOAD PUSH2 0x145F DUP5 DUP3 PUSH1 0x20 DUP7 ADD PUSH2 0x13F8 JUMP JUMPDEST SWAP2 POP POP SWAP3 SWAP2 POP POP JUMP JUMPDEST PUSH1 0x0 PUSH1 0x20 DUP3 DUP5 SUB SLT ISZERO PUSH2 0x147E JUMPI PUSH2 0x147D PUSH2 0x10FD JUMP JUMPDEST JUMPDEST PUSH1 0x0 DUP3 ADD CALLDATALOAD PUSH8 0xFFFFFFFFFFFFFFFF DUP2 GT ISZERO PUSH2 0x149C JUMPI PUSH2 0x149B PUSH2 0x1102 JUMP JUMPDEST JUMPDEST PUSH2 0x14A8 DUP5 DUP3 DUP6 ADD PUSH2 0x143A JUMP JUMPDEST SWAP2 POP POP SWAP3 SWAP2 POP POP JUMP JUMPDEST PUSH1 0x0 PUSH1 0x20 DUP3 ADD SWAP1 POP DUP2 DUP2 SUB PUSH1 0x0 DUP4 ADD MSTORE PUSH2 0x14CB DUP2 DUP5 PUSH2 0x11C1 JUMP JUMPDEST SWAP1 POP SWAP3 SWAP2 POP POP JUMP JUMPDEST PUSH32 0x4E487B7100000000000000000000000000000000000000000000000000000000 PUSH1 0x0 MSTORE PUSH1 0x22 PUSH1 0x4 MSTORE PUSH1 0x24 PUSH1 0x0 REVERT JUMPDEST PUSH1 0x0 PUSH1 0x2 DUP3 DIV SWAP1 POP PUSH1 0x1 DUP3 AND DUP1 PUSH2 0x151A JUMPI PUSH1 0x7F DUP3 AND SWAP2 POP JUMPDEST PUSH1 0x20 DUP3 LT DUP2 SUB PUSH2 0x152D JUMPI PUSH2 0x152C PUSH2 0x14D3 JUMP JUMPDEST JUMPDEST POP SWAP2 SWAP1 POP JUMP JUMPDEST PUSH1 0x0 DUP2 SWAP1 POP DUP2 PUSH1 0x0 MSTORE PUSH1 0x20 PUSH1 0x0 KECCAK256 SWAP1 POP SWAP2 SWAP1 POP JUMP JUMPDEST PUSH1 0x0 PUSH1 0x20 PUSH1 0x1F DUP4 ADD DIV SWAP1 POP SWAP2 SWAP1 POP JUMP JUMPDEST PUSH1 0x0 DUP3 DUP3 SHL SWAP1 POP SWAP3 SWAP2 POP POP JUMP JUMPDEST PUSH1 0x0 PUSH1 0x8 DUP4 MUL PUSH2 0x1595 PUSH32 0xFFFFFFFFFFFFFFFFFFFFFFFFFFFFFFFFFFFFFFFFFFFFFFFFFFFFFFFFFFFFFFFF DUP3 PUSH2 0x1558 JUMP JUMPDEST PUSH2 0x159F DUP7 DUP4 PUSH2 0x1558 JUMP JUMPDEST SWAP6 POP DUP1 NOT DUP5 AND SWAP4 POP DUP1 DUP7 AND DUP5 OR SWAP3 POP POP POP SWAP4 SWAP3 POP POP POP JUMP JUMPDEST PUSH1 0x0 DUP2 SWAP1 POP SWAP2 SWAP1 POP JUMP JUMPDEST PUSH1 0x0 PUSH2 0x15DC PUSH2 0x15D7 PUSH2 0x15D2 DUP5 PUSH2 0x1107 JUMP JUMPDEST PUSH2 0x15B7 JUMP JUMPDEST PUSH2 0x1107 JUMP JUMPDEST SWAP1 POP SWAP2 SWAP1 POP JUMP JUMPDEST PUSH1 0x0 DUP2 SWAP1 POP SWAP2 SWAP1 POP JUMP JUMPDEST PUSH2 0x15F6 DUP4 PUSH2 0x15C1 JUMP JUMPDEST PUSH2 0x160A PUSH2 0x1602 DUP3 PUSH2 0x15E3 JUMP JUMPDEST DUP5 DUP5 SLOAD PUSH2 0x1565 JUMP JUMPDEST DUP3 SSTORE POP POP POP POP JUMP JUMPDEST PUSH1 0x0 SWAP1 JUMP JUMPDEST PUSH2 0x161F PUSH2 0x1612 JUMP JUMPDEST PUSH2 0x162A DUP2 DUP5 DUP5 PUSH2 0x15ED JUMP JUMPDEST POP POP POP JUMP JUMPDEST JUMPDEST DUP2 DUP2 LT ISZERO PUSH2 0x164E JUMPI PUSH2 0x1643 PUSH1 0x0 DUP3 PUSH2 0x1617 JUMP JUMPDEST PUSH1 0x1 DUP2 ADD SWAP1 POP PUSH2 0x1630 JUMP JUMPDEST POP POP JUMP JUMPDEST PUSH1 0x1F DUP3 GT ISZERO PUSH2 0x1693 JUMPI PUSH2 0x1664 DUP2 PUSH2 0x1533 JUMP JUMPDEST PUSH2 0x166D DUP5 PUSH2 0x1548 JUMP JUMPDEST DUP2 ADD PUSH1 0x20 DUP6 LT ISZERO PUSH2 0x167C JUMPI DUP2 SWAP1 POP JUMPDEST PUSH2 0x1690 PUSH2 0x1688 DUP6 PUSH2 0x1548 JUMP JUMPDEST DUP4 ADD DUP3 PUSH2 0x162F JUMP JUMPDEST POP POP JUMPDEST POP POP POP JUMP JUMPDEST PUSH1 0x0 DUP3 DUP3 SHR SWAP1 POP SWAP3 SWAP2 POP POP JUMP JUMPDEST PUSH1 0x0 PUSH2 0x16B6 PUSH1 0x0 NOT DUP5 PUSH1 0x8 MUL PUSH2 0x1698 JUMP JUMPDEST NOT DUP1 DUP4 AND SWAP2 POP POP SWAP3 SWAP2 POP POP JUMP JUMPDEST PUSH1 0x0 PUSH2 0x16CF DUP4 DUP4 PUSH2 0x16A5 JUMP JUMPDEST SWAP2 POP DUP3 PUSH1 0x2 MUL DUP3 OR SWAP1 POP SWAP3 SWAP2 POP POP JUMP JUMPDEST PUSH2 0x16E8 DUP3 PUSH2 0x116A JUMP JUMPDEST PUSH8 0xFFFFFFFFFFFFFFFF DUP2 GT ISZERO PUSH2 0x1701 JUMPI PUSH2 0x1700 PUSH2 0x133D JUMP JUMPDEST JUMPDEST PUSH2 0x170B DUP3 SLOAD PUSH2 0x1502 JUMP JUMPDEST PUSH2 0x1716 DUP3 DUP3 DUP6 PUSH2 0x1652 JUMP JUMPDEST PUSH1 0x0 PUSH1 0x20 SWAP1 POP PUSH1 0x1F DUP4 GT PUSH1 0x1 DUP2 EQ PUSH2 0x1749 JUMPI PUSH1 0x0 DUP5 ISZERO PUSH2 0x1737 JUMPI DUP3 DUP8 ADD MLOAD SWAP1 POP JUMPDEST PUSH2 0x1741 DUP6 DUP3 PUSH2 0x16C3 JUMP JUMPDEST DUP7 SSTORE POP PUSH2 0x17A9 JUMP JUMPDEST PUSH1 0x1F NOT DUP5 AND PUSH2 0x1757 DUP7 PUSH2 0x1533 JUMP JUMPDEST PUSH1 0x0 JUMPDEST DUP3 DUP2 LT ISZERO PUSH2 0x177F JUMPI DUP5 DUP10 ADD MLOAD DUP3 SSTORE PUSH1 0x1 DUP3 ADD SWAP2 POP PUSH1 0x20 DUP6 ADD SWAP5 POP PUSH1 0x20 DUP2 ADD SWAP1 POP PUSH2 0x175A JUMP JUMPDEST DUP7 DUP4 LT ISZERO PUSH2 0x179C JUMPI DUP5 DUP10 ADD MLOAD PUSH2 0x1798 PUSH1 0x1F DUP10 AND DUP3 PUSH2 0x16A5 JUMP JUMPDEST DUP4 SSTORE POP JUMPDEST PUSH1 0x1 PUSH1 0x2 DUP9 MUL ADD DUP9 SSTORE POP POP POP JUMPDEST POP POP POP POP POP POP JUMP JUMPDEST PUSH32 0x4E487B7100000000000000000000000000000000000000000000000000000000 PUSH1 0x0 MSTORE PUSH1 0x11 PUSH1 0x4 MSTORE PUSH1 0x24 PUSH1 0x0 REVERT JUMPDEST PUSH1 0x0 PUSH2 0x17EB DUP3 PUSH2 0x1107 JUMP JUMPDEST SWAP2 POP PUSH2 0x17F6 DUP4 PUSH2 0x1107 JUMP JUMPDEST SWAP3 POP DUP3 DUP3 SUB SWAP1 POP DUP2 DUP2 GT ISZERO PUSH2 0x180E JUMPI PUSH2 0x180D PUSH2 0x17B1 JUMP JUMPDEST JUMPDEST SWAP3 SWAP2 POP POP JUMP JUMPDEST PUSH1 0x0 PUSH2 0x181F DUP3 PUSH2 0x1107 JUMP JUMPDEST SWAP2 POP PUSH32 0xFFFFFFFFFFFFFFFFFFFFFFFFFFFFFFFFFFFFFFFFFFFFFFFFFFFFFFFFFFFFFFFF DUP3 SUB PUSH2 0x1851 JUMPI PUSH2 0x1850 PUSH2 0x17B1 JUMP JUMPDEST JUMPDEST PUSH1 0x1 DUP3 ADD SWAP1 POP SWAP2 SWAP1 POP JUMP JUMPDEST PUSH32 0x4F776E61626C653A206E6577206F776E657220697320746865207A65726F2061 PUSH1 0x0 DUP3 ADD MSTORE PUSH32 0x6464726573730000000000000000000000000000000000000000000000000000 PUSH1 0x20 DUP3 ADD MSTORE POP JUMP JUMPDEST PUSH1 0x0 PUSH2 0x18B8 PUSH1 0x26 DUP4 PUSH2 0x1175 JUMP JUMPDEST SWAP2 POP PUSH2 0x18C3 DUP3 PUSH2 0x185C JUMP JUMPDEST PUSH1 0x40 DUP3 ADD SWAP1 POP SWAP2 SWAP1 POP JUMP JUMPDEST PUSH1 0x0 PUSH1 0x20 DUP3 ADD SWAP1 POP DUP2 DUP2 SUB PUSH1 0x0 DUP4 ADD MSTORE PUSH2 0x18E7 DUP2 PUSH2 0x18AB JUMP JUMPDEST SWAP1 POP SWAP2 SWAP1 POP JUMP JUMPDEST PUSH1 0x0 DUP2 SWAP1 POP SWAP3 SWAP2 POP POP JUMP JUMPDEST PUSH1 0x0 PUSH2 0x1904 DUP3 PUSH2 0x116A JUMP JUMPDEST PUSH2 0x190E DUP2 DUP6 PUSH2 0x18EE JUMP JUMPDEST SWAP4 POP PUSH2 0x191E DUP2 DUP6 PUSH1 0x20 DUP7 ADD PUSH2 0x1186 JUMP JUMPDEST DUP1 DUP5 ADD SWAP2 POP POP SWAP3 SWAP2 POP POP JUMP JUMPDEST PUSH1 0x0 PUSH2 0x1936 DUP3 DUP5 PUSH2 0x18F9 JUMP JUMPDEST SWAP2 POP DUP2 SWAP1 POP SWAP3 SWAP2 POP POP JUMP JUMPDEST PUSH32 0x596F75207069636B656420000000000000000000000000000000000000000000 PUSH1 0x0 DUP3 ADD MSTORE POP JUMP JUMPDEST PUSH1 0x0 PUSH2 0x1977 PUSH1 0xB DUP4 PUSH2 0x18EE JUMP JUMPDEST SWAP2 POP PUSH2 0x1982 DUP3 PUSH2 0x1941 JUMP JUMPDEST PUSH1 0xB DUP3 ADD SWAP1 POP SWAP2 SWAP1 POP JUMP JUMPDEST PUSH32 0x20616E642074686520636F6D7075746572207069636B65642000000000000000 PUSH1 0x0 DUP3 ADD MSTORE POP JUMP JUMPDEST PUSH1 0x0 PUSH2 0x19C3 PUSH1 0x19 DUP4 PUSH2 0x18EE JUMP JUMPDEST SWAP2 POP PUSH2 0x19CE DUP3 PUSH2 0x198D JUMP JUMPDEST PUSH1 0x19 DUP3 ADD SWAP1 POP SWAP2 SWAP1 POP JUMP JUMPDEST PUSH1 0x0 PUSH2 0x19E4 DUP3 PUSH2 0x196A JUMP JUMPDEST SWAP2 POP PUSH2 0x19F0 DUP3 DUP7 PUSH2 0x18F9 JUMP JUMPDEST SWAP2 POP PUSH2 0x19FB DUP3 PUSH2 0x19B6 JUMP JUMPDEST SWAP2 POP PUSH2 0x1A07 DUP3 DUP6 PUSH2 0x18F9 JUMP JUMPDEST SWAP2 POP PUSH2 0x1A13 DUP3 DUP5 PUSH2 0x18F9 JUMP JUMPDEST SWAP2 POP DUP2 SWAP1 POP SWAP5 SWAP4 POP POP POP POP JUMP JUMPDEST PUSH32 0x4F776E61626C653A2063616C6C6572206973206E6F7420746865206F776E6572 PUSH1 0x0 DUP3 ADD MSTORE POP JUMP JUMPDEST PUSH1 0x0 PUSH2 0x1A56 PUSH1 0x20 DUP4 PUSH2 0x1175 JUMP JUMPDEST SWAP2 POP PUSH2 0x1A61 DUP3 PUSH2 0x1A20 JUMP JUMPDEST PUSH1 0x20 DUP3 ADD SWAP1 POP SWAP2 SWAP1 POP JUMP JUMPDEST PUSH1 0x0 PUSH1 0x20 DUP3 ADD SWAP1 POP DUP2 DUP2 SUB PUSH1 0x0 DUP4 ADD MSTORE PUSH2 0x1A85 DUP2 PUSH2 0x1A49 JUMP JUMPDEST SWAP1 POP SWAP2 SWAP1 POP JUMP JUMPDEST PUSH1 0x0 DUP2 SWAP1 POP SWAP2 SWAP1 POP JUMP JUMPDEST PUSH2 0x1AA7 PUSH2 0x1AA2 DUP3 PUSH2 0x1107 JUMP JUMPDEST PUSH2 0x1A8C JUMP JUMPDEST DUP3 MSTORE POP POP JUMP JUMPDEST PUSH1 0x0 DUP2 PUSH1 0x60 SHL SWAP1 POP SWAP2 SWAP1 POP JUMP JUMPDEST PUSH1 0x0 PUSH2 0x1AC5 DUP3 PUSH2 0x1AAD JUMP JUMPDEST SWAP1 POP SWAP2 SWAP1 POP JUMP JUMPDEST PUSH1 0x0 PUSH2 0x1AD7 DUP3 PUSH2 0x1ABA JUMP JUMPDEST SWAP1 POP SWAP2 SWAP1 POP JUMP JUMPDEST PUSH2 0x1AEF PUSH2 0x1AEA DUP3 PUSH2 0x1283 JUMP JUMPDEST PUSH2 0x1ACC JUMP JUMPDEST DUP3 MSTORE POP POP JUMP JUMPDEST PUSH1 0x0 PUSH2 0x1B01 DUP3 DUP7 PUSH2 0x1A96 JUMP JUMPDEST PUSH1 0x20 DUP3 ADD SWAP2 POP PUSH2 0x1B11 DUP3 DUP6 PUSH2 0x1ADE JUMP JUMPDEST PUSH1 0x14 DUP3 ADD SWAP2 POP PUSH2 0x1B21 DUP3 DUP5 PUSH2 0x1A96 JUMP JUMPDEST PUSH1 0x20 DUP3 ADD SWAP2 POP DUP2 SWAP1 POP SWAP5 SWAP4 POP POP POP POP JUMP JUMPDEST PUSH32 0x4E487B7100000000000000000000000000000000000000000000000000000000 PUSH1 0x0 MSTORE PUSH1 0x12 PUSH1 0x4 MSTORE PUSH1 0x24 PUSH1 0x0 REVERT JUMPDEST PUSH1 0x0 PUSH2 0x1B6C DUP3 PUSH2 0x1107 JUMP JUMPDEST SWAP2 POP PUSH2 0x1B77 DUP4 PUSH2 0x1107 JUMP JUMPDEST SWAP3 POP DUP3 PUSH2 0x1B87 JUMPI PUSH2 0x1B86 PUSH2 0x1B32 JUMP JUMPDEST JUMPDEST DUP3 DUP3 MOD SWAP1 POP SWAP3 SWAP2 POP POP JUMP INVALID LOG2 PUSH5 0x6970667358 0x22 SLT KECCAK256 PUSH3 0x7E2185 0xC4 DUP8 MSIZE LOG2 0xDF LOG1 0xAD 0xDD PUSH21 0x563E71CA3628CA660A6EBC8033D0F5874A82A96473 PUSH16 0x6C634300081100330000000000000000 "
		},
		"gasEstimates": {
			"creation": {
				"codeDepositCost": "1422400",
				"executionCost": "infinite",
				"totalCost": "infinite"
			},
			"external": {
				"gameToOwner(uint256)": "2862",
				"games(uint256)": "infinite",
				"owner()": "2566",
				"ownerGamesCount(address)": "2859",
				"playRockPaperScissors(string)": "infinite",
				"renounceOwnership()": "30420",
				"transferOwnership(address)": "30810"
			},
			"internal": {
				"createOutputMessage(string memory,string memory,uint256)": "infinite",
				"determineComputerChoice()": "infinite",
				"determineGameOutcome(string memory,string memory)": "infinite",
				"randMod()": "infinite"
			}
		},
		"methodIdentifiers": {
			"gameToOwner(uint256)": "38696766",
			"games(uint256)": "117a5b90",
			"owner()": "8da5cb5b",
			"ownerGamesCount(address)": "470778c4",
			"playRockPaperScissors(string)": "4ef58916",
			"renounceOwnership()": "715018a6",
			"transferOwnership(address)": "f2fde38b"
		}
	},
	"abi": [
		{
			"anonymous": false,
			"inputs": [
				{
					"indexed": false,
					"internalType": "string",
					"name": "playerInput",
					"type": "string"
				},
				{
					"indexed": false,
					"internalType": "string",
					"name": "computerChoice",
					"type": "string"
				},
				{
					"indexed": false,
					"internalType": "uint256",
					"name": "gameOutcome",
					"type": "uint256"
				},
				{
					"indexed": false,
					"internalType": "string",
					"name": "outputMessage",
					"type": "string"
				}
			],
			"name": "NewGame",
			"type": "event"
		},
		{
			"anonymous": false,
			"inputs": [
				{
					"indexed": true,
					"internalType": "address",
					"name": "previousOwner",
					"type": "address"
				},
				{
					"indexed": true,
					"internalType": "address",
					"name": "newOwner",
					"type": "address"
				}
			],
			"name": "OwnershipTransferred",
			"type": "event"
		},
		{
			"inputs": [
				{
					"internalType": "uint256",
					"name": "",
					"type": "uint256"
				}
			],
			"name": "gameToOwner",
			"outputs": [
				{
					"internalType": "address",
					"name": "",
					"type": "address"
				}
			],
			"stateMutability": "view",
			"type": "function"
		},
		{
			"inputs": [
				{
					"internalType": "uint256",
					"name": "",
					"type": "uint256"
				}
			],
			"name": "games",
			"outputs": [
				{
					"internalType": "string",
					"name": "playerInput",
					"type": "string"
				},
				{
					"internalType": "string",
					"name": "computerChoice",
					"type": "string"
				},
				{
					"internalType": "uint256",
					"name": "gameOutcome",
					"type": "uint256"
				},
				{
					"internalType": "string",
					"name": "outputMessage",
					"type": "string"
				}
			],
			"stateMutability": "view",
			"type": "function"
		},
		{
			"inputs": [],
			"name": "owner",
			"outputs": [
				{
					"internalType": "address",
					"name": "",
					"type": "address"
				}
			],
			"stateMutability": "view",
			"type": "function"
		},
		{
			"inputs": [
				{
					"internalType": "address",
					"name": "",
					"type": "address"
				}
			],
			"name": "ownerGamesCount",
			"outputs": [
				{
					"internalType": "uint256",
					"name": "",
					"type": "uint256"
				}
			],
			"stateMutability": "view",
			"type": "function"
		},
		{
			"inputs": [
				{
					"internalType": "string",
					"name": "playerInput",
					"type": "string"
				}
			],
			"name": "playRockPaperScissors",
			"outputs": [
				{
					"internalType": "string",
					"name": "",
					"type": "string"
				}
			],
			"stateMutability": "nonpayable",
			"type": "function"
		},
		{
			"inputs": [],
			"name": "renounceOwnership",
			"outputs": [],
			"stateMutability": "nonpayable",
			"type": "function"
		},
		{
			"inputs": [
				{
					"internalType": "address",
					"name": "newOwner",
					"type": "address"
				}
			],
			"name": "transferOwnership",
			"outputs": [],
			"stateMutability": "nonpayable",
			"type": "function"
		}
	]
}